:100000000C94E4080C9411090C9411090C94110936
:100010000C9411090C9411090C9411090C941109F8
:100020000C9411090C9411090C9428330C941109A7
:100030000C9411090C9411090C94A9330C94110916
:100040000C9411090C9411090C94E92F0C941109CA
:100050000C94D52E0C9411090C9411090C941109CF
:100060000C9411090C9411090C9411090C941109A8
:100070000C9411090C9411090C94A22F0C941109E1
:100080000C9411090C9411090C94110920202020C2
:1000900000474E442D2D2D0000474E442D534E0059
:1000A00001474E442D4E530002474E442D494D000A
:1000B000035452582D424400105452582D534400BA
:1000C000115452582D585400125452582D43500078
:1000D000135452582D525300145452582D52530059
:1000E000155452582D434800165452582D4F48006D
:1000F000175452582D435900185452582D4D410051
:10010000195452582D434C001A5452582D5843003C
:100110001B5452582D4232001C45464D2D4244007E
:100120002045464D2D5344002145464D2D58540041
:100130002245464D2D4350002345464D2D52530038
:100140002445464D2D4342002545464D2D48480047
:100150002645464D2D435900274531322D42440056
:10016000304531322D534400314531322D48540051
:10017000324531322D4C5400334531322D4350003D
:10018000344531322D525300354531322D43420032
:10019000364531322D434800374531322D4F480026
:1001A000384531322D524300394531322D43430019
:1001B0003A4531322D4252003B4531322D544100F7
:1001C0003C4531322D5452003D4531322D534800CB
:1001D0003E4531322D4243003F502D492D424400CF
:1001E00040502D492D53440041502D492D4D540070
:1001F00042502D492D4D4C0043502D492D4D41006D
:1002000044502D492D52530045502D492D52430045
:1002100046502D492D43430047502D492D48480055
:1002200048494E502D47410050494E502D474200FD
:1002300051494E502D46410052494E502D464200E4
:1002400053494E502D45410054494E502D454200D2
:10025000554D49442D303100604D49442D30320018
:10026000614D49442D303300624D49442D303400F6
:10027000634D49442D303500644D49442D303600DE
:10028000654D49442D303700664D49442D303800C6
:10029000674D49442D303900684D49442D313000B7
:1002A000694D49442D3131006A4D49442D313200A8
:1002B0006B4D49442D3133006C4D49442D31340090
:1002C0006D4D49442D3135006E4D49442D31360078
:1002D0006F4354522D414C00704354522D385000FE
:1002E000714354522D524500784354522D474200D9
:1002F000794354522D4551007A4354522D445800AD
:100300007B524F4D2D30310080524F4D2D303200F9
:1003100081524F4D2D30330082524F4D2D303400DD
:1003200083524F4D2D30350084524F4D2D303600C5
:1003300085524F4D2D30370086524F4D2D303800AD
:1003400087524F4D2D30390088524F4D2D3130009E
:1003500089524F4D2D3131008A524F4D2D3132008F
:100360008B524F4D2D3133008C524F4D2D31340077
:100370008D524F4D2D3135008E524F4D2D3136005F
:100380008F524F4D2D31370090524F4D2D31380047
:1003900091524F4D2D31390092524F4D2D32300038
:1003A00093524F4D2D32310094524F4D2D32320029
:1003B00095524F4D2D32330096524F4D2D32340011
:1003C00097524F4D2D32350098524F4D2D323600F9
:1003D00099524F4D2D3237009A524F4D2D323800E1
:1003E0009B524F4D2D3239009C524F4D2D333000D2
:1003F0009D524F4D2D3331009E524F4D2D333200C3
:100400009F52414D2D523100A052414D2D5232008C
:10041000A152414D2D503100A252414D2D5032007C
:10042000A352414D2D523300A552414D2D5234005F
:10043000A652414D2D503300A752414D2D5034004E
:10044000A8524F4D2D333300B0524F4D2D33340051
:10045000B1524F4D2D333500B2524F4D2D33360032
:10046000B3524F4D2D333700B4524F4D2D3338001A
:10047000B5524F4D2D333900B6524F4D2D3430000B
:10048000B7524F4D2D343100B8524F4D2D343200FC
:10049000B9524F4D2D343300BA524F4D2D343400E4
:1004A000BB524F4D2D343500BC524F4D2D343600CC
:1004B000BD524F4D2D343700BE524F4D2D343800B4
:1004C000BF50544300004445430001524D500002C8
:1004D0005244430003000000007F444543000000F5
:1004E0000000007F555000000055564C0001445755
:1004F0004E000244564C0003000000007F5054435D
:1005000000004445430001524D5000025244430054
:100510000353545200044E5300000548524D000648
:10052000434C500007000000007F5054430000443B
:1005300045430001524D500002484C4400035443CF
:100540004B00044E530000054452540006445354DB
:100550000007000000007F50544300004445430062
:1005600001424D500002424E560003534E500004CB
:10057000544F4E000554554E0006434C50000700A2
:100580000000007F50544300004445430001524D99
:100590005000025244430003444D5000044453545D
:1005A00000054454500006000000007F434C5000FA
:1005B00000544F4E00014852440002524348000389
:1005C0005241540004524F4D000552535A000652F6
:1005D000544E0007000000007F5054430000444583
:1005E0004300014453540002000000007F50544374
:1005F00000004445430002454E480003444D50006E
:1006000004544F4E0005424D500006000000007F8C
:100610004741500000444543000148504600024C09
:10062000504600034D544C0004000000007F474139
:10063000500000444543000148504600024C5046DB
:1006400000034D544C0004000000007F524348005A
:10065000004445430001544F5000025454550003D8
:10066000535A000004504B000005000000007F4179
:100670005454000053555300015245560002444D56
:1006800050000352544C00045254500005544F4E35
:1006900000064852440007000000007F5054430009
:1006A0000044454300014455410002454E480003C3
:1006B00054554E0004434C430005000000007F5099
:1006C000544300004445430001524D50000252443F
:1006D000430003444D500004445354000544545017
:1006E0000006000000007F505443000044454300D2
:1006F00001524D50000252444300034D4F44000448
:100700004D465100054D444300064D46420007004A
:100710000000007F505443000044454300014E5305
:100720000000024E444300034D4F4400044D465127
:1007300000054D44430006485046000700000000F5
:100740007F50544300004445430001524D50000285
:1007500052444300034D4F4400044D465100054DA3
:1007600044430006434C430007000000007F505400
:100770004300004445430001434C500002434443BE
:1007800000034D4F4400044D465100054D444300C5
:10079000064850460007000000007F505443000008
:1007A00044454300014D4F44000248504600035366
:1007B0004E52000453505400055344430006534D19
:1007C000440007000000007F5054430000444543AC
:1007D0000001534E50000246420000034D4F4400BA
:1007E000044D465100054D44430006000000007FC3
:1007F0005054430000444543000154524D000254FC
:10080000465100034D4F4400044D465100054D44F0
:100810004300064642000007000000007F5054439A
:100820000000444543000146420000024850460093
:10083000034D4F4400044D465100054D444300060E
:10084000000000007F505443000044454300015322
:100850004E50000253504C00035354520004525463
:1008600047000552544D0006424E44000700000068
:10087000007F5054430000444543000148500000AD
:1008800002524E470003535452000452544700058D
:1008900052544D0006424E440007000000007F50B5
:1008A00054430000444543000148500000024850B2
:1008B0005100035354520004525447000552544D02
:1008C0000006424E440007000000007F50544300E1
:1008D0000044454300014850000002524E470003C7
:1008E0005354520004525447000552544D000642DE
:1008F0004E440007000000007F5054430000444570
:100900004300014850000002485051000353545224
:100910000004525447000552544D0006424E440014
:1009200007000000007F505443000044454300018D
:10093000485000000252544C0003535452000452D9
:100940005447000552544D0006424E440007000033
:1009500000007F50544300004445430001485000CC
:1009600000024850510003535452000452544700AF
:100970000552544D0006424E440007000000007F1F
:1009800050544300004445430001485000000248D1
:10099000505100035354520004525447000552541E
:1009A0004D0006424E440007000000007F505443B3
:1009B00000004445430001485000000253545000D9
:1009C000035354520004525447000552544D00063C
:1009D000424E440007000000007F50544300004492
:1009E00045430001485000000242454C0003535467
:1009F000520004525447000552544D0006424E44E2
:100A00000007000000007F505443000044454300AD
:100A10000148500000024850510003535452000452
:100A2000525447000552544D0006424E4400070000
:100A30000000007F505443000044454300014850EB
:100A400000000252454C00035354520004525447D4
:100A5000000552544D0006424E44000700000000BD
:100A60007F505443000044454300014850000002B9
:100A70004850510003535452000452544700055249
:100A8000544D0006424E440007000000007F5054C1
:100A900043000044454300014850000002485051C3
:100AA00000035354520004525447000552544D0061
:100AB00006424E440007000000007F5054430000EF
:100AC00044454300014850000002534C5700035373
:100AD00054520004525447000552544D0006424EF1
:100AE000440007000000007F505443000044454389
:100AF00000014850000002424300000353545200DA
:100B000004525447000552544D0006424E4400071B
:100B1000000000007F50544300004445430001485A
:100B200052440002484D520003544E530004444DB9
:100B3000500005000000007F50544300004445432E
:100B400000014852440002544E53000352564C00D8
:100B5000045244430005524E470006000000007F47
:100B600050544300004445430001485244000248A9
:100B70004D52000354554E0004444D500005535A45
:100B8000000006504F530007000000007F50544300
:100B9000000044454300014852440002544E5300B3
:100BA00003000000007F47524E000044454300010F
:100BB000474C4E0002535A000004485244000500BE
:100BC0000000007F50544300004445430001485258
:100BD000440002524E47000352564C000452444314
:100BE0000005000000007F505443000044454300CE
:100BF000014852440002524E47000341470000049E
:100C000041550000054252000006475242000700CD
:100C10000000007F50544300004445430001485207
:100C2000440002524E470003414700000441550072
:100C30000005425200000647524200070000000033
:100C40007F50544300004445430001434C5300028D
:100C5000524E470003414700000441550000054241
:100C600052000006434C530007000000007F564F1F
:100C70004C0000474154000141544B0002484C4491
:100C800000034445430004000000007F414C56002F
:100C9000004741540001464154000246484C0003BD
:100CA000464443000446445000054646510006466B
:100CB00051000007000000007F41564C00004148F1
:100CC0004C00014144430002465100000346445099
:100CD000000446484C000546444300064646510081
:100CE00007000000007F4E4F5400004E320000010C
:100CF0004E330000024C454E000356454C00045054
:100D0000420000054D5700000641540000074331E2
:100D10004400084331560009433244000A43325626
:100D2000000B433344000C433356000D433444005E
:100D30000E433456000F433544001043355600111E
:100D40004336440012433656001350434700144CB8
:100D5000465300154C464400164C464D0017000003
:100D600000007F534E310000534E320001534E338A
:100D70000002534E340003534E350004534E3600E8
:100D800005534E370006534E380007000000007F21
:100D9000503100000050320000015033000002507A
:100DA0003400000350350000045036000005503771
:100DB00000000650380000075031540008503150F0
:100DC0000009503254000A503250000B5033540086
:100DD0000C503350000D503454000E503450000F5E
:100DE00050355400105035500011503654001250F8
:100DF00036500013503754001450375000155038F7
:100E00005400165038500017000000007F50544323
:100E100000004445430001484C4400024252520045
:100E2000035354520004454E4400055254470006F3
:100E300052544D0007000000007F4D4C5600004DFD
:100E4000424C0001494C56000249424C00034355B4
:100E500031000443553200054C454E0006524154C2
:100E60000007000000007F414D440008414D46004E
:100E700009455146000A455147000B464C46000CB7
:100E8000464C57000D464C51000E535252000F4431
:100E900053540010564F4C001150414E001244451F
:100EA0004C001352455600144C465300154C464412
:100EB00000164C464D0017000000007F4C455600C0
:100EC0004D55540000020507090C0E101315171A92
:100ED0001C1F2225282B2E3134373A3D40434649EA
:100EE0004C4F5255585B5E616466696B6D707274ED
:100EF00077797B7D010306090B0E111316191B1E52
:100F0000212326292B2E313336393B3E4143464996
:100F10004B4E515356595B5E616366696B6E7173DC
:100F200076797B7E0105090E12161B1F23272C30B4
:100F300034383D4145494E52565B5F63676C70746F
:100F4000787D00020406080A0C0E10121416181AF6
:100F50001C1D1F21232527292B2D2F3133353739F0
:100F60003B3D3E40424446484A4C4E5052545658EF
:100F70005A5C5E5F61636567696B6D6F71737577EE
:100F8000797B7D7F0105090E12161B1F23272C304C
:100F900034383D4145494E52565B5F63676C70740F
:100FA000787D01070C11171C21272C31373C414754
:100FB0004C51575C61666C71767C010306090B0E1F
:100FC000111316191B1E212326292B2E31333639D6
:100FD0003B3E414346494B4E515356595B5E61631C
:100FE00066696B6E717376797B7E050B11171D2414
:100FF0002A30363C42484E545B61676D73797F03FB
:101000000D18232D38434D58626D7801060B1116CB
:101010001B21262B31363C41464C51565C61666C97
:1010200071767C02070C12171C22272C31373C41A9
:10103000474C51575C61676C71767C01070C111746
:101040001C21272C31373C42474C52575C62676C5D
:1010500072777C000203040607080A0B0C0E0F10BF
:101060001213141617181A1B1C1E1F2022232426C5
:1010700027282A2B2C2E2F303233343637383A3B60
:101080003C3E3F404243444647484A4B4C4E4F50FB
:101090005253545657585A5B5C5E5F606263646695
:1010A00067686A6B6C6E6F707273747677787A7B30
:1010B0007C7E7F1F2124272B2D3033383C3E424637
:1010C0004A4F53595E61686C71787D020A111A2487
:1010D0002D37424E5A677502060A0E13171B20243D
:1010E000282C3035393E42464A4E53575B6064687F
:1010F0006C7175797E01060A0E12161B1F24282CAE
:101100003134393D41464A4E52575B5F64676C70DB
:1011100074797D020407090C0F111416191C1F2283
:1011200024272A2C2F313437393C3E4144474A4C3E
:101130004F525457595C5F6164676A6C6F72747781
:101140007A7C7F010406090C0E111316191B1E214F
:101150002427292C2E313436393B3E414447494C13
:101160004F515456595C5E616466696B6F71747758
:10117000797C7E0205080B0F1215191C1F222529E8
:101180002C2F3235393C3F4246494C4F5255595C21
:101190005F6265696C6F7276797C7F5357495443FF
:1011A00048204B495400430DB70FD0113E18331A55
:1011B0009F1EF21E861FB022D9246827A828CB299B
:1011C000BE2C8B2D992FE83211241FBECFEFD0E11A
:1011D000DEBFCDBFB89AC09885B7806885BF15E0DF
:1011E000A0E0B1E0E0E0FAE602C005900D92A4367E
:1011F000B107D9F711E9A0E0B0E201C01D92A53B0B
:10120000B107E1F711E1C8ECD1E104C02297FE017A
:101210000E94FA34C63AD107C9F70E94FC330C94F5
:10122000FE340C940000A0E0B0E0E9E1F9E00C9499
:10123000C934EC01A880B980CA80DB80A114B10454
:10124000C104D10441F484E2A82E89EDB82E8BE5C7
:10125000C82E87E0D82EC601B5012DE133EF41E05D
:1012600050E00E94A63427EA31E440E050E00E94BA
:1012700032347B018C01C601B5012DE133EF41E031
:1012800050E00E94A634CA01B9012CEE34EF4FEFB2
:101290005FEF0E9432346E0D7F1D801F911F97FFFC
:1012A00004C06150704080409048688379838A838D
:1012B0009B839B01AC015F77B901CA01CDB7DEB753
:1012C000EAE00C94E5340E94130908958EE192E05F
:1012D0000E941309089560931E0270931F02809369
:1012E0002002909321020895DF92EF92FF920F93D4
:1012F0001F93D72E7A018C01FA010995C801019636
:101300006D2DF70109951F910F91FF90EF90DF90E0
:101310000895FC011282118284E080830895FC010B
:1013200010AA08950E948F090895A0E0B0E0EBE9AB
:10133000F9E00C94CB34EC016B018CE0E82EF12C3D
:10134000EC0EFD1E00E010E0C701800F911F0E940F
:1013500092090F5C1F4F81E007351807A9F7CD5997
:10136000DE4F81E08883C356D140D886CF82CC59E6
:10137000DE4F8FEF8883C456D1408EE8C83ED80731
:1013800019F489EC90E206C080E9CD34D80721F445
:1013900083EE90E29A878987CE010E948909CDB7B2
:1013A000DEB7E8E00C94E734EF92FF921F93CF93FF
:1013B000DF93EC017B0110E042C0412F50E0CA01F5
:1013C000880F991F840F951FFC01EE0FFF1FEC0F74
:1013D000FD1F24813581DC01119620FF16C0C90153
:1013E000959587950190F081E02DE80FF91FAA0FE0
:1013F000BB1FAC0FBD1F0190F081E02D8D919C9122
:10140000E80FF91FA081B18107C0AA0FBB1FAC0F65
:10141000BD1F0D90BC91A02DFA01EE0FFF1FE40F30
:10142000F51FEE0FFF1FEC0FFD1F359527958081EF
:101430009181820F931FB701FD0109951F5F88A954
:10144000181708F4BACFDF91CF911F91FF90EF905A
:101450000895EF92FF920F931F93CF93DF93EC01C8
:10146000162F683F20F08FB7F8948FBFA5C003E612
:10147000E02E01E0F02EE80EF91E01E0F701808178
:10148000882309F499C08881823009F45CC08330D4
:1014900030F4882301F1813009F08EC084C083309C
:1014A00039F0843009F088C017FF86C01882E6CF73
:1014B00017FF0BC089859A85173F21F018820E947B
:1014C000B20EDCCF0E94030F77C089859A85612F09
:1014D0000E94490F71C0103F49F483E088838985D9
:1014E0009A850E947B0E1A82198266C017FF03C07C
:1014F00019831A8205C08981882309F45DC00A8393
:101500009981903F08F4907F20E009C0891731F459
:101510008181888389818C830B830BC02F5FE22FAD
:10152000F0E0EE0FFF1FE45AFD4F8081882371F732
:1015300090E02B87992311F484E03DC08A818823B1
:1015400009F09CCF39C08B81FE01E80FF11D148397
:101550008F5F8B83EB85F0E0EE0FFF1FE45AFD4FAA
:101560008081803921F48E81882309F41B869B8534
:10157000973068F481E3989FC00111240C96BE0156
:101580006C5F7F4F8C0F9D1F0E94D4090AC08C8115
:10159000823F39F4BE016C5F7F4F80E090E20E9491
:1015A000880B188209C08B81FE01E80FF11D14839E
:1015B0008F5F8B8382E08883CDB7DEB7E6E00C9443
:1015C000E9341C9808951C9A08951D9808951D9A51
:1015D0000895DC01ED91FC910280F381E02D0995E5
:1015E0000895DC01ED91FC910480F581E02D0995D1
:1015F0000895FC0110AA20E137E231A320A315A22F
:1016000014A284A195A197A386A3148215821682A1
:101610001782108211821282138280819181A281AD
:10162000B38180879187A287B387148A158A168A27
:10163000178A84899589A689B78984879587A6871B
:10164000B787108E118E128E138E808D918DA28D84
:10165000B38D808B918BA28BB38B158E858D848FF0
:1016600088EC90E093A782A731A320A317A6089542
:101670006817790720F09B01281B390B05C09C01D6
:1016800020953095260F371FC9010895CF93DF931A
:10169000EC018EA5882329F088E79CE66AEF0E947A
:1016A000F10ACE010E94F90A81E088AB1C821D82FA
:1016B0001E821F8280E197E299A388A3DF91CF91D8
:1016C0000895FC0110AA86A5882329F088E79CE6E6
:1016D0006CEF0E94F10A0895FF920F931F938C0103
:1016E000FFB6F894FC0175A764A79B0140E050E0A9
:1016F0006AE572E682E090E00E9484342051304036
:10170000F801378F268FFFBE1F910F91FF9008952C
:101710001F93CF93DF93EC01FB0189A982508230A4
:10172000D0F5228130E02F7730703695322F222786
:1017300037952795818190E08F779070282B392BF2
:101740001FB7F894C901A0E0B0E088839983AA8309
:10175000BB83C90163E070E00E945D3480E090E0EB
:101760006C8B7D8B8E8B9F8BC90166E070E00E9435
:101770005D3480E090E0688F798F8A8F9B8F6881DD
:1017800079818A819B8126E030E040E050E00E9430
:1017900084346D8F1FBFDF91CF911F910895A0E01A
:1017A000B0E0E5EDFBE00C94C734EC0188A9823091
:1017B00009F048C02FB7F8948E8C9F8C6EA17FA142
:1017C0008CA19DA12FBF0E94380BBC0180389105D0
:1017D00010F460E870E08FA5882319F481E08FA7EA
:1017E00020C0AAA4BBA480E090E020E031E02A1948
:1017F0003B0940E050E00E9432347B018C01CC2454
:10180000DD24940140E050E0C601B5010E9432346D
:10181000E60EF71E081F191FEF2CF02E012F1127BF
:10182000B70180E56030780718F06FEF7FE405C0FE
:101830006038710510F460E870E08FB7F8947F8F1E
:101840006E8F8FBFCDB7DEB7ECE00C94E334FC01B4
:1018500080A191A193A382A32091776230917862B5
:1018600086A197A195A384A337A326A3858D853050
:10187000B1F4808D918DA28DB38D0196A11DB11D06
:10188000808F918FA28FB38F84899589A689B7891C
:101890000196A11DB11D848B958BA68BB78B858D71
:1018A000823059F484899589A689B7890196A11D4A
:1018B000B11D848B958BA68BB78B80819181A28182
:1018C000B3810196A11DB11D80839183A283B3834F
:1018D000858D8F5F858F858D863009F4158E81A962
:1018E0008250823008F041C0208531854285538581
:1018F00080819181A281B381281739074A075B074C
:10190000C0F481E081A722A133A1369527953695B1
:10191000279580A191A12817390730F480A191A1C2
:10192000821B930B91A380A33093C8202093C720E0
:101930001CC011A6268D378D82A193A18217930713
:10194000A0F4868D978D22A133A1821B930B9695CF
:1019500087959695879520A131A1280F391F31A32E
:1019600020A39093C8208093C72080A9813051F490
:1019700080819181A281B3810297A105B10510F008
:1019800082E080AB0895FC0110AA08950E94C30C68
:1019900008950F931F938C01C2960E94C60CC80134
:1019A0008D599F4F0E94C60CC8018C569F4F0E94B4
:1019B000C60CC8010E94F90AF80111AAC80168E71B
:1019C00070E00E946C0BF80116A61F910F9108950C
:1019D000CF92DF92EF92FF921F93CF93DF93EC01B0
:1019E0006A017B0110E043C0412F50E0CA01880F1B
:1019F000991F840F951FFC01EE0FFF1FEC0FFD1FB9
:101A000024813581DC01119620FF16C0C90195950E
:101A100087950190F081E02DE80FF91FAA0FBB1FF9
:101A2000AC0FBD1F0190F081E02D8D919C91E80FCE
:101A3000F91FA081B18107C0AA0FBB1FAC0FBD1F4A
:101A40000D90BC91A02DFA01EE0FFF1FE40FF51FC2
:101A5000EE0FFF1FEC0FFD1F3595279580819181BB
:101A6000820F931FB701A601FD0109951F5F88A989
:101A7000181708F4B9CFDF91CF911F91FF90EF9025
:101A8000DF90CF90089580E090E20E94C90C089505
:101A9000A0E0B0E0EEE4FDE00C94CC34EC0188A1D1
:101AA00099A1892B09F0E1C08E8D9F8D99A388A300
:101AB00078948091C620882319F00E94E50ADAC044
:101AC0000E94E70A81E08093C620DC8C8C8D8530F3
:101AD000B1F488899989AA89BB890196A11DB11D94
:101AE000888B998BAA8BBB8B8C859D85AE85BF859A
:101AF0000196A11DB11D8C879D87AE87BF87888900
:101B00009989AA89BB8983709070A070B070009782
:101B1000A105B10519F40E94E10A02C00E94E30A7E
:101B20008C8D823059F48C859D85AE85BF8501965C
:101B3000A11DB11D8C879D87AE87BF87888599853C
:101B4000AA85BB850196A11DB11D88879987AA87A3
:101B5000BB878C8D8F5F8C8F8C8D863009F41C8EAB
:101B60008EA5882319F1288539854A855B858C8166
:101B70009D81AE81BF817901E81AF90A00E010E089
:101B800012C088E79CE668EF0E94D02D8C819D8171
:101B9000AE81BF810196A11DB11D8C839D83AE8353
:101BA000BF830F5F1F4F0E151F055CF389A982507D
:101BB0008230B8F5288539854A855B858881998189
:101BC000AA81BB81281739074A075B0780F028855F
:101BD00039854A855B8588819981AA81BB81019677
:101BE000A11DB11D82179307A407B507D0F4888102
:101BF0009981AA81BB8188879987AA87BB878C89AD
:101C00009D89AE89BF898C879D87AE87BF87888D68
:101C1000998DAA8DBB8D888B998BAA8BBB8B8D8D53
:101C20008C8F1092C6208091C520882319F581E001
:101C30008093C520DD2051F4488959896A897B89C0
:101C4000CE018C569F4F0E94E80C03C083E0D8164B
:101C500049F44C855D856E857F85CE018D599F4FFA
:101C60000E94E80C1092C52005C088A199A1019797
:101C700099A388A3CDB7DEB7E7E00C94E834FC0164
:101C800084E892E091838083128213821482089503
:101C90000895089508950895FC0173876287578316
:101CA0004683118A108A108211821586148617863F
:101CB000168615820895FC016115710549F4828527
:101CC000938595878487868197819787868704C0C7
:101CD0007587648757874687118211861086089515
:101CE0000F931F938C010E945B0E81E0F8018183AA
:101CF0001F910F910895FC01118A108A10821182A0
:101D000011861086158212821382148260E070E0C0
:101D100040E050E00E94700E0895FC01DB01611567
:101D20007105E9F012969C9112979F3FB1F0858161
:101D30003281882379F0391791F4938113968C912D
:101D40001397981761F420E0948114968C9198175A
:101D500039F403C020E0391719F421E001C020E074
:101D6000822F0895A0E0B0E0E8EBFEE00C94CB34C5
:101D70007C0181E0F7018083870188E0C82ED12CA7
:101D8000CE0CDF1CF801C289D389C701BE010E94B5
:101D90008D0E882339F0E881F9810280F381E02DEE
:101DA000CE0109950E5F1F4F0C151D0559F7CDB7D4
:101DB000DEB7E8E00C94E734A0E0B0E0E2EEFEE04D
:101DC0000C94CB347C018C0198E0C92ED12CCE0C24
:101DD000DF1CF801C289D389C701BE010E948D0EA4
:101DE000882339F0E881F9810190F081E02DCE015E
:101DF00009950E5F1F4F0C151D0559F7CDB7DEB7BE
:101E0000E8E00C94E734A0E0B0E0E9E0FFE00C94F7
:101E1000CB347C018C0128E0C22ED12CC80ED91EF7
:101E2000F801C289D389C701BE010E948D0E8823A3
:101E300039F0E881F9810480F581E02DCE01099522
:101E40000E5F1F4F0C151D0559F7CDB7DEB7E8E043
:101E50000C94E734DC0118962D913C9119971E964D
:101E60008D919C911F972817390788F41C96ED9146
:101E7000FC911D97309759F0E20FF31F60832F5F9D
:101E80003F4F19963C932E93189781E0089580E078
:101E90000895A0E0B0E0EFE4FFE00C94CA34EC0158
:101EA000B62E8881882309F04BC088899989892BAF
:101EB00051F46A83662319F481E08D8304C01D8286
:101EC000CE010E94DC0E8D81882369F08889998972
:101ED0008130910511F4BB8206C0029721F4BC82C7
:101EE000CE010E94DC0E7E0138E0C32ED12CCC0E38
:101EF000DD1ED70152960D911C915397CE01B8016A
:101F00000E948D0E882349F0D801ED91FC91068046
:101F1000F781E02DC8016B2D0995E2E0F0E0EE0EAF
:101F2000FF1EEC14FD0429F7888999890196998B85
:101F3000888B8981882321F0CE016B2D0E942A0F86
:101F4000CDB7DEB7E9E00C94E6340F931F938C0114
:101F50000E943F0E88E792E0F8019183808312820D
:101F600083E1838381E484831F910F91089589EC39
:101F700090E262E071E240E050E20E944C0E83EE9B
:101F800090E262E071E440E050E20E944C0E8DEF7E
:101F900090E20E94A50F08958091D9209091DA20B7
:101FA000039721F4653011F40E94DC3308959C01FD
:101FB0002A5F3F4FC9010895FC01848195810895EE
:101FC000FC01828193810895A0E0B0E0EAEEFFE099
:101FD0000C94C734EC015B016A01982E8D2EE881C8
:101FE000F9810280F381E02DB9010995FD86EC8627
:101FF000AC14BD042CF4B88AAF86DA8AC98A04C04E
:10200000D88ACF86BA8AA98AE881F9810684F785B9
:10201000E02D892D982DB80140E00995CDB7DEB7A8
:10202000ECE00C94E334CF93DF93EC012C813D8101
:102030008A819B812817390731F0EC85FD8530971F
:1020400011F0CE0109958C819D819B838A83DF915C
:10205000CF910895CF93DF93EC01442349F07D8322
:102060006C83E881F9810680F781E02D099504C031
:102070007D836C837B836A8381E08E87DF91CF9140
:102080000895FC0140E022813381848195812817E5
:10209000390709F041E0842F0895FC011382128270
:1020A000158214820895FC01DB01448155812C9135
:1020B0008385882319F060E070E00DC08285119659
:1020C0006C91882329F085E06802B001112403C0D7
:1020D000772767FD7095332727FD3095240F351F2F
:1020E000260F371F35832483C9010895FC01A08181
:1020F000B1811A962D913C911B97F901099588237E
:1021000011F480E208958B3110F4805C08958B5EA9
:102110000895DC01862F81548A3138F4ED91FC91C9
:10212000119770E0605470400AC0862F8053ED9183
:10213000FC9111978A3040F470E06551704006843C
:10214000F785E02DCD0106C00684F785E02DCD0191
:1021500060E070E040E009950895A3E0B0E0E3EBB3
:10216000F0E10C94CF348C01FE01319683E0DF0165
:102170001D928A95E9F7606B69834A832B83C801B6
:1021800089599F4FBF010E94D409D801ED91FC915C
:102190000088F189E02DC80169814A812B81099568
:1021A0002396E4E00C94EB34FF920F931F938C0181
:1021B000F62EDC01ED91FC910284F385E02D09956A
:1021C000AC018DE291E66F2D0E94DC12F8011686BB
:1021D0001F910F91FF900895CF92DF92EF92FF929F
:1021E0000F931F937C016B01DC0153960D911C91A1
:1021F0005497ED91FC910284F385E02D0995CC0C68
:10220000DD1CCC0CDD1C880F991F080F191FF8016D
:10221000408151818DE291E66C2D0E94AF14D7016F
:102220001E961C921F910F91FF90EF90DF90CF9020
:102230000895CF93DF93EC01FB0190818B85882378
:1022400019F060E070E00CC08A856181882329F074
:1022500085E06802B001112403C0772767FD7095FF
:10226000892F992787FD9095680F791F4F85588989
:1022700029893A898C819D810E94EA1D8C839D83E6
:10228000DF91CF910895CF93DF93EC016115710534
:1022900029F0069644E050E00E948F1D1986DF91D8
:1022A000CF910895EF92FF920F931F938C017A01C3
:1022B0008CEB92E0F8019183808313821282158265
:1022C00014821686C8010E944311F801F586E4863F
:1022D00081E0828713861F910F91FF90EF90089500
:1022E0006F927F928F929F92AF92BF92CF92DF9226
:1022F000EF92FF920F931F936C014B013A0159012A
:10230000B901A7010E94521180E992E0F601918380
:102310008083C601B401A30195010E94E40F1F91BF
:102320000F91FF90EF90DF90CF90BF90AF909F9074
:102330008F907F906F900895CF92DF92EF92FF92EF
:102340000F931F936C0160E070E045E250E020E0E5
:1023500030E000E010E0EE24FF240E94701182EDD6
:1023600092E0F601918380831F910F91FF90EF908F
:10237000DF90CF900895FC0110821182128A089597
:10238000FC012FB7F894818130812FBF20E090E0CD
:10239000019687709070381709F421E0822F089514
:1023A00082E091E60E94BB1108950F931F93CF9393
:1023B000DF93EC018B010E94C011882329F08A89E8
:1023C0008F5F8A8B80E013C0898190E00196880F2F
:1023D000991F8C0F9D1FB80142E050E00E94751DAF
:1023E000898190E0019687709070898381E0DF9108
:1023F000CF911F910F910895A2E0B0E0E2E0F2E1E9
:102400000C94CA340EE41CE6FF24BB24B3946E0182
:102410000894C11CD11C32E0E32EFA82F8018081BD
:1024200081FF08C080FD06C0B98282E091E6B60156
:102430000E94D511F801808181FD08C080FF06C08F
:10244000E98282E091E6B6010E94D511F3940B5F18
:102450001F4FF8E0FF1609F72296E9E00C94E634E6
:1024600080E00895FC01E05BFF4F60830895DC018C
:1024700057966C935797662321F081E056968C937C
:102480005697ED91FC9111970680F781E02DCD01D3
:1024900009950895089580E008950F931F93CF93B1
:1024A000DF93EC018B01E881F9810280F381E02D5B
:1024B0000995DC01009759F0ED91FC910684F785B0
:1024C000E02DB8010995882311F081E008C0E8816A
:1024D000F9810084F185E02DCE01B8010995DF91E5
:1024E000CF911F910F91089508950895089508952B
:1024F0000895FC01662321F0868991E08927868B67
:10250000089580E090E0089580E00895FB01DA01ED
:1025100010821C920895FC01E359FF4FA081B18104
:10252000109719F420E030E009C0ED91FC9111976B
:102530000280F381E02DCD0109959C01C901089528
:102540000F931F93FC018A01E05BFF4F8081E055F0
:10255000F04090E027E230E0AC01429FC001439F91
:10256000900D529F900D1124E80FF91F81E0828B8E
:10257000E60FF11DC80168EE73E00E94713464E655
:1025800070E00E947134605D6283C80164E670E0AF
:102590000E9471346AE070E00E947134605D638370
:1025A000C8016AE070E00E947134805D848380E23B
:1025B00085831F910F910895660F660F0E94A012E8
:1025C00008951F93AC0120E030E0DC01A05BBF4F19
:1025D00067E270E010E28C9190E0869FF001879FA7
:1025E000F00D969FF00D1124E40FF51FE20FF31F7D
:1025F00012832F5F3F4F2031310569F78C9190E0B6
:1026000027E230E0829FF001839FF00D929FF00D52
:102610001124E40FF51F81E0828B1F910895FC01C6
:102620001182818180830895FC01108211820895B6
:10263000FC018EE093E081939193CF010E941413EB
:102640000895EF92FF920F931F938C017B010E94DC
:1026500018138EEE92E0F80191838083F58AE48A64
:10266000168A178A1F910F91FF90EF900895FC0131
:1026700084E090E091838083138212821582148219
:1026800017821682118610860895FC0188E090E07A
:102690009183808380E090E01382128201963296CB
:1026A00088309105C9F70895FC019FB7F8942081FF
:1026B00081819FBF90E0281709F491E0892F089548
:1026C000FC019081818120E0981709F421E0822F9C
:1026D0000895FC0191818081891720F420818181F6
:1026E000285F02C020818181281B822F08950E94CB
:1026F000691390E0873009F491E0892F08950F93D2
:102700001F93CF93DF93EC018B010E94601388230A
:1027100011F080E01EC001151105D1F088818823D9
:1027200019F467E070E004C088818150682F70E080
:102730008981680F711D677070E06F5F7F4F660F52
:10274000771F6C0F7D1FC80142E050E00E94751D8D
:1027500081E0DF91CF911F910F910895A2E0B0E049
:10276000E4EBF3E10C94D1341A8219820296BE0193
:102770006F5F7F4F0E947F1389819A812296E2E0EA
:102780000C94ED34CF93DF93EC010E947F13982FCC
:10279000882341F08881882311F487E002C0888172
:1027A00081508883892FDF91CF9108950F931F93D4
:1027B000CF93DF93EC018B010E945413882311F017
:1027C00080E014C0688170E06F5F7F4F660F771FF5
:1027D0006C0F7D1FC80142E050E00E94751D88818A
:1027E00090E0019687709070888381E0DF91CF91AF
:1027F0001F910F9108950F931F93CF93DF93EC01D7
:102800008B010E947713882331F0898190E0019633
:1028100087709070898388812981280F30E0277024
:1028200030702F5F3F4F220F331FCE01820F931F57
:10283000B80142E050E00E94751D888190E0019649
:1028400087709070888381E0DF91CF911F910F9105
:102850000895A2E0B0E0EFE2F4E10C94D1347A8381
:102860006983BE016F5F7F4F0E94FB132296E2E0F7
:102870000C94ED34EF92FF920F931F938C01FA01A9
:1028800070E0B0E5EB2EF12CE80EF91ED7018C912B
:1028900027E2829FC0011124860F971F029640E114
:1028A00050E0461B570B800F911FBF010E94A91DCE
:1028B000F701808190E027E230E0829FF001839F62
:1028C000F00D929FF00D1124E00FF11F81E0828B3B
:1028D0001F910F91FF90EF900895660F660F0E9471
:1028E0003A140895EF92FF920F931F938C01FA010F
:1028F00070E080E5E82EF12CE00EF11ED7018C91FE
:1029000027E2829FC0011124860F971F029640E1A3
:1029100050E0461B570B800F911FBF010E948F1D77
:10292000F701808190E027E230E0829FF001839FF1
:10293000F00D929FF00D1124E00FF11F81E0828BCA
:102940001F910F91FF90EF900895AB0160E00E94FE
:1029500072140895660F660F0E9472140895EF9224
:10296000FF920F931F938C01FA0170E090E5E92E1E
:10297000F12CE00EF11ED7018C9127E2829FC0015D
:102980001124860F971F029640E150E0461B570B1B
:10299000800F911FBF010E94801DF701808190E090
:1029A00027E230E0829FF001839FF00D929FF00DAF
:1029B0001124E00FF11F81E0828B1F910F91FF9096
:1029C000EF900895660F660F0E94AF140895CF929E
:1029D000DF92EF92FF920F931F936C01DC01A05BDB
:1029E000BF4F8C9190E027E2E22EF12C8E9DF001FA
:1029F0008F9DF00D9E9DF00D1124EC0DFD1D81E0CD
:102A000084A383A38C9190E001968E9DF0018F9D0D
:102A1000F00D9E9DF00D1124EC0DFD1D7183608362
:102A20000C9110E00E94D31D0E9DF0010F9DF00D42
:102A30001E9DF00D1124EC0DFD1D96A385A31F9185
:102A40000F91FF90EF90DF90CF900895EF92FF925B
:102A50000F931F938C01FA01790170E0005B1F4F07
:102A6000D8018C910055104027E2829FC0011124AB
:102A7000860F971F439640E150E0461B570B800F8F
:102A8000911FBF010E94B91DC801B7010E94E71440
:102A90001F910F91FF90EF900895FB019A0160E064
:102AA000AF010E9426150895EF92FF920F931F9396
:102AB0008C01FA01790170E0005B1F4FD8018C9105
:102AC0000055104027E2829FC0011124860F971FF6
:102AD000439640E150E0461B570B800F911FBF010A
:102AE0000E948F1DC801B7010E94E7141F910F912A
:102AF000FF90EF900895FB019A0160E0AF010E9402
:102B000054150895CF93DF93DC01A05BBF4F8C91E8
:102B1000A055B04090E0E7E2F0E0EF018C9FF001BB
:102B20008D9FF00D9C9FF00D1124EA0FFB1FE60F07
:102B3000F11D842F64E60E945134805D838B842FC5
:102B40000E945134892F6AE00E945134805D848B49
:102B5000842F0E945134905D958B80E2868BCD014D
:102B6000B9010E94E714DF91CF910895660F660FB7
:102B70000E94821508950F931F93CF93DF93EC016A
:102B80000E94D31D8C018C819D81B8010E94DC1DA7
:102B90002A813B812817390718F08E81882351F04C
:102BA000E881F9810190F081E02DCE0109951D8326
:102BB0000C831E82DF91CF911F910F9108956623A0
:102BC00019F0613031F403C00E94671808950E9423
:102BD00072180895A0E0B0E0E0EFF5E10C94C6347F
:102BE0007C018DE690E0E80EF91EF701A081B1812D
:102BF00083E99FEFE80EF91E109791F0ED91FC919B
:102C000011970280F381E02DCD010995EC01009729
:102C100039F0E881F9810480F581E02D09951F8A5A
:102C200087010E5E1F4FCC24DD2457E2852E912CA8
:102C300040E2A42E77247394BC2CF8018289882367
:102C4000B9F10E94D31DBC01F801838994890E94C7
:102C5000DC1DF801258936892817390710F47082A0
:102C6000128AF8018189882319F1C89CE001C99C66
:102C7000D00DD89CD00D11246396CE0DDF1DFE0122
:102C800020E030E08081882309F4A0822F5F3F4F4D
:102C9000319620313105B1F786E79CE66B2D0E9415
:102CA000DF1586E79CE6BE010E944918F801118AEB
:102CB000F8018081882331F18289882319F5C89C25
:102CC000E001C99CD00DD89CD00D11242296CE0DC8
:102CD000DF1DFE0120E030E08081882309F4A0821E
:102CE0002F5F3F4F319620313105B1F786E79CE6E3
:102CF0006B2D0E94DF1586E79CE6BE010E944918F5
:102D0000F80110820894C11CD11C095D1F4FF2E02C
:102D1000CF16D10409F090CFCDB7DEB7EDE00C941B
:102D2000E234A2E0B0E0E7E9F6E10C94C3347C01C0
:102D3000ADE5CA2ED12CC80ED91E00E010E0FBE58F
:102D4000AF2EB12CA80EB91E0DC0D6018D919C914D
:102D5000009711F00E94BB150F5F1F4FE2E0F0E0FB
:102D6000CE0EDF1ED5018D919C91081719076CF3CB
:102D70002DC082E091E6B5010E94D613620100E009
:102D800010E00FC0D601ED91FC91309721F0C50104
:102D900009958823A9F50F5F1F4FE2E0F0E0CE0E02
:102DA000DF1ED3018D919C91081719075CF3F40184
:102DB000A081B1811097E9F0ED91FC9111970190FC
:102DC000F081E02DCD01B501099513C05E01089495
:102DD000A11CB11CE3E54E2E512C4E0C5F1C71E57D
:102DE000672E712C6E0C7F1C6DE6862E912C8E0C3E
:102DF0009F1C82E091E60E945413882309F4B9CF06
:102E00008DE690E0E80EF91EF701A081B18183E91B
:102E10009FEFE80EF91E1097D1F0ED91FC911197FC
:102E20000280F381E02DCD0109958C01009779F0A6
:102E3000DC01ED91FC910190F081E02D0995D80124
:102E4000ED91FC910280F381E02DC8010995EDE63A
:102E5000F0E0EE0EFF1EF701A081B18183E99FEF44
:102E6000E80EF91E109741F0ED91FC911197028444
:102E7000F385E02DCD0109950E943C30C7010E94E9
:102E8000EA15ADE6B0E0EA0EFB1EF701A081B181C4
:102E9000109789F0ED91FC9111970280F381E02D5C
:102EA000CD010995DC01009731F0ED91FC91068090
:102EB000F781E02D09952296E0E10C94DF34A2E041
:102EC000B0E0E5E6F7E10C94CF348C010296BE0148
:102ED0006F5F7F4F0E94C213A981BA81109761F082
:102EE00059961C921E925897ED91FC91119704846B
:102EF000F585E02DCD010995D801ED91FC91028079
:102F0000F381E02DC8010995009721F09A83898308
:102F10000E94991B2296E4E00C94EB340F931F93CC
:102F2000CF93DF93EC018B01E881F9810280F3817B
:102F3000E02D09950817190719F4CE010E945F17B3
:102F4000DF91CF911F910F9108950F931F93CF930E
:102F5000DF938C01EB01998F888F8A8D882349F448
:102F6000E881F9810088F189E02DCB01099581E0A4
:102F70008A8FCE010E94991BE881F9810284F38532
:102F8000E02DCE010995C8010296BE010E942914C8
:102F9000DF91CF911F910F910895EF92FF920F93C0
:102FA0001F938C017B0102960E940F13C801B70189
:102FB0000E94A5171F910F91FF90EF9008950F9316
:102FC0001F93CF93DF93EC018B01C359DF4FA8818F
:102FD000B981CD56D040109741F0ED91FC911197F9
:102FE0000088F189E02DCD010995C359DF4F198380
:102FF0000883CD56D0400115110541F0D801ED915F
:10300000FC910684F785E02DC8010995CE010E9448
:103010008B12892B29F0CE010E948B120E94991BE2
:10302000DF91CF911F910F910895CF93DF93EC0122
:1030300088EE92E099838883CE018F5A9F4F0E9439
:103040003713CE01855A9F4F0E944513C05BDF4F57
:103050001882C055D040FE0180E090E2928391A793
:103060008F5F31968031D1F71A8A19AECE0165E1B2
:1030700071E60E94DF17DF91CF91089585E191E617
:1030800060E071E00E9421138DE291E60E94151824
:103090000895EF92FF921F93CF93DF937C01EB0192
:1030A00010E06881662369F0103159F01F5FD70185
:1030B000ED91FC910680F781E02DC70109952196DD
:1030C000F0CFDF91CF911F91FF90EF900895FC0119
:1030D000A081B18114962D913C91159760E8F9017A
:1030E00009950895FC01A081B18114962D913C9120
:1030F000159760ECF90109950895DC01ED91FC91BB
:103100001197662329F00480F581E02D6FE004C05B
:103110000480F581E02D6CE009950895DC01ED91C6
:10312000FC916295660F660F607C640F6068048096
:10313000F581E02D0995089508950895089508955D
:10314000089508950F931F93FC01748F638F568F1A
:10315000458F30A3278F12A301A31F910F910895CC
:10316000AF92BF92DF92EF92FF920F931F93CF9394
:10317000DF93FC01DB0140E050E001E010E0BC0126
:10318000615C7F4FDD24D39481E4A82EB12CAE0E78
:10319000BF1EEE24EA94FE2C8C9180FF18C011967D
:1031A0008C91119790E08417950789F4C801042E3B
:1031B00002C0880F991F0A94E2F7EB012881398138
:1031C00082239323892B19F056AF45AFD3AE8C9150
:1031D00081FF18C011968C91119790E08417950784
:1031E00089F4C801042E02C0880F991F0A94E2F7DF
:1031F000E5012881398182239323892B19F0F6AECA
:10320000E5AED3AE4F5F5F4F4830510529F681E000
:10321000DF91CF911F910F91FF90EF90DF90BF90C2
:10322000AF900895FC01362F242F6381432F0E9415
:10323000AD100895CF93DF93EC018F898823B1F00F
:103240008DE291E660E00E9432126B968DE291E68B
:10325000BE010E94A5148DE291E661E00E94321247
:1032600060968DE291E6BE010E94A514DF91CF9198
:103270000895CF93DF93EC018F89882311F041E00B
:1032800008C0C75BDF4F8881C954D040882321F133
:1032900040E088E79CE660E00E941219C75BDF4FC0
:1032A00088E79CE661E048810E9412198DE291E670
:1032B00060E00E943212A6978DE291E6BE010E9464
:1032C000A5148DE291E661E00E94321260968DE2D3
:1032D00091E6BE010E94A514DF91CF910895FC01F3
:1032E0006115710531F0029641E150E00E94801DA8
:1032F000089512820895FC016115710531F043961D
:1033000044E050E00E94801D0895138A0895EF92D2
:10331000FF920F931F938C017A0184E893E0F801E8
:1033200091838083118E108E178AC8010E946F19B5
:10333000C801B7010E947B19F801128E1F910F91ED
:10334000FF90EF9008950F931F938C0160E070E061
:1033500040E050E00E94871986E193E0F8019183F4
:10336000808313AE16AE15AE138E13A61F910F9168
:1033700008958F929F92AF92BF92CF92DF92EF9279
:10338000FF920F931F937C016B015A01490160E08A
:1033900070E040E050E00E9487198EE693E0F7016C
:1033A00091838083C701B601A50194010E94A218F0
:1033B0001F910F91FF90EF90DF90CF90BF90AF9053
:1033C0009F908F900895CF92DF92EF92FF920F938C
:1033D0001F937C0160E070E040E050E020E030E0CE
:1033E00000E010E00E94B9198CE293E0F7019183AC
:1033F0008083FAE4CF2ED12CCE0CDF1CC6010E94B4
:103400009C118701035A1F4FC8010E949C11C801DB
:1034100043960E949C11C80186960E949C1184E4E8
:1034200090E0E80EF91EF70111927F0111821082DF
:103430008BEB9FEFE80EF91EF70113A2D48EC38E1B
:10344000168F058FC70180599F4F90A3878FC701A3
:103450008D579F4F92A381A31F910F91FF90EF90E3
:10346000DF90CF9008958CE991E60E94A3198FED2B
:1034700091E60E94E3190895A0E0B0E0E2E4FAE1E9
:103480000C94C9347C0177FF03C060E070E005C094
:103490006D30710514F06CE070E08701095B1F4F1F
:1034A000D8016D937C93C0E0D0E0A3E1AA2EB12CAB
:1034B0006801CA9DC001CB9D900DDA9D900D11242D
:1034C000865B9F4FF701EC0FFD1FD6012D913C91BC
:1034D000E20FF31F8E0D9F1D63A90E948910219694
:1034E000C430D10531F786E79CE661E0F801408100
:1034F0000E948E18CDB7DEB7EAE00C94E5340F9346
:103500001F93CF93DF93EC018B01FB01808180FF40
:103510000EC08181853059F4C95BDF4F68817981A4
:10352000C754D04064507040CE010E943C1AF8014C
:10353000808180FF0EC08181863059F4C95BDF4FE6
:1035400068817981C754D0406C5F7F4FCE010E9463
:103550003C1AF801808180FF0BC08181843041F4E6
:10356000CC5BDF4F81E0899319821882C554D0402B
:10357000F801808180FF0BC08181873041F4CC5BF2
:10358000DF4F81E0899381E090E09983888381E037
:10359000DF91CF911F910F9108950F931F9306E72D
:1035A0001CE6FC01E95BFF4FC80161E040810E941D
:1035B0008E18C80160E00E947D1880E49CE90197A4
:1035C000F1F71F910F910895EF92FF920F931F93C0
:1035D0008C0160E070E00E943C1AB6E7EB2EBCE67E
:1035E000FB2EC70161E00E947D18095B1F4FC701D8
:1035F00061E0F80140810E948E181F910F91FF90A9
:10360000EF9008950F931F93CF93DF93EC010E94E7
:10361000801B8E01075B1F4FF8018081882379F0A2
:1036200086E79CE661E00E947D18C95BDF4F86E774
:103630009CE661E048810E948E18F8011082DF91BB
:10364000CF911F910F910895A0E0B0E0EAE2FBE175
:103650000C94C2346C013AE4A32EB12CA80EB91E0E
:10366000EE24FF2423E1422E512C97E4692E712C85
:103670006C0C7D1C89E4882E912C8C0C9D1C3324B1
:103680003394E49CE001E59CD00DF49CD00D112412
:10369000C65BDF4FCC0DDD1DD501ED91FC910084A3
:1036A000F185E02DCE0109958823A9F088E79CE6F5
:1036B00062E04E2D0E941219F301008111810E0D5E
:1036C0001F1DCE010E9476100C0D1D1DD801D39632
:1036D0008C93F40130820894E11CF11C83E190E0AA
:1036E000A80EB91E94E0E916F10459F6CDB7DEB77D
:1036F000E1E10C94DE34089580E008950895089582
:103700001F93CF93DF93EC0110E0AB8DBC8D10972E
:1037100041F0ED91FC9111970680F781E02DCD01EC
:1037200009951F5F2296143081F7DF91CF911F9189
:103730000895EF92FF920F931F938C019DE2E92E63
:1037400091E6F92EC70160E00E943212C7010E9483
:10375000E112C70161E00E943212C7010E94E1122A
:1037600081E0F801878B1F910F91FF90EF900895F2
:10377000CF93DF93EC019B01AC014D5D5F4FE4E023
:10378000F0E0DA018D919C91892BC9F0D9018C91DF
:1037900080FF15C011968C9190E08E179F0779F4E9
:1037A000888D998D009749F03497EE0FFF1FEC0F2D
:1037B000FD1F638D748D0E94CD1781E007C0319687
:1037C0004E5F5F4FE830F105E1F680E0DF91CF9189
:1037D0000895CF93DF93EC01DB01FC0120E030E0A2
:1037E000638D748D6115710591F08C9180FF0FC010
:1037F00011968C91119790E08217930741F4888D70
:10380000998D009711F00E94CD1781E007C02F5FBE
:103810003F4F32962430310519F780E0DF91CF9188
:103820000895CF93DF93EC018F89882309F44CC06E
:103830008DE291E660E00E9432128DE291E60E94F4
:10384000E1124B8D5C8D4115510539F04E5F5F4F94
:103850008DE291E660E00E94AF1489A19AA10097E1
:1038600069F002960E94681D6FE0681B49A15AA189
:103870004E5F5F4F8DE291E60E94AF148DE291E6BC
:1038800061E00E9432128DE291E60E94E1124D8DBC
:103890005E8D4115510539F04E5F5F4F8DE291E627
:1038A00060E00E94AF148F8D98A1009769F0029696
:1038B0000E94681D6FE0681B4F8D58A14E5F5F4FDF
:1038C0008DE291E60E94AF14DF91CF9108951F938E
:1038D000CF93DF93EC018F89882319F18DE291E674
:1038E00060E00E943212AE014E5F5F4F8DE291E6C2
:1038F00060E00E9472148DE291E661E00E94321253
:1039000010E04B8D5C8D4115510539F04D5E5F4FD8
:103910008DE291E6612F0E94AA1422961F5F143057
:1039200081F7DF91CF911F9108950F931F93CF934C
:10393000DF93182F092F8DE291E660E00E9432128A
:10394000212F302FC901EC0110E0AB8DBC8D1097F9
:1039500079F0ED91FC9111970190F081E02DCD016E
:103960000995AC018DE291E6612F0E94E21407C037
:103970008DE291E6612F4CE850E00E946D141F5FCC
:103980002296143011F7DF91CF911F910F91089576
:10399000A0E0B0E0EEECFCE10C94CB347C01DC0167
:1039A00057968C91882319F0C7010E94951C8DE2CF
:1039B00091E661E00E9432128701C0E0D0E0DC2E87
:1039C000CD2EF801A38DB48D109739F1ED91FC91B6
:1039D00011970084F185E02DCD010995882369F4C4
:1039E000D70157968C91882341F4D8015B96ED91CD
:1039F000FC915C978685882381F0D8015B96ED91D8
:103A0000FC915C97A081B18150962D913C9151978A
:103A1000CF016D2D7C2DF901099521960E5F1F4F69
:103A2000C430D10561F6CDB7DEB7E8E00C94E734D9
:103A30001F93CF93DF93EC0110E08B8D9C8D00974B
:103A400011F00E944D101F5F22961430B1F7DF91E4
:103A5000CF911F910895A8E0B0E0E1E3FDE10C945F
:103A6000CB34E82ED92EFFB6F8948E010F5F1F4F8E
:103A7000C80166E47CE648E050E00E94751D80E4E1
:103A80009CE60E94DE2BFFBE2E2D3D2DC9017C0140
:103A900039E0C32ED12CCC0EDD1EF701A38DB48DE1
:103AA000109749F0ED91FC9111970480F581E02D7C
:103AB000CD01B801099582E090E0E80EF91E0E5F95
:103AC0001F4F0C151D0549F72896E8E00C94E734C4
:103AD000AC0120E030E0FA01E20FF31F80812F5F9C
:103AE0003F4F8823C1F7C9010895DC01FB0104C0E1
:103AF00081918D934150504041155105C9F708956A
:103B0000DC01FB0104C08D933196415050404115BA
:103B1000510521F080818823B1F71C920895DC01C2
:103B2000FB0104C08D933196415050404115510521
:103B300041F080818823B1F704C0415050408D93FB
:103B400001C080E242305105C0F7452B09F01C92BC
:103B50000895DC01FB0109C08491882311F41C92B3
:103B600008958D9331964150504041155105A1F76C
:103B70000895DC01FB0107C08491882361F08D93D7
:103B800031964150504041155105B1F708958D933C
:103B90004150504001C080E242305105C0F7452BF2
:103BA00009F01C9208958FB7F894209175623091B6
:103BB00076628FBFC90108956817790720F09B01CD
:103BC000281B390B05C09C0120953095260F371F07
:103BD000C9010895680F791F641775072CF0A901B2
:103BE000621773070CF4AB01CA010895EF92FF92BC
:103BF0000F931F937B018C01611571058105910560
:103C000029F420E030E040E050E00BC00E9466095B
:103C1000A80197010E94A634AC01CB01DA019C01F6
:103C2000AD01B901CA011F910F91FF90EF90089566
:103C3000EF92FF920F931F93CF93DF937B018A0143
:103C4000EC0140E050E020E030E0A0E0B0E017C040
:103C5000CA01877090706881892B19F4A62FB0E093
:103C60000BC0AA0FBB1FF701E20FF31F8A2F80784A
:103C7000862B80832F5F3F4F4F5F5F4F219640170A
:103C8000510730F3C901CDB7DEB7E6E00C94E93453
:103C900070E090E09695982F882797958795682BE8
:103CA000792BCB010895FC01238130E040E050E006
:103CB000808190E0A0E0B0E0B82FAA27992788275C
:103CC000282B392B4A2B5B2B818190E0A0E0B0E0C0
:103CD000DC0199278827282B392B4A2B5B2B8281E3
:103CE00090E0A0E0B0E0BA2FA92F982F8827282BCA
:103CF000392B4A2B5B2BB901CA0108950F931F93EF
:103D00008C010E943F0E80EB93E0F8019183808349
:103D10008FEF8283138214821F910F910895FF9277
:103D20000F931F938C01F62E01960E947E1EC801F0
:103D30006F2D0E94E6201F910F91FF90089589E753
:103D400092E660E00E948F1E08958F929F92AF923C
:103D5000BF92CF92DF92EF92FF920F931F936C016D
:103D60004B015A01BA016150704040E050E00E949E
:103D7000701186EA92E0F60191838083948A838AA7
:103D8000B68AA58A1F910F91FF90EF90DF90CF9098
:103D9000BF90AF909F908F900895CF92DF92EF9257
:103DA000FF920F931F936C01FB01042F790162E2D4
:103DB00072E042E050E09F0110E00E94A51E8AE9F7
:103DC00093E0F601918380831F910F91FF90EF9014
:103DD000DF90CF900895FC0111821082138212822D
:103DE000148208958FE792E60E94EB1E08950F93C8
:103DF0001F93CF93DF93EC018B01B9019A0158A96E
:103E0000583010F080E048C0FC0140E0D901A170BA
:103E1000B07018C0808191818017910789F48281E8
:103E200093818617970761F48481958182179307A0
:103E300091F16115710521F4109711F480FF2BC0E9
:103E40004F5F3696451730F3852F90E0FC01EE0F5B
:103E5000FF1FE80FF91FEE0FFF1FEC0FFD1F11836F
:103E6000008388A990E0FC01EE0FFF1FE80FF91F07
:103E7000DF01AA0FBB1FAC0FBD1F15963C932E93FD
:103E800014973196EE0FFF1FEC0FFD1F71836083B7
:103E900088A98F5F88AB81E0DF91CF911F910F914F
:103EA0000895CD960E94F71E08950C960E94F71E65
:103EB000089581569F4F0E94F71E0895FC011182BC
:103EC000818180830895FC0180E490E09183808368
:103ED00080E090E013821282019632968034910540
:103EE000C9F708950F931F938C010E945E1FC801AC
:103EF00040960E94631FF801178616860E561F4FC4
:103F0000F801118210821F910F91089584E892E6C2
:103F10000E94721F0895EF92FF920F931F93CF9309
:103F2000DF938C017B01EA010CC0D7016D917D010B
:103F3000D801ED91FC910480F581E02DC80109952F
:103F40002197209791F7CDB7DEB7E6E00C94E934DE
:103F50001F93CF93DF93EC01162F603F48F0683F2B
:103F600008F41A82E881F9810680F781E02D14C0F7
:103F70008C81882361F08A81861739F0E881F98184
:103F80000480F581E02DCE0109951A8308C0E881EF
:103F9000F9810480F581E02DCE01612F0995DF9133
:103FA000CF911F910895EF92FF920F931F938C0171
:103FB000F42EE22E0E94A81FD801ED91FC910480FE
:103FC000F581E02DC8016F2D0995D801ED91FC9187
:103FD0000480F581E02DC8016E2D09951F910F9188
:103FE000FF90EF900895FF920F931F938C01F42E92
:103FF0000E94A81FD801ED91FC910480F581E02D6D
:10400000C8016F2D09951F910F91FF900895DC0154
:10401000E0E0F0E052962D913C9153972115310547
:1040200019F02617370749F43996EE0FFF1FE80FEE
:10403000F91F7183608381E0089531961296E43010
:10404000F10541F780E00895FC0182899389861784
:10405000970711F4138A128A84899589861797071E
:1040600011F4158A148A868997898617970711F49F
:10407000178A168A808D918D8617970711F4118EF5
:10408000108E0895FB0188E79CE6608141810E94C3
:10409000F31F0895FB0188E79CE66081418122813E
:1040A0000E94D31F089582599F4F0E94F71E0895C2
:1040B00080539F4F0E94F71E08958F5F9E4F0E946E
:1040C000F71E08958E5C9E4F0E94F71E0895A0E093
:1040D000B0E0EDE6F0E20C94CC34EC017B01B901E8
:1040E0009A01DFB6F89408A9FC01A0E0B0E04170A5
:1040F000507041C0808191818E159F05D1F58281DC
:10410000938186179707A9F5848195818217930774
:1041100041F06115710569F54115510551F580FDB5
:1041200028C0812F90E09C01220F331F280F391FD8
:10413000220F331F0196BC01660F771F680F791F8E
:10414000660F771F6C0F7D1F802F90E08A1B9B0BE3
:104150000197AC01440F551F480F591F440F551FBD
:10416000CE01820F931F0E94751D88A9815088ABD4
:1041700006C0119636961A2FA01708F4BBCFDFBEE3
:10418000CDB7DEB7E7E00C94E83481569F4F0E942C
:1041900067200895CD960E94672008950C960E948E
:1041A0006720089582599F4F0E9467200895805389
:1041B0009F4F0E94672008958F5F9E4F0E94672047
:1041C00008958E5C9E4F0E9467200895CF93DF93E1
:1041D000EC01688360FF0AC02AE430E240E050E06E
:1041E0008DE490E9BE010E94591F09C02AE430E223
:1041F00040E050E08DE490E9BE010E94C520888136
:1042000081FF13C02AE430E240E050E08DE490E901
:10421000BE010E94511F2AE430E240E050E08DE4EC
:1042200090E9BE010E94551F12C02AE430E240E02E
:1042300050E08DE490E9BE010E94CA202AE430E2F9
:1042400040E050E08DE490E9BE010E94CE208881DC
:1042500083FF0AC02AE430E240E050E08DE490E9B8
:10426000BE010E94532009C02AE430E240E050E041
:104270008DE490E9BE010E94D220888184FF0AC0AB
:1042800022E430E240E050E08DE490E9BE010E947B
:10429000582009C022E430E240E050E08DE490E98B
:1042A000BE010E94D720888185FF0AC022E430E247
:1042B00040E050E08DE490E9BE010E945D2009C01D
:1042C00022E430E240E050E08DE490E9BE010E943B
:1042D000DC20888186FF0AC02AE430E240E050E01A
:1042E0008DE490E9BE010E94622009C02AE430E218
:1042F00040E050E08DE490E9BE010E94E120FE0123
:10430000819182FF06C083EE90E2BF010E940720E8
:1043100005C083EE90E2BF010E942420DF91CF917F
:1043200008950F931F9308E71CE6C80160EF0E94F1
:10433000A81F6091ED207091EE204091EB205091EC
:10434000EC20C8010E948B1FC80167EF0E943F2E1E
:104350001F910F910895FF920F931F938C01F62EDA
:10436000FC01608170E080E090E00E94F61D060F85
:10437000171FF8010181FF2069F06F2D70E080E0C8
:1043800090E00E94F61D2CE030E040E050E00E94FA
:104390003234060F802F1F910F91FF900895CF9315
:1043A000DF93DC018D919C9111975496EC91549779
:1043B000F0E0EE0FFF1FE85BFD4F60817181EC01C3
:1043C000EA81FB81CD010995DF91CF9108950F938B
:1043D000CF93DF93EC016C8B4B8B2115310519F4D6
:1043E0000E94CF2107C0E881F9810280F381E02D8E
:1043F000B9010995E881F9810684F785E02DCE01A0
:10440000602F70E040E00995DF91CF910F91089502
:10441000CF93DF93FC018FEF9FEF91838083938392
:10442000828395838483E552FD4F1082EB5DF240D9
:10443000A8E3B2E0EF01C553DD4F8D91899382E08F
:10444000A834B807D1F7E754FD4F1082E95BF2407A
:104450001682DF91CF910895FA01262F2F702F5FDA
:1044600062956F706F5B6083822F6AE00E945134A7
:10447000805D8183822F0E945134905D928380E21F
:10448000838314820895562F722FFC01E552FD4F4D
:1044900060816F3751F1252F2370403219F4422F7C
:1044A000445F1BC0413219F4422F485F16C02230CE
:1044B00030F4405F88E1289FC00111240DC030E036
:1044C0002F5F3F4FC901880F991F820F931FF3E0A1
:1044D000880F991FFA95E1F7480F56955695650F85
:1044E00088E79CE6272F0E94AD100895A3E0B0E076
:1044F000ECE7F2E20C94CF348C01FE01319683E0BC
:10450000DF011D928A95E9F7606969834A832B83ED
:10451000C8010596BF010E94D409D801ED91FC9114
:104520000088F189E02DC80169814A812B810995B4
:104530002396E4E00C94EB34DC01242FFC01E60F1D
:10454000F11DE553FD4F40814F3F49F0A552BD4F4E
:104550006C916F3721F088E79CE60E9476220895DF
:1045600088E193E60E94082208950E94D4100895DD
:10457000EF92FF920F931F93162F042FE8E7EE2E72
:10458000ECE6FE2EC70160EF0E943F2EC70163E3F9
:1045900072E045E050E00E94E90AC70161E70E942D
:1045A0003F2E1F77C701612F0E943F2E0F77C70153
:1045B000602F0E943F2EC70167EF0E943F2E1F9180
:1045C0000F91FF90EF900895462F64E00E94B8226B
:1045D0000895DC01ED91FC910284F385E02D0995AD
:1045E000682F88E193E60E94E4220895462F62E056
:1045F0000E94B8220895DC01ED91FC910284F385BC
:10460000E02D0995682F88E193E60E94F62208952F
:10461000DF92EF92FF920F931F93F62EE42ED22E8D
:1046200008E71CE6C80160EF0E943F2EC80163E363
:1046300072E045E050E00E94E90AC80162E60E948B
:104640003F2EFF0CFF0CFF0CFE28C8016F2D0E94AF
:104650003F2EC8016D2D0E943F2EC80167EF0E94BA
:104660003F2E1F910F91FF90EF90DF9008950F93D1
:104670001F93FC0113890489A081B1811A962D91A1
:104680003C911B97F9010995282F88E193E6612F4A
:10469000402F0E9408231F910F910895EF92FF92DF
:1046A0000F931F93162F042FF8E7EF2EFCE6FF2E33
:1046B000C70160EF0E943F2EC70163E372E045E04F
:1046C00050E00E94E90AC701612F0E943F2EC701F6
:1046D000602F0E943F2EC70167EF0E943F2E1F915F
:1046E0000F91FF90EF900895462F61E50E944E23B1
:1046F0000895462F63E50E944E2308951F93142FBB
:1047000070E028E230E0629FF001639FF00D729F3D
:10471000F00D1124E80FF91FED5AFF4F60810E9440
:10472000EF26FC010097B9F081819281181798F06B
:10473000412F50E0282F30E0B901690F711D461755
:1047400057074CF4421B530B0480F581E02DE40F16
:10475000F51F849101C080E81F910895DF92EF92C8
:10476000FF920F931F938C01D62EADE2EA2EA1E6A5
:10477000FA2EC70161E00E943212D801ED91FC913E
:104780000284F385E02DC8010995482F50E04F5F62
:104790005F4FC7016D2D0E94DC12F80116861F9134
:1047A0000F91FF90EF90DF900895CF92DF92FF92EC
:1047B0000F931F93CF93DF938C01EB018DE291E672
:1047C00061E00E943212D801ED91FC910284F385E0
:1047D000E02DC8010995F82EC82EDD24A6014F5FF3
:1047E0005F4F8DE291E66C2F0E94DC12F801168675
:1047F00080911E63882321F1F3948DE291E66C2F62
:104800004F2D28E532E00E94B615C05FDB4F1881BE
:1048100088E290E0C89EF001C99EF00DD89EF00D90
:104820001124E559FC4988E193E660810E94D42671
:10483000AC018DE291E6612F28E532E00E94261559
:10484000DF91CF911F910F91FF90DF90CF9008954E
:10485000A5E0B0E0EEE2F4E20C94CB348C017B01F5
:104860008DE2C82E81E6D82EC60161E00E94321288
:10487000D801ED91FC910284F385E02DC8010995E2
:10488000682F88E193E68E010F5F1F4FA8010E94F9
:104890002C22EE0CFF1CEE0CFF1CC6016E2DA80195
:1048A0000E94AF142596E8E00C94E734CF92DF9293
:1048B000EF92FF920F931F936C019B01042F60E016
:1048C00070E04FE750E010E0EE24FF240E947011EA
:1048D00082ED93E0F6019183808389EE92E29587E1
:1048E00084871F910F91FF90EF90DF90CF900895F4
:1048F000CF92DF92EF92FF920F931F936C019B0177
:10490000042F60E070E04FE350E010E0EE24FF245D
:104910000E94701188EE93E0F601918380838BEF03
:1049200092E2958784871F910F91FF90EF90DF901F
:10493000CF9008957F928F929F92AF92BF92CF9225
:10494000DF92EF92FF920F931F936C01862E742ECD
:1049500059016FE770E040E050E010E0EE24FF24E2
:104960000E9470118EEF93E0F60191838083C6015F
:10497000682D472D95010E94E72187E393E2F60118
:10498000958784871F910F91FF90EF90DF90CF90D4
:10499000BF90AF909F908F907F900895FC01108200
:1049A0001182128213821482178216828FE7858306
:1049B000089588E896E60E94CE240895EF92FF922B
:1049C0000F931F93CF93DF938C01EB014E3B510567
:1049D00009F0C8C0EE24FF2423E030E0FE01E20F1E
:1049E000F31F8081E80EF11C2F5F3F4F2A3B3105FA
:1049F000A9F7FE01E654FF4FDE01A554BF4F8081A9
:104A00006C910E94481E2FEF3FE3E222F322E8164A
:104A1000F90609F0A7C08B81D8018C93DE0121E053
:104A200030E0F801E20FF31F14968C911497808305
:104A30002F5F3F4F11962131310599F776E3E72E2D
:104A4000F12CE00EF11ECE014496B70143E950E08F
:104A50000E94181EC955DF4F8881F80181A3229654
:104A6000899190E09695982F882797958795299119
:104A700030E0822B932B93A382A390E08881CB5AC2
:104A8000D040813009F491E0D80194969C9394979A
:104A9000FE01E455FF4F808190E081709070959603
:104AA0008C939597808190E055E0969587955A95DF
:104AB000E1F7817096968C939697808190E044E020
:104AC000969587954A95E1F7817097968C9397977D
:104AD000808190E036E0969587953A95E1F7817070
:104AE00098968C9390E0C355DF4F8881CD5AD04083
:104AF000813009F491E0F80191A7C255DF4F899107
:104B000082A7899183A7899184A7899185A7899193
:104B100086A7899187A7899181AB899180AB89917B
:104B200083AB899182AB899184AB8881D801D5967A
:104B30008C93F80180E090E02FEF218B0196319665
:104B400080319105D1F7D70180E09C91903120F41C
:104B5000F801E90FF11D818B11968F5F8038A9F75D
:104B600081E001C080E0CDB7DEB7E6E00C94E93427
:104B70008F929F92AF92BF92DF92EF92FF920F932C
:104B80001F93DF93CF93CDB7DEB7C054D2400FB69B
:104B9000F894DEBF0FBECDBF4C015B014A5C5440B0
:104BA00009F0EEC000E010E023E030E0F501E20F94
:104BB000F31F8081080F111D2F5F3F4F94E0263CAB
:104BC0003907A1F7F501EA53FB4FD501A953BB4FB4
:104BD00080816C910E94481E1F730817190709F005
:104BE000CFC0F5018381F4018193B5016C5F7F4FE4
:104BF000CF0140E150E00E94751D40E050E064E1CB
:104C000070E008E210E00EC08D9181932F5F3F4F5E
:104C100028313105C9F74F5F5F4F685E7F4F4031E4
:104C2000510581F0D501A60FB71F409FF001419FAC
:104C3000F00D509FF00D1124F296E80DF91D20E0C3
:104C400030E0E2CFD501AC56BE4FF401E55BFF4F3B
:104C500020E030E08D9180832F5F3F4FB896203168
:104C60003105C1F7C5018C559E4F8E010F5F1F4F57
:104C7000B8014AE450E00E94181E8AE4E82EF12CA4
:104C8000E80CF91CDD24C8010E94531EF701628361
:104C90007383848395830C5F1F4FD08288E290E0FA
:104CA000E80EF91ED39490E1D91669F7C501825137
:104CB0009E4F8E010F5F1F4FB80143E952E00E94E3
:104CC000181EF401E95BFF4FD8019E012F5B3D4F99
:104CD0008C91818711968C911197828712968C9175
:104CE0001297838713968C911397848714968C91CF
:104CF0001497858780818687818187878281808BD1
:104D00009496B896A217B30719F7D501AF57BB4FC2
:104D1000F401729620E030E08C91808318968C919B
:104D20001897808750968C915097808B58968C91CD
:104D30005897808F2F5F3F4F11963196283031055D
:104D400059F7C5018F559B4F8E010F5F1F4FB8015B
:104D500045E250E00E94181ED801F401E85AFF4FC6
:104D60009E012F5B3F4F8C91808311968C91119700
:104D700081831496B896A217B307A9F781E001C002
:104D800080E0C05CDD4F0FB6F894DEBF0FBECDBF34
:104D9000CF91DF911F910F91FF90EF90DF90BF9027
:104DA000AF909F908F90089520E030E0C90143E0DC
:104DB000880F991F4A95E1F7FC01E856FF4FE491EF
:104DC000E61721F4FC01EF56FF4F07C02F5F3F4F5E
:104DD0002638310559F7E0E0F0E0CF010895862F3D
:104DE0008058803218F424E134E013C0EAE1F4E0A2
:104DF00090E08081681739F486E0989F9001112433
:104E0000265E3B4F06C09F5F3696943191F720E0B7
:104E100030E0C9010895FC01118210820895AC01AF
:104E2000DC01E0E0F0E020E030E017961C921E92FA
:104E3000169715961C921E921497309771F0C9011F
:104E400073E0880F991F7A95E1F7840F951F95837A
:104E500084831796FC93EE931697C90101961896D2
:104E60008038910551F0F90163E0EE0FFF1F6A955C
:104E7000E1F7E40FF51F9C01D8CFFA01E050FC4F99
:104E80005183408308950F931F938C010E940B2739
:104E9000C80102960E940F271F910F9108950F934A
:104EA0001F938C010C960E944327F80114821186EF
:104EB0001182005F1B4FF8011182108200511440D3
:104EC00081E0F8018583128613861F910F91089562
:104ED00080E996E60E944F270895FC01E550FF4FB8
:104EE0008FEF808312920895FC012091D920309198
:104EF000DA202330310549F4E650FF4F623019F4CF
:104F000081E08083089510820895E650FF4F8081EC
:104F1000EA5FF040882331F02530310519F4E5507F
:104F2000FF4F60830895BC0189EC90E20E94072046
:104F30000895FC0110AA0895FC0110AA08950E948A
:104F40009C2708950F931F938C010E943F0E86E9C2
:104F500094E0F80191838083C80105960E94992707
:104F6000C801C6960E949927C80189599F4F0E947F
:104F70009927C80188569F4F0E949927C8018753D7
:104F80009F4F0E949F27F801128280E283838CE367
:104F900084831F910F910895FF920F931F93CF93D6
:104FA000DF93EC01F62E042F10E043C0412F50E0B8
:104FB000CA01880F991F840F951FFC01EE0FFF1F78
:104FC000EC0FFD1F24813581DC01119620FF16C0F6
:104FD000C901959587950190F081E02DE80FF91FA3
:104FE000AA0FBB1FAC0FBD1F0190F081E02D8D916A
:104FF0009C91E80FF91FA081B18107C0AA0FBB1FC8
:10500000AC0FBD1F0D90BC91A02DFA01EE0FFF1F3C
:10501000E40FF51FEE0FFF1FEC0FFD1F35952795D1
:1050200080819181820F931F6F2D402FFD01099583
:105030001F5F88A9181708F4B9CFCDB7DEB7E5E030
:105040000C94EA341F93CF93DF93EC0110E040C03F
:10505000412F50E0CA01880F991F840F951FFC0152
:10506000EE0FFF1FEC0FFD1F24813581DC0111962F
:1050700020FF16C0C901959587950190F081E02D1C
:10508000E80FF91FAA0FBB1FAC0FBD1F0190F081E5
:10509000E02D8D919C91E80FF91F6081718106C010
:1050A000AA0FBB1FAC0FBD1F6D917C91FA01EE0FD3
:1050B000FF1FE40FF51FEE0FFF1FEC0FFD1F3595CF
:1050C000279580819181820F931FFB0109951F5FB6
:1050D00088A9181708F4BCCFDF91CF911F910895CC
:1050E000DC01A650BF4F8C91AA5FB040882379F1B4
:1050F000A550BF4F8C91AB5FB0408736E9F0883642
:1051000028F4803599F0823511F513C08936D1F035
:105110008237E9F4E091D320F091D420CD01875378
:105120009F4F668147810E94CC270895CD01059647
:1051300006C0CD01C69603C0CD0188569F4F0E9480
:1051400022280895CD0189599F4F0E942228089551
:1051500082EA9AE60E94A2270895FC018AEA94E076
:10516000918380837383628315821482508747837F
:1051700081E086830895DC011796ED91FC911897E4
:10518000309709F0099508950895DC01E0E0F0E01A
:1051900012962D913C9113972115310519F0261780
:1051A000370749F43196EE0FFF1FE80FF91F71839F
:1051B000608381E0089531961296E830F10541F759
:1051C00080E00895855A9F4F0E94C52808950F9347
:1051D0001F938C0140E050E00E94AD2882EA94E0E9
:1051E000F80191838083C8010E960E949927C80117
:1051F000CF960E949927C80180599F4F0E949927F6
:10520000F80115861386118681E0828714861F9126
:105210000F9108950F931F93CF93DF93EC018B01B0
:10522000B9019A0158A9583010F080E048C0FC013B
:1052300040E0D901A170B07018C0808191818017C1
:10524000910789F4828193818617970761F484819D
:1052500095818217930791F16115710521F41097DB
:1052600011F480FF2BC04F5F3696451730F3852F22
:1052700090E0FC01EE0FFF1FE80FF91FEE0FFF1F7C
:10528000EC0FFD1F1183008388A990E0FC01EE0F55
:10529000FF1FE80FF91FDF01AA0FBB1FAC0FBD1FD7
:1052A00015963C932E9314973196EE0FFF1FEC0F3B
:1052B000FD1F7183608388A98F5F88AB81E0DF91D8
:1052C000CF911F910F91089587539F4F0E940A29F4
:1052D00008950F931F93CF93DF93EC018B01B901D6
:1052E0009A0158A9583010F080E048C0FC0140E015
:1052F000D901A170B07018C0808191818017910789
:1053000089F4828193818617970761F4848195815E
:105310008217930791F16115710521F4109711F42B
:1053200080FF2BC04F5F3696451730F3852F90E0F6
:10533000FC01EE0FFF1FE80FF91FEE0FFF1FEC0F30
:10534000FD1F1183008388A990E0FC01EE0FFF1F71
:10535000E80FF91FDF01AA0FBB1FAC0FBD1F159689
:105360003C932E9314973196EE0FFF1FEC0FFD1F09
:105370007183608388A98F5F88AB81E0DF91CF91D3
:105380001F910F91089505960E9469290895C69668
:105390000E94692908958EE99BE668EB7BE00E94F4
:1053A000E72808950F931F9308E113E6C80160E70B
:1053B00042E00E944E23C80160E741E00E944E2374
:1053C000C80160E744E00E944E231F910F910895A9
:1053D000CF93DF93EC0110921E636091D320709104
:1053E000D4206B5F7F4F4091D1205091D220455007
:1053F00050408FE193E60E94B825882309F181E0AF
:1054000080931E63CE010E960E9422288DE291E6C3
:1054100060E00E9432128DE291E66BE971E148E5AD
:1054200052E00E944D158DE291E661E00E94321239
:105430008DE291E660E273E648E552E00E947B155A
:10544000DF91CF910895CF93DF93EC011092D16556
:105450006091D3207091D4206B5F7F4F4091D12019
:105460005091D2204550504082ED95E60E94DE24B6
:10547000882339F081E08093D165CE01CF960E94D8
:105480002228DF91CF910895CF93DF93EC01623012
:1054900039F0643009F44EC0613009F05CC025C0B9
:1054A000242F30E080911A6390911B638217930739
:1054B00089F030931B6320931A638985882331F028
:1054C00088E193E6642F0E94792304C0CE010E96F2
:1054D0000E9422288B858823F1F188E193E6609170
:1054E0001A630E9479231B8636C0242F30E08091F6
:1054F0001863909119638217930789F030931963A9
:10550000209318638A85882331F088E193E6642F1D
:105510000E94742304C0CE01CF960E9422288C855D
:105520008823C9F088E193E6609118630E94742390
:105530001C8611C050E080911C6390911D638417FC
:10554000950749F050931D6340931C63CE01805929
:105550009F4F0E94222881E08D87DF91CF9108958F
:10556000FF920F931F93CF93DF93EC018B01FFB654
:10557000F8942DC0242F30E0F901EE0FFF1FE20F49
:10558000F31FEE0FFF1FEC0FFD1F8081918180172D
:105590009107F9F4C9010196BC01660F771F680FE6
:1055A000791F660F771F6C0F7D1F852F90E0019785
:1055B000821B930BAC01440F551F480F591F440F1A
:1055C000551FCF010E94751D88A9815088AB40E00E
:1055D00001C04F5F58A9451768F2FFBECDB7DEB7CF
:1055E000E5E00C94EA3487539F4F0E94B02A089557
:1055F000FF920F931F93CF93DF93EC018B01FFB6C4
:10560000F8942DC0242F30E0F901EE0FFF1FE20FB8
:10561000F31FEE0FFF1FEC0FFD1F8081918180179C
:105620009107F9F4C9010196BC01660F771F680F55
:10563000791F660F771F6C0F7D1F852F90E00197F4
:10564000821B930BAC01440F551F480F591F440F89
:10565000551FCF010E94751D88A9815088AB40E07D
:1056600001C04F5F58A9451768F2FFBECDB7DEB73E
:10567000E5E00C94EA3405960E94F82A0895C6964F
:105680000E94F82A0895EF92FF920F931F93182F0C
:10569000092FE2EAEE2EEAE6FE2EC701612F702FF7
:1056A0000E94F32AC701612F702F0E943B2BC70174
:1056B000612F702F0E943F2B1F910F91FF90EF9051
:1056C0000895EF92FF920F931F937C01FC01738367
:1056D000628341872287048702EA1AE6C8010E9492
:1056E000932724E43AE240E050E0C801B7010E9469
:1056F000642923E23AE240E050E0C801B7010E9489
:10570000C32928EE39E240E050E0C801B7010E9409
:10571000C7291F910F91FF90EF900895EF92FF928C
:105720000F93FEE9EF2EFBE6FF2EC70168EB7BE04F
:1057300040E021E001E00E94612B81E08093A76BB3
:105740008093AA6B8DE291E6B7010E94E2280F9147
:10575000FF90EF9008959798979A08959698969A43
:10576000089581B3806C81BB8D989598979A969A8D
:105770000895EF92FF921F93CF93DF937C010E94D5
:10578000AE2BC0E0D0E010E0CC0FDD1F80B390E086
:1057900045E0969587954A95E1F781709070C82B02
:1057A000D92BC7010E94AB2B1F5F103169F7CE01C7
:1057B000DF91CF911F91FF90EF9008954FB7F8942C
:1057C000FC0180E0178216828F5F32968430D1F719
:1057D0004FBF08950F931F938C010E94DE2BF80199
:1057E0001282138214821582118210821F910F91EE
:1057F0000895A0E0B0E0EFEFFBE20C94C934EC01B7
:10580000D62EC72E8C018EE4E82E8CE6F82E862F3D
:10581000972F9C0160E070E0A880B980C9018A25BB
:105820009B2583709070892B09F460C0D7018C91FF
:1058300080FF05C0FB013396EE0FFF1F04C0FB0184
:10584000EE0FFF1F3796EC0FFD1FD80112968C91BB
:10585000482F50E0437050704115510559F4C5016F
:1058600083709070019731F4C90183709070039731
:10587000B9F40DC04330510581F4C50183709070B7
:105880000297D9F4C90183709070892BC9F4808183
:10589000803444F580818F5F24C04115510569F43F
:1058A000B3E0AB22BB2482E0A816B104D9F4C9014D
:1058B000837090700397B1F40FC04330510591F499
:1058C00093E0A922BB24A1E0AA16B10459F4C901AE
:1058D00083709070892B31F48081813C1CF0808131
:1058E0008150808388818370F801828388819981C7
:1058F0009695879596958795998388836F5F7F4F57
:105900000F5F1F4F85E090E0E80EF91E64307105CF
:1059100029F036952795369527957ECFD882C9826E
:10592000CDB7DEB7EAE00C94E534EEE4FCE6908116
:10593000892F877C808380FF03C08260808302C0C0
:10594000957C908335968CE6E637F80781F70895C5
:105950000E94952C0895EEE4FCE670E0808160FFE3
:1059600002C0816001C08E7F808335968CE6E63769
:10597000F80719F075956795F0CF08958FE39CE6C9
:105980000E94B12B80E49CE60E94EA2B8EE49CE608
:105990000E94A82C089508950895089508951E9AC8
:1059A0001E980895DC01E2E6F0E080816F70807F50
:1059B000862B8083ED91FC9111970190F081E02D71
:1059C000CD0109950895FF920F931F938C01F62E38
:1059D000DC01ED91FC9170E084E0759567958A9506
:1059E000E1F70280F381E02DC8010995D801ED911E
:1059F000FC91BFE0FB220280F381E02DC8016F2DF6
:105A000009951F910F91FF900895DC011A98ED916F
:105A1000FC910084F185E02D099588EC90E00197D8
:105A2000F1F70895DC011A9AED91FC910084F1855B
:105A3000E02D099588EC90E00197F1F70895FC01BD
:105A400080EC94E09183808308950F931F938C01E1
:105A5000DC01ED91FC910280F381E02D63E009957A
:105A6000D801ED91FC910280F381E02DC80162E044
:105A7000099580E293E00197F1F7D801ED91FC914F
:105A80000480F581E02DC80168E20995D801ED9107
:105A9000FC910480F581E02DC8016CE00995D801E6
:105AA000ED91FC910480F581E02DC80164E0099539
:105AB000D801ED91FC910480F581E02DC80161E0F1
:105AC0000995D801ED91FC910480F581E02DC80184
:105AD00062E0099580E29EE40197F1F71F910F9132
