:100000000C944C000C9474000C9474000C947400C8
:100010000C9474000C9474000C9474000C94740090
:100020000C9474000C9474000C942F050C947400C0
:100030000C9474000C9474000C9478050C94740067
:100040000C9474000C9474000C946C090C9474005F
:100050000C945F080C9474000C9474000C9474005D
:100060000C9474000C9474000C9474000C94740040
:100070000C9474000C9474000C9437090C94740064
:100080000C9474000C9474000C9474007601CF03EB
:10009000AD047F0680072E0911241FBECFEFD0E1EB
:1000A000DEBFCDBF11E0A0E0B1E0EEEAF7E102C0B3
:1000B00005900D92AE36B107D9F713E0AEE6B1E088
:1000C00001C01D92AC3AB107E1F710E0C8E9D0E0F9
:1000D00004C02297FE010E94D10BCC38D107C9F78A
:1000E0000E94DF040C94D50B0C940000DF92EF9279
:1000F000FF920F931F93D72E7A018C01FA01099575
:10010000C80101966D2DF70109951F910F91FF9080
:10011000EF90DF9008958FB7F89420916E013091A1
:100120006F018FBFC90108956817790720F09B01FF
:10013000281B390B05C09C0120953095260F371FD1
:10014000C9010895AF92BF92CF92DF92EF92FF92D2
:100150000F931F93A0E0B0E0BC01CD010E94750A8F
:100160005B016C012BEA3AEA4AEA50E40E942B0B4D
:100170007B018C0120E030E040E85FE30E94DD0974
:10018000882314F461E054C0C801B70120E030E0D6
:100190004FE753E40E94270B18160CF045C0C60128
:1001A000B50120E030E04AE754E40E94E1095B0138
:1001B0006C0120E030E04AE755E40E942B0B7B0104
:1001C0008C0120E030E040E85FE30E94DD098823F5
:1001D0001CF461E070E024C0C801B70120E03FEFEB
:1001E0004FE757E40E94270B1816B4F4C601B50177
:1001F00020E030E040E251E40E942B0B0E94490ACB
:1002000080E991E005C0FC013197F1F76150704041
:1002100061157105C1F70EC0C801B7010E94490AF6
:10022000CB010197F1F706C0C801B7010E94490A46
:100230006A95F1F71F910F91FF90EF90DF90CF90AB
:10024000BF90AF900895AF92BF92CF92DF92EF929E
:10025000FF920F931F93A0E0B0E0BC01CD010E947C
:10026000750A5B016C0120E030E04AE755E40E942A
:100270002B0B7B018C0120E030E040E85FE30E9423
:10028000DD0988231CF461E070E024C0C801B701D7
:1002900020E03FEF4FE757E40E94270B1816B4F415
:1002A000C601B50120E030E040E251E40E942B0B92
:1002B0000E94490A80E991E005C0FC013197F1F7FD
:1002C0006150704061157105C1F707C0C801B701E1
:1002D0000E94490ACB010197F1F71F910F91FF90FE
:1002E000EF90DF90CF90BF90AF9008951092C00133
:1002F000E2E7F1E080E2808387A3319691E0E23883
:10030000F907C9F7108217A21092C6011092C50111
:100310001092C2011092C10108950895FC017187E5
:1003200060878FEF838F1382128284E090E0918345
:10033000808380E090E014861386019632968730A1
:100340009105C9F7089521E0FC0122830895FC017D
:1003500081E0808B1786168612821382178216829E
:1003600008951F93CF93DF93EC01162F888988237C
:1003700091F0EE85FF85E330F10538F4E050FF4F52
:100380008081681741F0188A06C0339721F46530E0
:1003900011F40E94BE078A818823D1F48E859F853F
:1003A00001969F878E878B81882391F0EA85FB8554
:1003B000309771F02E813F818C859D8528173907F4
:1003C00038F4E20FF31F10832F5F3F4F3F832E83DC
:1003D000DF91CF911F9108950F931F93CF93DF93D8
:1003E000EC01162F683FC0F00FB7F8948091EE0132
:1003F0009091EF01029771F46A3F19F06C3F51F44C
:1004000005C087EC91E00E94530304C087EC91E0A3
:100410000E9478030FBFCBC001E0888199818230B0
:10042000910509F48DC0833091053CF4009709F4DF
:100430003DC0019709F0BBC0AFC08330910541F0CA
:10044000049709F0B4C017FFB2C019821882E5CF33
:1004500017FF1DC0A98DBA8D173F69F01982188248
:100460001097D9F2ED91FC9111970280F381E02D64
:10047000CD010995D2CF109709F499C0ED91FC9167
:1004800011970480F581E02DCD01099590C0A98DCB
:10049000BA8D109709F48BC0ED91FC9111970680ED
:1004A000F781E02DCD01612F099581C0103F99F4AE
:1004B00083E090E099838883A98DBA8D109741F0ED
:1004C000ED91FC9111970190F081E02DCD010995FE
:1004D0001B821A826CC017FF03C01A831B8205C0DF
:1004E0008A81882309F463C00B832A81203F08F4A2
:1004F000207F30E00BC0821741F481819281998383
:1005000088838A818D830C8310C03F5F832F90E0A6
:10051000FC01EE0FFF1FEE0FFF1FE80FF91FEF5E4C
:10052000FE4F8081882339F720E03A87222319F48F
:1005300084E090E03AC08B81882309F06ECF37C009
:100540008C81FE01E80FF11D15838F5F8C838A85F6
:1005500090E0FC01EE0FFF1FEE0FFF1FE80FF91FE9
:10056000EF5EFE4F8081803921F48F81882309F46A
:100570001A86EA85E73068F4F0E0EE0FFF1FEC0F13
:10058000FD1F0384F485E02D309719F0CE01059608
:100590000995198218820BC08C81FE01E80FF11DAC
:1005A00015838F5F8C8382E090E099838883DF914D
:1005B000CF911F910F910895AF92BF92CF92DF928A
:1005C000EF92FF920F931F93CF93DF93EC018091F3
:1005D000700190917101688D798D6817790728F401
:1005E0009C01261B370BB90104C060957095680FFC
:1005F000791F7B8F6A8F998F888F8C8D9D8DAE8DA3
:10060000BF8D0196A11DB11D8C8F9D8FAE8FBF8FA9
:100610008B898F5F8B8B863009F41B8A8DA19EA1FD
:100620008130910519F0029799F505C082E090E0BC
:100630009EA38DA32DC08C8D9D8DAE8DBF8D0297F9
:10064000A105B10519F47D8B6C8B22C0A8A0B9A0BF
:1006500080E090E020E031E02A193B0940E050E0E2
:100660000E948E0B7B018C01CC24DD242C893D89DA
:1006700040E050E0C601B5010E948E0BE60EF71E69
:10068000081F191FEF2CF02E012F1127FD8AEC8A6D
:10069000DF91CF911F910F91FF90EF90DF90CF905E
:1006A000BF90AF900895FC0187A190A50297029793
:1006B000F0F4118E108E148E158E168E178E138AEE
:1006C0008CED90E091A380A381E090E096A385A3B8
:1006D000128A168217821086118612861386148655
:1006E000158616861786108A118A178A168A089523
:1006F000FC0187A190A50297029710F416A215A2FB
:100700000895FF920F931F938C01FFB6F894FC019C
:1007100073A362A39B0140E050E06AE572E682E0C9
:1007200090E00E94AD0B20513040F801358B248BB6
:10073000FFBE1F910F91FF9008950F931F938C019F
:10074000FC0116A215A2178A168A118E108E168227
:1007500017821086118612861386148615861686D1
:100760001786108A118A128A148E158E168E178E8D
:10077000138A8CED90E091A380A310A617A2C80164
:1007800068E770E00E948103F801118210821382F1
:1007900012821582148214A21F910F91089587EC82
:1007A00091E00E949D030895EF92FF920F931F9393
:1007B000CF93DF93EC018E899F89009709F0C3C026
:1007C0008C899D899F8B8E8B8A89882301F5EC818A
:1007D000FD81309709F00995EA81FB81309709F096
:1007E00009958E859F85A889B9890196A11DB11D9E
:1007F0008E879F87A88BB98B8A859B85AC85BD85A5
:100800000196A11DB11D8A879B87AC87BD878A8908
:10081000833081F4EA81FB81309709F009958A855C
:100820009B85AC85BD850196A11DB11D8A879B87DF
:10083000AC87BD878E819F81A885B9850196A11D52
:10084000B11D8E839F83A887B9878A898F5F8A8B22
:100850002FA138A5C9010297029708F05FC0209127
:10086000700130917101888D998D2817390720F01A
:10087000F901E81BF90B05C0FC01E095F095E20FCA
:10088000F31FEE80FF80088519852C8D3D8D4E8DE0
:100890005F8DE216F3060407150750F0DA01C9016F
:1008A0000196A11DB11D8E159F05A007B10730F45B
:1008B0002E833F83488759878B898A8B2E813F817E
:1008C000488559858C8D9D8DAE8DBF8D6E897F89B4
:1008D00082179307A407B50768F0CF01A0E0B0E046
:1008E00034E0B695A795979587953A95D1F7681B0B
:1008F000790B11C0E617F707E0F4CB018E1B9F0BB5
:10090000A0E0B0E024E0B695A795979587952A9545
:10091000D1F7680F791F7F8B6E8B0BC021303105AB
:1009200041F48CA1882329F083EF92E068EF0E94C4
:100930003008E881F981309709F009958A89863075
:1009400029F41A8A03C001979F8B8E8BDF91CF9178
:100950001F910F91FF90EF90089580EF91E0909399
:1009600079028093780280E890E0909375028093FA
:10097000740210927F0210927E0210927202109204
:10098000730210927B0210927A0210927D021092F2
:100990007C0289E091E0909371028093700281E083
:1009A0008093800283E892E060E070E00E948E0114
:1009B0008FE992E060E070E00E948E0108950E944D
:1009C00091071C9A1D9AEAECF2E080818160808395
:1009D000359682E0E23FF807C1F780E792E0909316
:1009E0009D0280939C02789483EF92E00E943408E9
:1009F000882349F083EF92E00E943F08682F83E844
:100A000092E00E94EC018EE393E00E94D9088823D3
:100A100059F38EE393E00E94E608682F8FE992E095
:100A20000E94EC01E1CFEF92FF920F931F938BEBAB
:100A300092E00E94AD057C010AEC12E0C8010E9420
:100A40006C06C8016F2D0E94A0068CEB92E0B701E6
:100A50000E94C6051F910F91FF90EF9008951F927D
:100A60000F920FB60F9211242F933F934F935F93E2
:100A70006F937F938F939F93AF93BF93EF93FF9366
:100A80000E94130580916E0190916F0101969093E1
:100A90006F0180936E0120916E0130916F01809102
:100AA000810290918202281B390B37FF03C03095D9
:100AB00021953F4F295B3B4054F01092F502809105
:100AC0006E0190916F019093820280938102FF9159
:100AD000EF91BF91AF919F918F917F916F915F91B6
:100AE0004F913F912F910F900FBE0F901F9018952F
:100AF0001F920F920FB60F9211242F933F934F9393
:100B00005F936F937F938F939F93AF93BF93EF9375
:100B1000FF93809170019091710101969093710102
:100B2000809370018091EC019091ED01029721F486
:100B300087EC91E00E94D403FF91EF91BF91AF91B8
:100B40009F918F917F916F915F914F913F912F91E5
:100B50000F900FBE0F901F9018959698969A20E0D0
:100B600030E040E0220F331F80B390E065E09695BF
:100B700087956A95E1F781709070282B392B9798AB
:100B8000979A4F5F403171F7C9010895AF92BF92B4
:100B9000CF92DF92EF92FF920F931F93CF93DF9349
:100BA000EC01D62EC72E8C018AECE82E82E0F82EBE
:100BB000862F972F9C0160E070E0A880B980C90162
:100BC0008A259B2583709070892B09F460C0D7011A
:100BD0008C9180FF05C0FB013396EE0FFF1F04C010
:100BE000FB01EE0FFF1F3796EC0FFD1FD801129689
:100BF0008C91482F50E0437050704115510559F4C5
:100C0000C50183709070019731F4C90183709070B1
:100C10000397B9F40DC04330510581F4C5018370C9
:100C200090700297D9F4C90183709070892BC9F430
:100C30008081803444F580818F5F24C04115510547
:100C400069F4B3E0AB22BB2482E0A816B104D9F466
:100C5000C901837090700397B1F40FC04330510500
:100C600091F493E0A922BB24A1E0AA16B10459F49F
:100C7000C90183709070892B31F48081813C1CF014
:100C800080818150808388818370F801828388818C
:100C900099819695879596958795998388836F5FB7
:100CA0007F4F0F5F1F4F85E090E0E80EF91E643024
:100CB000710529F036952795369527957ECFD882F0
:100CC000C982DF91CF911F910F91FF90EF90DF903C
:100CD000CF90BF90AF900895EAECF2E09081892F19
:100CE000877C808380FF03C08260808302C0957C04
:100CF0009083359682E0E23FF80781F7089581B34B
:100D0000806C81BB8D989598979A969AE2ECF2E068
:100D100011821082329682E0EA3CF807C9F71092FD
:100D2000BE021092BF021092C0021092C102109235
:100D3000BD021092BC028AEC92E00E946C060895FB
:100D4000CF92DF92EF92FF920F931F93CF93DF9397
:100D5000CAECD2E08C01C62EDD24888160FF02C07F
:100D6000816001C08E7F88830E948B007C01988106
:100D700091FF19C090FD17C0F801F282E18292FF45
:100D80000DC083819481B7010E949400883C910535
:100D900050F4888188608B7F888305C0F801F482D5
:100DA000E38294609883888180FD0FC082FF0DC02C
:100DB000F80183819481B7010E949400815293408D
:100DC00020F0888180628B7F888388818570853060
:100DD000A1F4F80183819481B7010E949400F3E0AB
:100DE00081329F0718F088818B7F06C0893C91056E
:100DF00020F088818B7F8061888325960B5F1F4F51
:100E000022E0C23FD20721F0D594C7946C2DA3CF26
:100E1000DF91CF911F910F91FF90EF90DF90CF90D6
:100E200008953FB7F894E2E6F0E02081862F90E045
:100E300044E0959587954A95E1F78F70207F822B46
:100E400080831E9A1E983FBF9FB7F894E2E6F0E0B9
:100E500080816F70807F862B80831E9A1E989FBF33
:100E600008951F931FB7F8941A980E9411071FBF87
:100E700082E390E00E94A2001F9108950F931F93B8
:100E80008C01E1E6F0E080818F6080831092620047
:100E900082B1846482B99FB7F894E2E6F0E0808181
:100EA000807F836080831E9A1E989FBF9FB7F894AF
:100EB000E2E6F0E08081807F826080831E9A1E9847
:100EC0009FBF88EC90E00E94A200C80168E20E94E7
:100ED0003107C8016CE00E943107C80164E00E943C
:100EE0003107C80161E00E943107C80162E00E9439
:100EF000310785E090E00E9423011F910F91089532
:100F000082EF92E00E943E0708959C01E199FECF96
:100F10003FBB2EBB6DBB0FB6F894E29AE19A0FBEB1
:100F2000089588E10FB6F89481BD11BC0FBEB89A40
:100F3000C0988FEF84BB15BA21E025BF80E885BF3C
:100F40008C9A949A89E080938A0081E880938B0040
:100F500080EA90E0909387008093860082B180635E
:100F600082B92FBD8EB589608EBD8BE485BD87B7F4
:100F7000806487BF87B7846087BF0895F89484E052
:100F800090E060E070E045E857E00E947600E09174
:100F90000301F091040109950895FC011482138264
:100FA00081E691E0918380831582168217A210A6B4
:100FB00011A6E65BFF4F1082EA54F04012821092B5
:100FC00090008FE189B986E08093950088E98AB91D
:100FD000569A0895FC011482138281E691E0918370
:100FE00080831582168217A210A611A6E65BFF4F1A
:100FF0001082EA54F0401282109290008FE189B979
:1010000086E08093950088E98AB9569A0895FC0194
:101010001282109290008FE189B986E0809395004A
:1010200088E98AB9569A0895EF92FF921F93CF9359
:10103000DF93EC017B01142F0BC0F70161917F015D
:10104000E881F9810480F581E02DCE0109951150E8
:10105000112399F7DF91CF911F91FF90EF900895A1
:101060005D9BFECF6CB90895FC019FB7F894258174
:1010700086819FBF90E0281391E0892F0895DC01BD
:101080002FB7F89415969C91159716968C911697F4
:101090002FBF981711F420E010C015968C9115976A
:1010A000FD01E80FF11D278115968C91159790E0B1
:1010B00001968F71907015968C93822F08951F92D0
:1010C0000F920FB60F9211242F938F939F93EF934C
:1010D000FF932FB7F89490911B0380911C032FBFAF
:1010E000981749F12FB7F89490911B0380911C0336
:1010F0002FBF981711F480E006C0E0911B03F0E0C9
:10110000ED50FD4F82A58CB92FB7F89490911B0339
:1011100080911C032FBF981771F0E0911B03F0E042
:10112000ED50FD4F82A580911B0390E001968F71D9
:10113000907080931B03FF91EF919F918F912F915E
:101140000F900FBE0F901F9018950F931F938C0157
:101150000E94CD0781E591E0F80191838083055BD2
:101160001F4FF80111928F0110820F5D1F4FF80180
:1011700010820D561040F8011282109298008FE1F3
:101180008093990086E080939D0080E980939A0087
:101190001F910F910895FC011282109298008FE127
:1011A0008093990086E080939D0080E980939A0067
:1011B0000895FC012FB7F894E55BFF4F9191808172
:1011C0002FBF20E0981321E0822F0895FC012FB754
:1011D000F894DC01A55BBF4F9C91E45BFF4F8081DD
:1011E000EC54F0402FBF981711F420E00CC08C9104
:1011F000E80FF11DE35BFF4F20818C9190E0019699
:101200008F7190708C93822F0895DC018FB7F894C2
:1012100011962C9111979C918FBF30E02F5F3F4F1B
:101220002F713070921741F492968C9192978F5F44
:1012300092968C9380E0089511968C911197FD0100
:10124000E80FF11D628311968C91119790E0019641
:101250008F71907011968C9381E0089583EF92E0E6
:101260000E94EA078EE393E00E94A50808951F926A
:101270000F920FB60F9211242F933F934F935F93CA
:101280006F937F938F939F93AF93BF93EF93FF934E
:1012900060919C00683F59F48091EE019091EF01BC
:1012A000039729F487EC91E00E94DC0204C089E8EE
:1012B00093E00E940509FF91EF91BF91AF919F913B
:1012C0008F917F916F915F914F913F912F910F90EF
:1012D0000FBE0F901F9018951F920F920FB60F928E
:1012E00011242F933F934F935F936F937F938F932B
:1012F0009F93AF93BF93EF93FF936CB1683F59F403
:101300008091EE019091EF01029729F487EC91E032
:101310000E94DC0204C088EF92E00E940509FF9160
:10132000EF91BF91AF919F918F917F916F915F915D
:101330004F913F912F910F900FBE0F901F901895D6
:101340000F931F93CF93DF93EC01062F2FB7F894E1
:1013500098A589A52FBF9817F1F45D9B1CC00CB907
:1013600027C01FB778948AE090E00E94A2001FBFB8
:101370008FB7F89429A598A58FBF30E02F5F3F4F16
:101380002F713070921711F7ECCFCE018896602F35
:101390000E9405090DC08FB7F89429A598A58FBFA5
:1013A00030E02F5F3F4F2F713070921709F3EDCF70
:1013B000DF91CF911F910F910895D4D008F481E06F
:1013C00008950CD00AC102D140F0F9D030F021F4D8
:1013D0005F3F19F0EBC0511134C1EEC00FD198F34B
:1013E0009923C9F35523B1F3951B550BBB27AA27A6
:1013F00062177307840738F09F5F5F4F220F331F18
:10140000441FAA1FA9F333D00E2E3AF0E0E830D0E3
:1014100091505040E695001CCAF729D0FE2F27D0E6
:10142000660F771F881FBB1F261737074807AB07B4
:10143000B0E809F0BB0B802DBF01FF2793585F4F29
:101440002AF09E3F510568F0B1C0FBC05F3FECF34E
:10145000983EDCF3869577956795B795F7959F5FEE
:10146000C9F7880F911D9695879597F90895E1E042
:10147000660F771F881FBB1F621773078407BA07A1
:1014800020F0621B730B840BBA0BEE1F88F7E095FC
:101490000895BCD088F09F5790F0B92F9927B75185
:1014A000A0F0D1F0660F771F881F991F1AF0BA9528
:1014B000C9F712C0B13081F0C3D0B1E00895C0C007
:1014C000672F782F8827B85F39F0B93FCCF386951E
:1014D00077956795B395D9F73EF49095809570957B
:1014E00061957F4F8F4F9F4F0895E89409C097FBF8
:1014F0003EF490958095709561957F4F8F4F9F4FEB
:101500009923A9F0F92F96E9BB279395F69587952E
:1015100077956795B795F111F8CFFAF4BB0F11F4F1
:1015200060FF1BC06F5F7F4F8F4F9F4F16C0882398
:1015300011F096E911C0772321F09EE8872F762FCE
:1015400005C0662371F096E8862F70E060E02AF00F
:101550009A95660F771F881FDAF7880F96958795FB
:1015600097F90895990F0008550FAA0BE0E8FEEFD0
:1015700016161706E807F907C0F012161306E40757
:10158000F50798F0621B730B840B950B39F40A2650
:1015900061F0232B242B252B21F408950A2609F42E
:1015A000A140A6958FEF811D811D089597F99F6732
:1015B00080E870E060E008959FEF80EC08950024DB
:1015C0000A941616170618060906089500240A94A8
:1015D00012161306140605060895092E0394000C2E
:1015E00011F4882352F0BB0F40F4BF2B11F460FFBD
:1015F00004C06F5F7F4F8F4F9F4F089557FD9058E6
:10160000440F551F59F05F3F71F04795880F97FBC6
:10161000991F61F09F3F79F0879508951216130680
:101620001406551FF2CF4695F1DF08C016161706AF
:101630001806991FF1CF86957105610508940895E4
:10164000E894BB2766277727CB0197F908958ADFAF
:1016500008F48FEF08950BD0C0CFB1DF28F0B6DFCC
:1016600018F0952309F0A2CFA7CF1124EACFC6DF47
:10167000A0F3959FD1F3950F50E0551F629FF001A5
:10168000729FBB27F00DB11D639FAA27F00DB11DFE
:10169000AA1F649F6627B00DA11D661F829F222787
:1016A000B00DA11D621F739FB00DA11D621F839F0E
:1016B000A00D611D221F749F3327A00D611D231FE4
:1016C000849F600D211D822F762F6A2F11249F5732
:1016D00050408AF0E1F088234AF0EE0FFF1FBB1F55
:1016E000661F771F881F91505040A9F79E3F5105F4
:1016F00070F05CCFA6CF5F3FECF3983EDCF38695AD
:1017000077956795B795F795E7959F5FC1F7FE2B9E
:10171000880F911D9695879597F90895629FD0013E
:10172000739FF001829FE00DF11D649FE00DF11D9C
:10173000929FF00D839FF00D749FF00D659FF00D4B
:101740009927729FB00DE11DF91F639FB00DE11D38
:10175000F91FBD01CF0111240895A1E21A2EAA1B81
:10176000BB1BFD010DC0AA1FBB1FEE1FFF1FA21751
:10177000B307E407F50720F0A21BB30BE40BF50B4E
:10178000661F771F881F991F1A9469F760957095D7
:10179000809590959B01AC01BD01CF010895EE0F9E
:0E17A000FF1F0590F491E02D0994F894FFCFFF
:1017AE00001341003800000000A701A3018D01B114
:1017BE000180010000009001000000A00100000067
:1017CE00B001000000C002000000D002000000E0E6
:1017DE0001000000F102000000F201000000F3021F
:1017EE00000000F6000000000004000000000000F1
:1017FE0000CB081408A0093008D908E6080000003C
:0E180E000007081408A009300834083F08003D
:00000001FF
