:100000000C944C000C9474000C9474000C947400C8
:100010000C9474000C9474000C9474000C94740090
:100020000C9474000C9474000C94BB040C94740035
:100030000C9474000C9474000C94E8040C947400F8
:100040000C9474000C9474000C94C2080C9474000A
:100050000C94D2070C9474000C9474000C947400EB
:100060000C9474000C9474000C9474000C94740040
:100070000C9474000C9474000C948D080C9474000F
:100080000C9474000C9474000C9474007601C303F7
:100090007504FA056407650811241FBECFEFD0E18F
:1000A000DEBFCDBF11E0A0E0B1E0E0EEF5E102C0BF
:1000B00005900D92AE35B107D9F713E0AEE5B1E08A
:1000C00001C01D92AB34B107E1F710E0C8E9D0E000
:1000D00004C02297FE010E94EA0ACC38D107C9F772
:1000E0000E9424050C94EE0A0C940000DF92EF921B
:1000F000FF920F931F93D72E7A018C01FA01099575
:10010000C80101966D2DF70109951F910F91FF9080
:10011000EF90DF9008958FB7F89420915E013091B1
:100120005F018FBFC90108956817790720F09B010F
:10013000281B390B05C09C0120953095260F371FD1
:10014000C9010895AF92BF92CF92DF92EF92FF92D2
:100150000F931F93A0E0B0E0BC01CD010E948E0977
:100160005B016C012BEA3AEA4AEA50E40E94440A35
:100170007B018C0120E030E040E85FE30E94F6085C
:10018000882314F461E054C0C801B70120E030E0D6
:100190004FE753E40E94400A18160CF045C0C60110
:1001A000B50120E030E04AE754E40E94FA085B0120
:1001B0006C0120E030E04AE755E40E94440A7B01EC
:1001C0008C0120E030E040E85FE30E94F6088823DD
:1001D0001CF461E070E024C0C801B70120E03FEFEB
:1001E0004FE757E40E94400A1816B4F4C601B5015F
:1001F00020E030E040E251E40E94440A0E9462099B
:1002000080E991E005C0FC013197F1F76150704041
:1002100061157105C1F70EC0C801B7010E946209DE
:10022000CB010197F1F706C0C801B7010E9462092E
:100230006A95F1F71F910F91FF90EF90DF90CF90AB
:10024000BF90AF900895AF92BF92CF92DF92EF929E
:10025000FF920F931F93A0E0B0E0BC01CD010E947C
:100260008E095B016C0120E030E04AE755E40E9412
:10027000440A7B018C0120E030E040E85FE30E940B
:10028000F60888231CF461E070E024C0C801B701BF
:1002900020E03FEF4FE757E40E94400A1816B4F4FD
:1002A000C601B50120E030E040E251E40E94440A7A
:1002B0000E94620980E991E005C0FC013197F1F7E5
:1002C0006150704061157105C1F707C0C801B701E1
:1002D0000E946209CB010197F1F71F910F91FF90E6
:1002E000EF90DF90CF90BF90AF9008951092B00143
:1002F000E2E6F1E080E2808387A3319691E0E23785
:10030000F907C9F7108217A21092B6011092B50131
:100310001092B2011092B10108950895FC01718705
:1003200060878FEF838F1382128284E090E0918345
:10033000808380E090E014861386019632968730A1
:100340009105C9F7089521E0FC0122830895FC017D
:1003500081E08487138612861282138217821682A6
:1003600008951F93CF93DF93EC01162F8C8588237C
:10037000C1F0EA85FB85E330F10538F4E05FFE4F1C
:100380008081681771F01C860CC0339751F465307A
:1003900041F480EE92E060E071E00E9400070E946C
:1003A00094078A818823D1F48A859B8501969B874F
:1003B0008A878B81882391F0E885F985309771F0E1
:1003C0002E813F818C819D812817390738F4E20FF7
:1003D000F31F10832F5F3F4F3F832E83DF91CF9119
:1003E0001F9108950F931F93CF93DF93EC01162F66
:1003F000683FC0F00FB7F8948091DE019091DF0163
:10040000029771F46A3F19F06C3F51F405C087EB15
:1004100091E00E94470304C087EB91E00E946C03C7
:100420000FBFB9C001E0888199818230910509F43C
:100430008DC0833091053CF4009709F43DC00197CD
:1004400009F0A9C09DC08330910541F0049709F0DF
:10045000A2C017FFA0C019821882E5CF17FF1DC0E8
:10046000A98DBA8D173F69F0198218821097D9F2B9
:10047000ED91FC9111970280F381E02DCD0109955A
:10048000D2CF109709F487C0ED91FC9111970480A9
:10049000F581E02DCD0109957EC0A98DBA8D10970B
:1004A00009F479C0ED91FC9111970680F781E02D58
:1004B000CD01612F09956FC0103F99F483E090E062
:1004C00099838883A98DBA8D109741F0ED91FC91A5
:1004D00011970190F081E02DCD0109951B821A82C0
:1004E0005AC017FF03C01A831B8205C08A81882364
:1004F00009F451C00B832A81203F08F4207F30E0AB
:100500000BC0821741F481819281998388838A810B
:100510008D830C8310C03F5F832F90E0FC01EE0FB2
:10052000FF1FEE0FFF1FE80FF91FEF5DFE4F8081E9
:10053000882339F720E03A87222319F484E090E0F9
:1005400028C08B81882309F06ECF25C08C81FE01E5
:10055000E80FF11D15838F5F8C83EA85E73068F41F
:10056000F0E0EE0FFF1FEC0FFD1F0384F485E02D7C
:10057000309719F0CE0105960995198218820BC0A3
:100580008C81FE01E80FF11D15838F5F8C8382E063
:1005900090E099838883DF91CF911F910F91089507
:1005A000AF92BF92CF92DF92EF92FF920F931F9381
:1005B000CF93DF93EC018091600190916101688D90
:1005C000798D6817790728F49C01261B370BB90130
:1005D00004C060957095680F791F7B8F6A8F998F23
:1005E000888F8C8D9D8DAE8DBF8D0196A11DB11D07
:1005F0008C8F9D8FAE8FBF8F8B898F5F8B8B86305B
:1006000009F41B8A8DA19EA18130910519F00297F2
:1006100099F505C082E090E09EA38DA32DC08C8D3E
:100620009D8DAE8DBF8D0297A105B10519F47D8B0F
:100630006C8B22C0A8A0B9A080E090E020E031E05F
:100640002A193B0940E050E00E94A70A7B018C0177
:10065000CC24DD242C893D8940E050E0C601B50161
:100660000E94A70AE60EF71E081F191FEF2CF02E96
:10067000012F1127FD8AEC8ADF91CF911F910F91F5
:10068000FF90EF90DF90CF90BF90AF900895FC0166
:1006900087A190A502970297F0F4118E108E148E08
:1006A000158E168E178E138A8CED90E091A380A381
:1006B00081E090E096A385A3128A168217821086A5
:1006C0001186128613861486158616861786108A5A
:1006D000118A178A168A0895FC0187A190A50297AE
:1006E000029710F416A215A20895FF920F931F937C
:1006F0008C01FFB6F894FC0173A362A39B0140E058
:1007000050E06AE572E682E090E00E94C60A20515D
:100710003040F801358B248BFFBE1F910F91FF9065
:1007200008950F931F938C01FC0116A215A2178A3E
:10073000168A118E108E16821782108611861286E6
:1007400013861486158616861786108A118A128AD1
:10075000148E158E168E178E138A8CED90E091A351
:1007600080A310A617A2C80168E770E00E94750375
:10077000F80111821082138212821582148214A24F
:100780001F910F91089587EB91E00E9491030895C6
:10079000EF92FF920F931F93CF93DF93EC018E891B
:1007A0009F89009709F097C08C899D899F8B8E8BBC
:1007B0008A89882329F4EC81FD81309709F0099515
:1007C0008E819F81A885B9850196A11DB11D8E835B
:1007D0009F83A887B9878A898F5F8A8B2FA138A5C5
:1007E000C9010297029708F056C0609160017091AC
:1007F0006101888D998D0E949400FC01EE80FF803C
:10080000088519852C8D3D8D4E8D5F8DE216F30682
:100810000407150750F0DA01C9010196A11DB11DA9
:100820008E159F05A007B10730F42E833F834887BC
:1008300059878B898A8B2E813F81488559858C8D7C
:100840009D8DAE8DBF8D6E897F8982179307A4071A
:10085000B50768F0CF01A0E0B0E034E0B695A79509
:10086000979587953A95D1F7681B790B11C0E617D4
:10087000F707E0F4CB018E1B9F0BA0E0B0E024E073
:10088000B695A795979587952A95D1F7680F791F03
:100890007F8B6E8B0BC02130310541F48CA18823F6
:1008A00029F081EE92E068EF0E94A307E881F981C8
:1008B000309709F009958A89863081F41A8A8E85E5
:1008C0009F85A889B9890196A11DB11D8E879F8733
:1008D000A88BB98B03C001979F8B8E8BDF91CF9133
:1008E0001F910F91FF90EF90089580EE91E090930B
:1008F00069028093680280E890E09093650280939B
:10090000640210926B0210926A02109262021092BC
:10091000630289E191E0909361028093600281E03B
:1009200080936C028DE692E060E070E00E948E01A0
:1009300089E892E060E070E00E948E010895EF92F5
:10094000FF920F931F9385EA92E00E9450057C016D
:1009500008EB12E0C8010E94E705C8016F2D0E9454
:10096000150686EA92E0B7010E9469051F910F9172
:10097000FF90EF9008951F920F920FB60F921124DF
:100980002F933F934F935F936F937F938F939F9397
:10099000AF93BF93EF93FF930E949F0480915E01FA
:1009A00090915F01019690935F0180935E01FF91AA
:1009B000EF91BF91AF919F918F917F916F915F91D7
:1009C0004F913F912F910F900FBE0F901F90189550
:1009D0001F920F920FB60F9211242F933F934F93B4
:1009E0005F936F937F938F939F93AF93BF93EF9397
:1009F000FF93809160019091610101969093610154
:100A0000809360018091DC019091DD01029721F4D7
:100A100087EB91E00E94C803FF91EF91BF91AF91E6
:100A20009F918F917F916F915F914F913F912F9106
:100A30000F900FBE0F901F90189580EE92E06BE024
:100A400071E00E94110708950E9475071C9A1D9A73
:100A500080E692E090938702809386020E941D05B3
:100A6000789481EE92E00E94A707882349F081EEF6
:100A700092E00E94B207682F8DE692E00E94F20198
:100A800088E293E00E941808882359F388E293E0F3
:100A90000E942308682F89E892E00E94F201E1CFCA
:100AA0009698969A20E030E040E0220F331F80B302
:100AB00090E065E0969587956A95E1F78170907072
:100AC000282B392B9798979A4F5F403171F7C901BE
:100AD0000895EF92FF920F931F93CF93DF93DC0162
:100AE000162F072FC8EBD2E0862F972F9C01B90154
:100AF00040E050E081E0E82EF12C9B0136952795EF
:100B0000217030708D919C911197969587958E25C7
:100B10009F258170907028173907D1F5888180FD55
:100B200012C08091CC0280FD07C0FA01EE0FFF1FBA
:100B3000EE0FFF1F359618C0FA013196EE0FFF1F1A
:100B4000EE0FFF1F11C08091CC0280FF07C0FA0199
:100B5000EE0FFF1FEE0FFF1F329606C0FA01EE0FD9
:100B6000FF1FEE0FFF1F3396EA0FFB1FCB018170B3
:100B700090708217930731F4808180344CF4808127
:100B80008F5F05C08081813C1CF080818150808313
:100B90008D919C911197969587959695879511962D
:100BA0009C938E934F5F5F4F25964430510529F0FB
:100BB0007695679576956795A0CF1C9311960C93C3
:100BC000DF91CF911F910F91FF90EF900895E8EB87
:100BD000F2E09081892F877C808380FF03C0826050
:100BE000808302C0957C9083359682E0E03EF807D2
:100BF00081F7089581B3806C81BB8D989598979A01
:100C0000969AE8EAF2E013821182128210823496F8
:100C100082E0E83BF807B9F71092A7021092A6020B
:100C200088EB92E00E94E7050895CF92DF92EF9261
:100C3000FF920F931F93CF93DF93C8EBD2E08C0109
:100C4000C62EDD24888160FF02C0816001C08E7FD6
:100C500088830E948B007C01988191FF19C090FDD0
:100C600017C0F801F282E18292FF0DC08381948166
:100C7000B7010E949400883C910550F488818860F7
:100C80008B7F888305C0F801F482E38294609883A7
:100C9000888180FD0FC082FF0DC0F801838194819F
:100CA000B7010E9494008152934020F088818062B5
:100CB0008B7F8883888185708530A1F4F8018381DA
:100CC0009481B7010E949400F3E081329F0718F0ED
:100CD00088818B7F06C0893C910520F088818B7FBD
:100CE0008061888325960B5F1F4F22E0C03ED207AC
:100CF00021F0D594C7946C2DA3CFDF91CF911F9194
:100D00000F91FF90EF90DF90CF9008953FB7F89448
:100D1000E2E6F0E02081862F90E044E0959587950B
:100D20004A95E1F78F70207F822B80831E9A1E9850
:100D30003FBF9FB7F894E2E6F0E080816F70807F5C
:100D4000862B80831E9A1E989FBF08951F931FB7FE
:100D5000F8941A9A0E9486061FBF82E390E00E94D0
:100D6000A2001F910895EF92FF921F93CF93DF93FC
:100D70007C01EB01142F05C0C7010E94A606219635
:100D8000115068816623C1F705C0C70160E20E9467
:100D9000A60611501123C9F7DF91CF911F91FF9043
:100DA000EF90089540E10E94B3060895EF92FF92FC
:100DB0001F93CF93DF937C01EB0110E068816623E2
:100DC00041F0103131F01F5FC7010E94A606219645
:100DD000F5CFDF91CF911F91FF90EF9008951F9372
:100DE0001FB7F8941A980E9486061FBF82E390E00E
:100DF0000E94A2001F91089560E80E94EF060895E6
:100E0000EF92FF920F931F938C017B010E94FC06CF
:100E1000C801B7010E94D2061F910F91FF90EF9079
:100E20000895EF92FF920F931F938C017B010E9414
:100E3000FC06C801B7010E94D6061F910F91FF90D2
:100E4000EF9008950F931F938C01E1E6F0E080810D
:100E50008F6080831092620082B1846482B99FB7F0
:100E6000F894E2E6F0E08081807F836080831E9AC0
:100E70001E989FBF9FB7F894E2E6F0E08081807FE4
:100E8000826080831E9A1E989FBF88EC90E00E942B
:100E9000A200C80168E20E94EF06C8016CE00E944F
:100EA000EF06C80164E00E94EF06C80161E00E94FD
:100EB000EF06C80162E00E94EF0685E090E00E9424
:100EC00023011F910F91089580EE92E00E94220766
:100ED00008959C01E199FECF3FBB2EBB6DBB0FB6C1
:100EE000F894E29AE19A0FBE089588E10FB6F8945B
:100EF00081BD11BC0FBEB89AC0988FEF84BB15BAE4
:100F000091E095BF80E885BF82B1806382B99FBDC3
:100F10008EB589608EBD8BE485BD87B7806487BF41
:100F200087B7846087BF0895F89484E090E060E01C
:100F300070E049E657E00E947600E0911301F091DD
:100F40001401099508955D9BFECF6CB90895FC01CD
:100F50009FB7F894218182819FBF90E0281391E090
:100F6000892F0895DC012FB7F89411969C91119761
:100F700012968C9112972FBF981711F420E010C091
:100F800011968C911197FD01E80FF11D23811196A7
:100F90008C91119790E001968F71907011968C93BF
:100FA000822F08951F920F920FB60F9211242F9344
:100FB0008F939F93EF93FF932FB7F894909105032E
:100FC000809106032FBF981749F12FB7F89490919D
:100FD0000503809106032FBF981711F480E006C027
:100FE000E0910503F0E0EF51FD4F86A18CB92FB7DA
:100FF000F89490910503809106032FBF981771F024
:10100000E0910503F0E0EF51FD4F86A180910503CB
:1010100090E001968F71907080930503FF91EF919E
:101020009F918F912F910F900FBE0F901F90189549
:10103000FC019FB7F894208181819FBF90E0281325
:1010400091E0892F0895DC012FB7F8949C911196B7
:101050008C9111972FBF981711F420E00BC08C9141
:10106000FD01E80FF11D22818C9190E001968F71B6
:1010700090708C93822F0895DC018FB7F8941196AD
:101080002C9111979C918FBF30E02F5F3F4F2F71B4
:101090003070921741F492968C9192978F5F92964E
:1010A0008C9380E0089511968C911197FD01E80FC3
:1010B000F11D628311968C91119790E001968F71CA
:1010C000907011968C9381E008951092E202109234
:1010D000E30210920403109205031092060310928B
:1010E00027031092E102109290002FE129B996E0B7
:1010F0009093950088E98AB9569A10922803109225
:10110000290310924A03109298002093990090931B
:101110009D0080E980939A0008951F920F920FB668
:101120000F9211242F933F934F935F936F937F936D
:101130008F939F93AF93BF93EF93FF9360919C0026
:10114000683F59F48091DE019091DF01039729F403
:1011500087EB91E00E94D00204C088E293E00E94F5
:101160003C08FF91EF91BF91AF919F918F917F913B
:101170006F915F914F913F912F910F900FBE0F9004
:101180001F9018951F920F920FB60F9211242F9354
:101190003F934F935F936F937F938F939F93AF93FF
:1011A000BF93EF93FF936CB1683F59F48091DE01D8
:1011B0009091DF01029729F487EB91E00E94D00221
:1011C00004C082EE92E00E943C08FF91EF91BF9133
:1011D000AF919F918F917F916F915F914F913F91CF
:1011E0002F910F900FBE0F901F901895D4D008F438
:1011F00081E008950CD00AC102D140F0F9D030F05E
:1012000021F45F3F19F0EBC0511134C1EEC00FD192
:1012100098F39923C9F35523B1F3951B550BBB27BD
:10122000AA2762177307840738F09F5F5F4F220F6A
:10123000331F441FAA1FA9F333D00E2E3AF0E0E863
:1012400030D091505040E695001CCAF729D0FE2FAF
:1012500027D0660F771F881FBB1F26173707480741
:10126000AB07B0E809F0BB0B802DBF01FF279358F7
:101270005F4F2AF09E3F510568F0B1C0FBC05F3F51
:10128000ECF3983EDCF3869577956795B795F795DF
:101290009F5FC9F7880F911D9695879597F90895D7
:1012A000E1E0660F771F881FBB1F62177307840773
:1012B000BA0720F0621B730B840BBA0BEE1F88F782
:1012C000E0950895BCD088F09F5790F0B92F9927EA
:1012D000B751A0F0D1F0660F771F881F991F1AF041
:1012E000BA95C9F712C0B13081F0C3D0B1E008950A
:1012F000C0C0672F782F8827B85F39F0B93FCCF38B
:10130000869577956795B395D9F73EF49095809536
:10131000709561957F4F8F4F9F4F0895E89409C056
:1013200097FB3EF490958095709561957F4F8F4F18
:101330009F4F9923A9F0F92F96E9BB279395F6952E
:10134000879577956795B795F111F8CFFAF4BB0FAC
:1013500011F460FF1BC06F5F7F4F8F4F9F4F16C010
:10136000882311F096E911C0772321F09EE8872F9A
:10137000762F05C0662371F096E8862F70E060E056
:101380002AF09A95660F771F881FDAF7880F9695CF
:10139000879597F90895990F0008550FAA0BE0E873
:1013A000FEEF16161706E807F907C0F01216130627
:1013B000E407F50798F0621B730B840B950B39F467
:1013C0000A2661F0232B242B252B21F408950A26CD
:1013D00009F4A140A6958FEF811D811D089597F90D
:1013E0009F6780E870E060E008959FEF80EC0895CB
:1013F00000240A94161617061806090608950024F4
:101400000A9412161306140605060895092E03946D
:10141000000C11F4882352F0BB0F40F4BF2B11F4E1
:1014200060FF04C06F5F7F4F8F4F9F4F089557FD40
:101430009058440F551F59F05F3F71F04795880F42
:1014400097FB991F61F09F3F79F0879508951216D9
:1014500013061406551FF2CF4695F1DF08C0161685
:1014600017061806991FF1CF869571056105089436
:101470000895E894BB2766277727CB0197F908954D
:101480008ADF08F48FEF08950BD0C0CFB1DF28F0CA
:10149000B6DF18F0952309F0A2CFA7CF1124EACF29
:1014A000C6DFA0F3959FD1F3950F50E0551F629FC3
:1014B000F001729FBB27F00DB11D639FAA27F00DAD
:1014C000B11DAA1F649F6627B00DA11D661F829FD4
:1014D0002227B00DA11D621F739FB00DA11D621FB9
:1014E000839FA00D611D221F749F3327A00D611DD6
:1014F000231F849F600D211D822F762F6A2F1124B8
:101500009F5750408AF0E1F088234AF0EE0FFF1F0A
:10151000BB1F661F771F881F91505040A9F79E3F41
:10152000510570F05CCFA6CF5F3FECF3983EDCF343
:10153000869577956795B795F795E7959F5FC1F77E
:10154000FE2B880F911D9695879597F90895629FB8
:10155000D001739FF001829FE00DF11D649FE00DAB
:10156000F11D929FF00D839FF00D749FF00D659F0C
:10157000F00D9927729FB00DE11DF91F639FB00D0B
:10158000E11DF91FBD01CF0111240895A1E21A2E1A
:10159000AA1BBB1BFD010DC0AA1FBB1FEE1FFF1F17
:1015A000A217B307E407F50720F0A21BB30BE40B67
:1015B000F50B661F771F881F991F1A9469F76095AE
:1015C0007095809590959B01AC01BD01CF01089568
:1015D000EE0FFF1F0590F491E02D0994F894FFCFD2
:1015E000424F4F544C4F414445520048554C4F00D8
:1015F000001341003800000000A701A3018D01B1D4
:101600000180010000009001000000A00100000026
:10161000B001000000C002000000D002000000E0A5
:1016200001000000F102000000F201000000F302DE
:0E163000000000F600000000000400000000B2
:00000001FF
