:100000000C9452000C947F000C947F000C947F00A1
:100010000C947F000C947F000C947F000C947F0064
:100020000C947F000C947F000C94CB240C947F00E4
:100030000C947F000C947F000C941C230C947F0084
:100040000C947F000C947F000C9497290C947F00F3
:100050000C948A280C947F000C947F000C947F00F1
:100060000C947F000C947F000C947F000C947F0014
:100070000C947F000C947F000C9462290C947F00F8
:100080000C947F000C947F000C947F002020202093
:10009000000086148519591C0220312296228026E0
:1000A000AA27592911241FBECFEFD0E1DEBFCDBF53
:1000B000B89AC09885B7806885BF12E0A0E0B1E02B
:1000C000E2E5F8E502C005900D92A233B107D9F739
:1000D00016E4A0E0B0E201C01D92A038B107E1F73C
:1000E00010E0C4EAD0E004C02297FE010E94232C55
:1000F000C239D107C9F70E9472250C94272C0C94A1
:100100000000FB01DC0102C001900D924150504003
:10011000D8F70895DC0101C06D9341505040E0F7DD
:100120000895FC018191861721F08823D9F799273A
:1001300008953197CF010895FB01DC018D91019065
:1001400080190110D9F3990B0895FB01DC0141508E
:10015000504030F08D910190801919F40020B9F7CA
:10016000881B990B0895FB01DC014150504048F079
:1001700001900D920020C9F701C01D9241505040DE
:10018000E0F70895FC0181E090E00190061609F483
:10019000CF010020D1F701970895DF92EF92FF92EF
:1001A0000F931F93D72E7A018C01FA010995C8018C
:1001B00001966D2DF70109951F910F91FF90EF901A
:1001C000DF900895FC01009711F0118210820895CC
:1001D0000F931F93DF93CF9300D000D000D0CDB703
:1001E000DEB7DC01009709F488C042305105610593
:1001F000710508F482C0ED91FC91119780851696E7
:100200000D911D912D913C9119970190F081E02D58
:100210008B30D9F592E0440F551F661F771F9A95D2
:10022000D1F7040F151F261F371FC901B801AE01F2
:100230004D5F5F4F24E030E00995882309F45DC0ED
:100240002B813C814D815E81211531054105510590
:1002500009F457C0273F8FEF38078FEF48078FE02B
:10026000580709F44AC0DA01C901805F9F4FAF4FB8
:10027000BF400797A105B10508F43FC0DA01C901E5
:10028000885F9F4FAF4FBF4034C0440F551F661F5C
:10029000771F040F151F261F371FC901B801AE01B4
:1002A0004F5F5F4F22E030E00995882331F189816B
:1002B0009A819C0140E050E021153105410551052E
:1002C00001F1273F8FEF380780E0480780E05807AB
:1002D000A1F0DA01C901805F9F4FA040B0400797AD
:1002E000A105B10550F0DA01C901885F9F4FA04018
:1002F000B0400897A105B10520F420E030E040E0CF
:1003000050E0B901CA0126960FB6F894DEBF0FBEC1
:10031000CDBFCF91DF911F910F9108952F923F9202
:100320004F925F926F927F928F929F92AF92BF9205
:10033000CF92DF92EF92FF920F931F93DF93CF93B1
:1003400000D000D000D0CDB7DEB74C01009709F443
:10035000B2C0423051056105710508F4ACC0DC0142
:1003600016964D905D906D907C901997ED91FC9153
:1003700080858B3009F05CC0E3E02E2E312C2C0EF2
:100380003D1E5A016B0132E0AA0CBB1CCC1CDD1CCB
:100390003A95D1F7A40CB51CC61CD71CD401ED911D
:1003A000FC910190F081E02DC601B501A10124E08E
:1003B00030E00995882309F47EC0EB80FC800D8134
:1003C0001E81E114F1040105110509F476C0D8017C
:1003D000C701805F9F4FAF4FBF400897A105B10590
:1003E00008F469C0D801C701885F9F4FAF4FBF4075
:1003F0000897A105B10518F4EE24FF2487011B829C
:100400001C821D821E82D401ED91FC910480F58135
:10041000E02DC601B501A10124E030E00995B80145
:10042000A701E114F1040105110509F0AACF45C0A7
:100430005E010894A11CB11C7A018B01EE0CFF1C1B
:10044000001F111FE40CF51C061D171DD401ED91B2
:10045000FC910190F081E02DC801B701A50122E0D7
:1004600030E00995882339F1C980DA80C114D104BC
:1004700021F1C60140960897F0F0B8EFCB16BFEF18
:10048000DB0610F0CC24DD241A821982D401ED9110
:10049000FC910480F581E02DC801B701A50122E09F
:1004A00030E00995A60160E070E041155105610555
:1004B000710511F602C080E001C081E026960FB6FA
:1004C000F894DEBF0FBECDBFCF91DF911F910F918A
:1004D000FF90EF90DF90CF90BF90AF909F908F9064
:1004E0007F906F905F904F903F902F9008952F9244
:1004F0003F924F925F926F927F928F929F92AF92B4
:10050000BF92CF92DF92EF92FF920F931F93DF93F0
:10051000CF93CDB7DEB76D970FB6F894DEBF0FBEA1
:10052000CDBF9D8F8C8F3A014B01B901009709F423
:1005300044C1DC01ED91FC911197208131813B8F09
:100540002A8F44815581598F488F1696AD90BD9062
:10055000CD90DC9019971F8680858B3011F451E087
:100560005F87EC8DFD8D82859385A485B585FF859C
:10057000FF2351F09C01AD0192E0569547953795C8
:1005800027959A95D1F706C09C01AD0156954795E0
:1005900037952795288B398B4A8B5B8BD601C50104
:1005A0000896A11DB11D8B879C87AD87BE87A601CC
:1005B00095012C5F3F4F4F4F5F4F2F8338874987FF
:1005C0005A87C801DB018C8B9D8BAE8BBF8BEE24D1
:1005D000FF248701B2E02B2E312C412C512C9AC0E4
:1005E0003F85332381F06B857C858D859E85AE01AB
:1005F0004D5F5F4F24E030E0AA8DBB8DFD01099572
:100600008823B1F4DAC06F81788589859A85AE0137
:100610004F5F5F4F22E030E0EA8DFB8D0995882324
:1006200009F4CBC089819A81892B09F057C025C074
:100630008B819C81AD81BE810097A105B10509F038
:100640004DC0E114F1040105110549F42FEF3FEF0E
:100650004FEF5FE02B833C834D835E8304C0EB82CE
:10066000FC820D831E836B857C858D859E85AE0106
:100670004D5F5F4F24E030E015C0E114F104010547
:10068000110529F4EFEFFFEFFA83E98302C0FA8244
:10069000E9826F81788589859A85AE014F5F5F4FCA
:1006A00022E030E0A88DB98DFD0109958823E1F1A4
:1006B0002C893D894E895F8921503040404050400F
:1006C0002C8B3D8B4E8B5F8B2115310541055105E0
:1006D00019F48201710131C0820171010894211C59
:1006E000311C411C511C8B859C85AD85BE850496B3
:1006F000A11DB11D8B879C87AD87BE872F81388553
:1007000049855A852E5F3F4F4F4F5F4F2F83388764
:1007100049875A8788899989AA89BB892816390601
:100720004A065B0608F45CCF2C893D894E895F89B7
:100730002115310541055105D1F532E063167104EB
:1007400081049104E8F14F854423D9F0EB82FC82C7
:100750000D831E83A2E0660C771C881C991CAA9549
:10076000D1F7A60CB71CC81CD91CC601B501AE0137
:100770004D5F5F4F24E030E0A88DB98DFD010995F4
:1007800014C0FA82E982660C771C881C991CA60C9E
:10079000B71CC81CD91CC601B501AE014F5F5F4F25
:1007A00022E030E0E88DF98D0995882349F48C8D9D
:1007B0009D8DB801A7010E948E01EE24FF248701C0
:1007C000B701C8016D960FB6F894DEBF0FBECDBF5E
:1007D000CF91DF911F910F91FF90EF90DF90CF901D
:1007E000BF90AF909F908F907F906F905F904F9051
:1007F0003F902F90089580E190E00895FC010097CC
:1008000011F01182108208952F923F924F925F92C1
:100810006F927F928F929F92AF92BF92CF92DF9210
:10082000EF92FF920F931F93DF93CF93CDB7DEB775
:100830002C970FB6F894DEBF0FBECDBF9C838B8381
:100840007E836D8358874F83009709F422C1672BFD
:1008500009F41FC1452B09F41CC1DC019F966D9062
:100860007D908D909C90D29797962D913D914D9132
:100870005C919A97EF81F885CF01A0E0B0E0860DFA
:10088000971DA81DB91D281739074A075B0740F4B3
:10089000B9016619770978876F83672B09F4FCC063
:1008A000AB81BC81ED91FC911197208931893A830C
:1008B0002983D396AD90BD90CD90DC90D697A114AE
:1008C000B104C104D10409F047C09396AD90BD9026
:1008D000CD90DC909697A114B104C104D10439F4F1
:1008E000611471048104910409F4D6C0D2C061146A
:1008F00071048104910481F18401730169817A8119
:100900001B014424552488279927DC018219930967
:10091000A409B50989879A87AB87BC8718C0AB81C2
:10092000BC818D919C91B601A5010E94E8005B01FC
:100930006C01611571058105910509F4AAC06985ED
:100940007A858B859C85E60EF71E081F191FE21419
:10095000F3040405150518F789819A8101974C0164
:100960008620972001969A838983EF80F884AB8153
:10097000BC816D907C9061147104F9F0B2E0AB160B
:10098000B104C104D104C8F0C601B5016250704081
:1009900080409040F3012089318940E050E00E947E
:1009A000B92B9B01AC01F30182899389A489B58994
:1009B000280F391F4A1F5B1F04C020E030E040E0D1
:1009C00050E009811A8108191909E016F10608F4A6
:1009D0008701D301ED91FC91C401A0E0B0E0280FA4
:1009E000391F4A1F5B1F0190F081E02DCA01B90138
:1009F0004D815E8198010995882389F1E01AF10AF9
:100A0000C801A0E0B0E0EB81FC8127A530A941A995
:100A100052A9280F391F4A1F5B1FDF0127A730ABE0
:100A200041AB52ABC801880D991DE981FA818E173F
:100A30009F07E0F08D919C91B601A5010E94E8000E
:100A40005B016C01611571058105910569F4AB814C
:100A5000BC81D3961D921D921D921C92D6974F81F8
:100A600058854E195F091AC088249924EB81FC81AE
:100A7000A3AAB4AAC5AAD6AAE114F10439F02D811B
:100A80003E81200F311F3E832D8371CF4F815885CA
:100A900005C04FEF5FEF02C040E050E0CA012C9666
:100AA0000FB6F894DEBF0FBECDBFCF91DF911F917F
:100AB0000F91FF90EF90DF90CF90BF90AF909F90FD
:100AC0008F907F906F905F904F903F902F90089500
:100AD000FC01009711F0118210820895FC0100972B
:100AE00011F480E0089583A194A1A5A1B6A187A7E0
:100AF00090ABA1ABB2AB14AA13AA81E00895CF9238
:100B0000DF92EF92FF920F931F93CF93DF938C01AD
:100B10006A017B01B901D901CD91DC91119712963F
:100B20008D919C911397809613969C938E93129718
:100B3000F8018081853E09F4B9C0882309F4B6C064
:100B400089A59AA5ABA5BCA50097A105B10521F47F
:100B5000C9A6DAA6EBA6FCA6209709F4A9C0011540
:100B6000110509F4A5C0D8019C91992309F4A0C0EE
:100B70001B968C918F3029F5892F90E08F739070A0
:100B80002DE030E0829FA001839F500D929F500D79
:100B900011244D505040ADE6B1E0C40FD51F0DC03B
:100BA0008D91F801E80FF11D808189934F5F5F4FB0
:100BB000E1E0AA37BE0709F479C04F31510580F34F
:100BC00075C08881882309F04EC0A801DE01780134
:100BD00020E0F70190819032A1F09C93F801848588
:100BE00083FF08C0F7018081813420F08B3510F439
:100BF000905E9C932F5F0894E11CF11C11962830A5
:100C000041F78881853011F485EE8883D8011896E4
:100C10008C91803221F1FE01E20FF11D8EE2808382
:100C2000322F3F5F2C5FFA0190859032B9F0FE01C0
:100C3000E30FF11D9083D8011C968C9184FF09C0AD
:100C4000DA0118968C91813420F08B3510F4905E87
:100C500090833F5F4F5F5F4F321729F7232FFE01CD
:100C6000E20FF11D1082F801838588A3228D338D58
:100C700040E050E084899589A0E0B0E0DC0199274C
:100C80008827822B932BA42BB52B89A39AA3ABA3E4
:100C9000BCA3848D958DA68DB78D8DA39EA3AFA388
:100CA000B8A781E0DB0114968C9302C081E001C0FB
:100CB00080E0DF91CF911F910F91FF90EF90DF9037
:100CC000CF900895CF92DF92EF92FF920F931F93F0
:100CD000DF93CF93CDB7DEB760970FB6F894DEBF42
:100CE0000FBECDBF8C01CB01BA0162307105810509
:100CF000910510F480E036C00115110529F440E09B
:100D000050E060E070E016C062507040804090405B
:100D1000F8012089318940E050E00E94B92BAB01F5
:100D2000BC01F80182899389A489B589480F591FAC
:100D30006A1F7B1FDE01119680E1FD0111928A95E9
:100D4000E9F7F8018081918120893189FC01C68011
:100D5000D780CB01BA01AD010BEF13E0EE24FF24E5
:100D6000F601099560960FB6F894DEBF0FBECDBFB1
:100D7000CF91DF911F910F91FF90EF90DF90CF9077
:100D800008952F923F924F925F926F927F928F922F
:100D90009F92AF92BF92CF92DF92EF92FF920F930A
:100DA0001F93DF93CF93CDB7DEB7A9970FB6F89413
:100DB000DEBF0FBECDBF1C0179A768A7009709F45D
:100DC000D7C06115710509F4D3C0DC016D907C902A
:100DD0001197F3010088F189E02DFFA3EEA39F9600
:100DE0008D909D90AD90BC90D297D3964D905C9095
:100DF000D4978DE2DB011D928A95E9F7FE013196C9
:100E000085E0DF011D928A95E9F781149104A10420
:100E1000B10409F093C0D301ED91FC911197808545
:100E20008B3039F45A968D909D90AD90BC905D9723
:100E300085C0F3010288F389E02DD30156968D9188
:100E40009C915797E81BF90BFFA3EEA377C07201A3
:100E500000E010E081149104A104B10431F4F30125
:100E600066897789808D918D2AC06114710409F19A
:100E7000F2E08F169104A104B104D8F0C501B401C9
:100E80006250704080409040D30150962D913C912B
:100E9000519740E050E00E94B92B9B01AC01F30157
:100EA00082899389A489B589280F391F4A1F5B1F3E
:100EB00004C020E030E040E050E0CA01B9016E0D0E
:100EC0007F1D801F911F1C821B82D301ED91FC911D
:100ED0000EA11FA1041915090280F381E02DAE01B6
:100EE0004A5F5F4F20E230E0AFE7EA2EA5E0FA2E3E
:100EF0006E010894C11CD11C09958823C9F18B810E
:100F00009C81480E591EEEA1FFA14E165F06D0F03F
:100F1000C301B501A4010E94E8004B015C01442417
:100F20005524611571058105910561F4D1019396F0
:100F30008D909D90AD90BC90969708C0E8A5F9A5BE
:100F4000FA83E9838D81882309F481CFD1019F96AB
:100F50008D929D92AD92BC92D297D4965C924E9215
:100F6000D397E8A5F9A58081882319F081E001C015
:100F700080E0A9960FB6F894DEBF0FBECDBFCF912B
:100F8000DF911F910F91FF90EF90DF90CF90BF9076
:100F9000AF909F908F907F906F905F904F903F9019
:100FA0002F9008952F923F924F925F926F927F926F
:100FB0008F929F92AF92BF92CF92DF92EF92FF9269
:100FC0000F931F93DF93CF93CDB7DEB7EE970FB696
:100FD000F894DEBF0FBECDBF9EAF8DAF009709F472
:100FE000AFC1DC0114968D919C911597892B09F462
:100FF000A7C116968D919C911797892B09F4A0C1D2
:10100000BBC1EFE6F3E48EE1DF011D928A95E9F7BB
:10101000EDADFEADF0937043E0936F4321843284D5
:101020004384548459E0220C331C441C551C5A95AB
:10103000D1F7C201B101655F7F4F8F4F9F4F019084
:10104000F081E02DAE014F5F5F4F25E230E0099562
:10105000882309F498C1E981FA81FBABEAAB2C81C2
:101060003D81FB81FCAB4E81EF80F884FEAAEDAAA6
:10107000E985FA850C851D8518AF0FAB6E887F88D2
:10108000888C998C6A8D7B8D8C8D9D8DEAA0FBA0C0
:101090000CA11DA1E9AEFAAE0BAF1CAF6114710437
:1010A0008104910431F4309709F46DC13F01882423
:1010B00099240FA918AD0115110521F0B80180E0A0
:1010C00090E006C0611571058105910509F45BC1C9
:1010D000790100E010E0EEA2FFA208A719A7042FF3
:1010E00010E020E030E00AA71BA72CA73DA7A9012C
:1010F00098010E94B92B6EA77FA788AB99AB84019A
:1011000073012EA13FA148A559A5E21AF30A040BC9
:10111000150BE61AF70A080B190B8AA99BA9019768
:101120002DA93EA945E0220F331F4A95E1F7820F12
:10113000931F6AA97BA90E94D82B80E090E0E61A51
:10114000F70A080B190B8CA9282F30E040E050E07B
:10115000C801B7010E94FF2B79018A0195EFE916BA
:101160009FE0F90690E0090790E0190708F40BC129
:10117000A5EFEA16AFEFFA06A0E00A07A0E01A070B
:1011800028F486E0EDADFEAD808705C08BE0ADAD07
:10119000BEAD18968C938CE1E1E7F3E4DF011D927C
:1011A0008A95E9F7EAA9FBA95F01CC24DD24C401F3
:1011B000B301A60195010E94B92B6093714370930E
:1011C00072438093734390937443C601B5012EA17B
:1011D0003FA148A559A50E94B92B260E371E481ECF
:1011E000591E209275433092764340927743509235
:1011F0007843ADADBEAD18968C91863029F064E091
:1012000070E080E090E004C062E070E080E090E098
:1012100022E030E040E050E0E20EF31E041F151F14
:10122000A80197010E94B92B6093794370937A4388
:1012300080937B4390937C434AA95BA950937E4360
:1012400040937D435CA9852F90E0DC01EAA9FBA9CE
:10125000AE9FC001AF9F900DBE9F900D1124909343
:10126000804380937F43ADADBEAD18968C918630A0
:10127000E1F5EFA9F8AD9F0140E050E0C601B501EE
:101280000E94B92B2AA53BA54CA55DA50E94B92BB0
:101290002091754330917643409177435091784344
:1012A000620F731F841F951F60938543709386435D
:1012B0008093874390938843EDA8FEA8970140E070
:1012C00050E0B5E0220F331F441F551FBA95D1F7E8
:1012D000620F731F841F951F609381437093824335
:1012E000809383439093844328C06EA57FA588A9EB
:1012F00099A9A60195010E94B92B209175433091BF
:1013000076434091774350917843260F371F481F0B
:10131000591F2093814330938243409383435093DA
:10132000844309AD1AAD2BAD3CAD009389431093B6
:101330008A4320938B4330938C432FE633E402C0DF
:1013400020E030E0C901EE960FB6F894DEBF0FBE84
:10135000CDBFCF91DF911F910F91FF90EF90DF9064
:10136000CF90BF90AF909F908F907F906F905F9045
:101370004F903F902F90089580916F4390917043CC
:10138000892BF1F63ECE1092704310926F43D8CF66
:101390002F923F924F925F926F927F928F929F9285
:1013A000AF92BF92CF92DF92EF92FF920F931F9373
:1013B000DF93CF9300D000D00F92CDB7DEB79D83DF
:1013C0008C839B01892B09F4F9C04115510509F45F
:1013D000F5C0DA010D900020E9F7A41BB50BCD0193
:1013E0000B966DE070E00E94D82B862F8F5F8B8369
:1013F000D90193962D903D904D905C909697AC813D
:10140000BD81ED91FC91808521143104410451048A
:1014100041F48B3081F4EC81FD81228C338C448C3F
:10142000558CAA24BB246501EE24FF248701662481
:101430007724430110C0AC81BD815696ED90FD909C
:101440000D911C91599752966D907D908D909C9026
:101450005597570168011A82E614F7040805190523
:1014600009F07EC0211431044104510409F4A6C0DE
:10147000E114F10401051105E9F18C819D81B201AE
:10148000A1010E94E800611571058105910581F5B2
:101490008C819D81B201A10101E010E020E030E0EB
:1014A0000E9477027B018C01611571058105910510
:1014B00009F484C06250704080409040EC81FD810E
:1014C0002089318940E050E00E94B92B5B016C011A
:1014D000EC81FD8182899389A489B589A80EB91E02
:1014E000CA1EDB1ECF01B801A7010E94620669C0B7
:1014F0001B012C01F2E02F1631044104510420F4A9
:10150000EE24FF2487011CC0C201B101625070406B
:1015100080409040AC81BD8150962D913C91519777
:1015200040E050E00E94B92B7B018C01EC81FD81F1
:1015300082899389A489B589E80EF91E0A1F1B1FA9
:10154000AC81BD8150968D919C9151973C0188242E
:1015500099246E0C7F1C801E911E570168011A820F
:10156000AC81BD81ED91FC910190F081E02DC8012D
:10157000B701AE014F5F5F4F21E030E0099588234E
:10158000E9F08981853E11F0882379F4BA81BF5F43
:10159000BA83EB81BE17A8F480E290E0A0E0B0E04F
:1015A000E80EF91E0A1F1B1F57CF80E290E0A0E053
:1015B000B0E0E80EF91E0A1F1B1F4BCFAA24BB2464
:1015C0006501B501C6010F900F900F900F900F901D
:1015D000CF91DF911F910F91FF90EF90DF90CF900F
:1015E000BF90AF909F908F907F906F905F904F9043
:1015F0003F902F9008953F924F925F926F927F920B
:101600008F929F92AF92BF92CF92DF92EF92FF9212
:101610000F931F93DF93CF93CDB7DEB7A0970FB68D
:10162000F894DEBF0FBECDBFFC018B01009709F41B
:1016300025C16115710509F421C10190F081E02DEA
:1016400044805580DB019996AD90BD90CD90DC90A3
:101650009C97E62E912EFB0101900020E9F731972F
:10166000FE2EF61A8F2D90E00C966DE070E00E9431
:10167000EC2B762ECE01019660E270E04BE050E05C
:101680000E948A00C8016EE270E00E94C200FC0164
:101690000097E1F09C012F5F3F4F81818823B1F0DB
:1016A000D9010D900020E9F71197A21BB30B8A2FE7
:1016B0008095F80EBE01675F7F4F4A2FA43008F077
:1016C00043E0CB01B90150E00E948100CE010196B8
:1016D000B8E0BF1588F06E2D792D4F2D50E00E9497
:1016E0008100F80180818E3231F581818E3209F4DA
:1016F00082818823F9F01FC0DC018E2D992D9C0179
:10170000F90188E001900D928150E1F7D80191969E
:101710008C91982F92959F70803A10F4905D01C043
:101720009F598F708A3010F4805D01C08F599F835C
:10173000888701C077248981853E11F485E08983FB
:10174000ACE08A2E912C8C0E9D1E85E1F401119245
:101750008A95E9F7D80190968C9190978C8791960D
:101760002D913D914D915C919497CA01AA27BB2779
:101770009E8B8D8B3C8F2B8FF80185A196A1A7A105
:10178000B0A58D8F9E8FAF8FB8A3672D70E0E5E079
:10179000660F771FEA95E1F780E090E06A0D7B1D08
:1017A0008C1D9D1DAE014F5F5F4F20E230E0F201C6
:1017B0000995882309F462C0E980FE0132969401FC
:1017C0008E2D8695E794EE24E794E82A8191E80E21
:1017D000E217F307A9F7F72C4E010894811C911C1E
:1017E0007DE0372E6FE0662E44C0C4016FEF70E0DD
:1017F00040E250E00E948A00F39CD00111241D9722
:10180000A00FB11F91E0F401E90FF11D8C918083CD
:10181000892F8F5FF401E80FF11D10829E5F9B30CE
:1018200019F09A3121F402C09EE001C09CE18C9134
:10183000882321F09F3110F41196E5CFF982F71437
:1018400019F48F2D806489836C86EE861D861B8E2D
:101850001C8EC601B501A40120E230E0F201099519
:1018600080E290E0A0E0B0E0A80EB91ECA1EDB1E28
:10187000FA94FF2009F0B9CF81E001C080E0A09682
:101880000FB6F894DEBF0FBECDBFCF91DF911F9191
:101890000F91FF90EF90DF90CF90BF90AF909F900F
:1018A0008F907F906F905F904F903F9008955F92E0
:1018B0006F927F928F929F92AF92BF92CF92DF9260
:1018C000EF92FF920F931F93CF93DF935C014B0135
:1018D000EA01009709F4B2C06115710509F4AEC0C0
:1018E000FB018081882309F4A9C041155105A1F4A9
:1018F000A5C0C401662D752D0E949C00009771F44F
:10190000F50183A194A1A5A1B6A187A790ABA1AB36
:10191000B2AB14AA13AA92C0642E5D2EC501BE01FB
:101920000E94C106882329F7F501C080D180C60135
:1019300040E050E060E070E001E010E020E030E0E6
:101940000E9477027B018C0161157105810591056B
:1019500009F474C0C601B801A7010E9462068DE2B5
:10196000FE0111928A95E9F780E188A3C801B701C9
:101970006250704080409040F6012089318940E0FB
:1019800050E00E94B92BF601228933894489558998
:10199000260F371F481F591F29A73AA74BA75CA737
:1019A000BEE27B2E7882E9A2FAA20BA31CA3C60199
:1019B000BE010E94FB0A8823E1F189A59AA5ABA587
:1019C000BCA58096A11DB11D89A79AA7ABA7BCA7EE
:1019D0007982F50183A194A1A5A1B6A189A39AA3B7
:1019E000ABA3BCA3C601BE010E94FB0A882309F178
:1019F000862D952DB4014FE150E00E94B300E9A27D
:101A0000FAA20BA31CA3C601B501AE010E94C8092E
:101A100069A77AA78BA79CA7611571058105910518
:101A200041F0C601BE010E94FB0A882311F081E04B
:101A300006C0C601B801A7010E948E0180E0DF91B7
:101A4000CF911F910F91FF90EF90DF90CF90BF90BB
:101A5000AF909F908F907F906F905F900895AF921E
:101A6000BF92CF92DF92EF92FF920F931F93CF938B
:101A7000DF938C017B01EA01009709F44DC06115E9
:101A8000710509F449C0FB018081882309F444C031
:101A90004115510509F440C0B42EAD2EC801BE0158
:101AA0000E94C106882399F0C7016B2D7A2D0E94F0
:101AB0009C00009799F7F80183A194A1A5A1B6A174
:101AC00087A790ABA1ABB2AB14AA13AA25C0F801AB
:101AD000C080D1808DE2FE0111928A95E9F78B2DAD
:101AE0009A2DB7014FE150E00E94B300C601B80142
:101AF000AE010E94C80969A77AA78BA79CA76115A8
:101B000071058105910541F0C601BE010E94FB0AE5
:101B1000882319F081E001C080E0DF91CF911F910F
:101B20000F91FF90EF90DF90CF90BF90AF9008950E
:101B30002F923F924F925F926F927F928F929F92DD
:101B4000AF92BF92CF92DF92EF92FF920F931F93CB
:101B5000DF93CF93CDB7DEB728970FB6F894DEBFEB
:101B60000FBECDBF98878F837C836B835E834D834D
:101B7000009709F47DC1672B09F47AC1452B09F45C
:101B800077C1DC019F966D907D908D909C90D2974F
:101B9000FC0187A190A5A1A5B2A586159705A8056A
:101BA000B90508F465C10190F081E02D20893189E3
:101BB0003A832983AF81B885D396ED90FD900D913E
:101BC0001C91D697E114F1040105110509F073C0C9
:101BD0009396ED90FD900D911C919697E114F10470
:101BE00001051105F9F4611471048104910409F0EF
:101BF0003FC1CF0140E050E060E070E001E010E064
:101C000020E030E00E9477027B018C01EF81F885B3
:101C100063A374A385A396A361157105810591053E
:101C200009F426C1AF81B8859F96AD90BD90CD9047
:101C3000DC90D297A114B104C104D10491F53BC04A
:101C4000A218B308C408D508EF81F8858081918176
:101C5000B801A7010E94E800611571058105910591
:101C600019F07B018C0122C0A114B104C104D1047C
:101C700009F0FEC0AF81B8858D919C91B801A70194
:101C800001E010E020E030E00E947702AB01BC01EF
:101C9000411551056105710509F4EAC07A018B010E
:101CA00005C0E981FA811F0144245524A214B3041C
:101CB000C404D50428F629813A812150304062229B
:101CC00073222F5F3F4F3A8329838D809E80AF819F
:101CD000B885AD90BC90A114B104F9F0B2E0EB1658
:101CE000F10401051105C8F0C801B7016250704048
:101CF00080409040F5012089318940E050E00E9409
:101D0000B92B9B01AC01F50182899389A489B5891E
:101D1000280F391F4A1F5B1F04C020E030E040E05D
:101D200050E0C980DA80C618D7088C149D0408F4E6
:101D30006401D501ED91FC91C301A0E0B0E0280F52
:101D4000391F4A1F5B1F0480F581E02DCA01B901CC
:101D50004B815C8196010995882309F45DC08C183C
:101D60009D08C601A0E0B0E0EF81F88527A530A965
:101D700041A952A9280F391F4A1F5B1FDF0127A75E
:101D800030AB41AB52ABC601860D971DE981FA819C
:101D90008E179F0778F18D919C91B801A7010E9441
:101DA000E800611571058105910519F07B018C0131
:101DB0001FC08114910499F0AF81B8858D919C91D9
:101DC000B801A70101E010E020E030E00E947702B6
:101DD000AB01BC01411551056105710539F4EF8175
:101DE000F88513AA14AA15AA16AA16C07A018B019F
:101DF00066247724AF81B885D396ED92FD920D933A
:101E00001C93D6978114910439F0EB81FC81EC0D81
:101E1000FD1DFC83EB835BCFEF81F88587A590A93F
:101E2000A1A9B2A9E7A0F0A401A512A5E816F90698
:101E30000A071B07C0F487A390A7A1A7B2A78191A7
:101E40009191BF010E94FB0A882369F4AF81B88594
:101E50009F968D909C90D0978E189F08FD01E7A6C5
:101E6000F0AA01AB12AB4D815E814819590902C03D
:101E70004FEF5FEFCA0128960FB6F894DEBF0FBE92
:101E8000CDBFCF91DF911F910F91FF90EF90DF9029
:101E9000CF90BF90AF909F908F907F906F905F900A
:101EA0004F903F902F900895CF93DF93AC01DB01CB
:101EB0000097A9F16115710591F190968C91909719
:101EC00084FF2DC08091054390910643892B19F41E
:101ED000E5E0F3E408C080913A4390913B43892BBD
:101EE000F1F4EAE3F3E49F012E5F3F4FBD018DE281
:101EF000EB010990BE01E90109929E018150C1F7F1
:101F00005183408391968D919D910D90BC91A02D10
:101F100087A790ABA1ABB2AB14AA13AA02C0E0E0B2
:101F2000F0E0CF01DF91CF910895CF93DF93AC0123
:101F30009B01009709F443C06115710509F43FC086
:101F4000EB0188A184FD3BC080918D4390918E432D
:101F5000892B19F4EDE8F3E41AC08091C443909101
:101F6000C543892B19F4E4ECF3E411C08091FB43E1
:101F70009091FC43892B19F4EBEFF3E408C08091B6
:101F8000324490913344892BD1F4E2E3F4E4EF013D
:101F90002296D9018DE20D9009928150E1F751838B
:101FA000408317A610AA11AA12AAE90189A19AA131
:101FB000ABA1BCA183AB94ABA5ABB6AB02C0E0E0D8
:101FC000F0E0CF01DF91CF9108956F927F928F92D1
:101FD0009F92AF92BF92CF92DF92EF92FF920F93B8
:101FE0001F93CF93DF934C01EB017A01009709F423
:101FF00067C06115710509F463C08881882309F4FD
:102000005FC04115510509F45BC08F3209F4219678
:102010008DE2F70111928A95E9F780E1F70180A33B
:10202000370101C0E5018881882309F44BC0C40150
:10203000B7010E94540F6C01009709F441C0CE0112
:102040006FE270E00E949100009739F0482F4C1B1E
:102050005C010894A11CB11C2AC0FE010190002063
:10206000E9F731974E2F4C1B5E01A40EB11C1FC027
:10207000F30101900020E9F73197E619F709E0171D
:10208000F107B9F4CE01B301A8010E94A5000097A1
:1020900081F4F601118210820C0F1D1FF80180815E
:1020A000882381F0F70180A184FDBCCF09C0042FF3
:1020B00010E0C601B7010E94C1068823C9F612C00C
:1020C00080E001C081E0DF91CF911F910F91FF90DF
:1020D000EF90DF90CF90BF90AF909F908F907F90C8
:1020E0006F900895F601118210829DCFFC01009738
:1020F00011F480E00895108681E008958F929F92F8
:10210000AF92BF92CF92DF92EF92FF920F93DF9345
:10211000CF93CDB7DEB760970FB6F894DEBF0FBE92
:10212000CDBF7C016B015A014901009709F493C0AE
:102130006115710509F48FC004300CF08CC007FDE7
:102140001DC0602F772767FD7095E4E0660F771F4D
:10215000EA95E1F762547E4F882777FD8095982FA6
:10216000AE014F5F5F4F20E130E0F7010995882312
:1021700009F471C08D81882309F46DC08091714488
:10218000882309F068C07CC08D81809371442A85C2
:1021900030E040E050E0542F432F322F22278B8530
:1021A00090E0A0E0B0E0DC0199278827282B392BAC
:1021B0004A2B5B2B898590E0A0E0B0E0282B392BDF
:1021C0004A2B5B2B8C8590E0A0E0B0E0B82FAA27CB
:1021D00099278827282B392B4A2B5B2B2093724475
:1021E0003093734440937444509375442E8530E08B
:1021F00040E050E0542F432F322F22278F8590E06C
:10220000A0E0B0E0DC0199278827282B392B4A2B46
:102210005B2B8D8590E0A0E0B0E0282B392B4A2B7A
:102220005B2B888990E0A0E0B0E0B82FAA2799271F
:102230008827282B392B4A2B5B2B2093764430930D
:102240007744409378445093794403C08FEF809350
:1022500071449F0102C020E030E0C90160960FB6D2
:10226000F894DEBF0FBECDBFCF91DF910F91FF90ED
:10227000EF90DF90CF90BF90AF909F908F90089598
:10228000E9E6F4E481E1DF011D928A95E9F7F09235
:102290006A44E0926944D0926C44C0926B44B0921C
:1022A0006E44A0926D449092704480926F4407FFF8
:1022B0006BCFCCCF282F8FEF8FB9779BFECF77983E
:1022C0008FB1822F80648FB9779BFECF7798872F4D
:1022D0009927AA27BB278FB9779BFECF7798CB0189
:1022E000AA27BB278FB9779BFECF7798BB27A72F4D
:1022F000962F852F8FB9779BFECF77984FB9779B15
:10230000FECF7798222319F0283059F405C085E9CB
:102310008FB9779BFECF09C087E88FB9779BFECF37
:1023200004C08FEF8FB9779BFECF779890E02FEFA7
:102330002FB9779BFECF77988FB18F3F19F49F5FAE
:102340009A30B1F708952F923F924F925F926F9219
:102350007F928F929F92AF92BF92CF92DF92EF9235
:10236000FF920F931F93CF93DF934B015C012A01E0
:10237000390133243A94222423948DC0BFEFCB2E0D
:10238000B1E0DB2EC820D920C601A0E0B0E0850175
:102390007401E81AF90A0A0B1B0BC0E0D2E0CC1951
:1023A000DD096C167D0608F4E30180917C44909170
:1023B0007D44A0917E44B0917F44E816F9060A0757
:1023C0001B07F9F00E946512882309F46AC0C11442
:1023D000D10421F482E0C030D80758F4C801B70115
:1023E00040E854E420E032E00E947F12882309F4A0
:1023F00058C0E0927C44F0927D4400937E44109358
:102400007F4480E8481684E4580669F09601205815
:102410003B4BC901B201AE010E94810010927B4486
:102420006C167D06E1F188E1B801A7010E945A11FE
:102430008823B9F58EEF8FB9779BFECF7798E0E8C8
:10244000F4E481918FB9779BFECF779886E4E038EA
:10245000F807B9F73FB8779BFECF77983FB8779BDF
:10246000FECF77983FB8779BFECF77988FB18F3F9D
:10247000C9F78FB9779BFECF77988FB14C0E5D1E51
:10248000CE01A0E0B0E0880E991EAA1EBB1E6C1AF9
:102490007D0A20927B446114710409F06FCF81E0C2
:1024A00001C080E0DF91CF911F910F91FF90EF90DD
:1024B000DF90CF90BF90AF909F908F907F906F9064
:1024C0005F904F903F902F90089580917B44882398
:1024D00011F081E0089560917C4470917D44809179
:1024E0007E4490917F4440E854E420E032E00E9432
:1024F000A311882319F081E080937B4408953F92D3
:102500004F925F926F927F928F929F92AF92BF9203
:10251000CF92DF92EF92FF920F931F93CF93DF93AF
:102520003B014C016A01290133243A947CC01FEF1E
:10253000A12E11E0B12EA620B720C501A0E0B0E089
:1025400084017301E81AF90A0A0B1B0BC0E0D2E000
:10255000CA19DB094C165D0608F4E20180917C443F
:1025600090917D44A0917E44B0917F44E816F90695
:102570000A071B0709F444C00E946512882309F466
:1025800058C081E1B801A7010E945A11882309F0BF
:1025900050C03FB8779BFECF77988FB18E3FC9F779
:1025A000E0E8F4E43FB8779BFECF77988FB1808363
:1025B00086E4EF37F80711F03196F4CFE0927C44CF
:1025C000F0927D4400937E4410937F4495012058FF
:1025D0003B4BC601B901AE010E9481003FB8779B19
:1025E000FECF77988FB13FB8779BFECF77988FB1AA
:1025F0003FB8779BFECFCC0EDD1E77988FB10AC017
:10260000950120583B4BC601B901AE010E948100E3
:10261000CC0EDD1E4C1A5D0ACE01A0E0B0E0680EC3
:10262000791E8A1E9B1E4114510409F080CF81E05F
:1026300001C080E0DF91CF911F910F91FF90EF904B
:10264000DF90CF90BF90AF909F908F907F906F90D2
:102650005F904F903F9008952F923F924F925F92DC
:102660006F927F928F929F92AF92BF92CF92DF92A2
:10267000EF92FF920F931F93DF93CF9300D000D080
:10268000CDB7DEB74B015C013A013C832B832701B8
:10269000DA82C98241155105A9F12115310591F15F
:1026A0000217130778F1E114F10461F11901309474
:1026B000219431083394021B130B6901EE24FF248B
:1026C000C501B401A3012B813C810E947F128823A4
:1026D000C9F0C301B501A40129813A81F20109952C
:1026E000882391F0020D131D8B819C81800F911F17
:1026F0002B813C818217930738F08C0C9D1CAE1CFB
:10270000BF1CDECF80E001C081E00F900F900F90E2
:102710000F90CF91DF911F910F91FF90EF90DF907D
:10272000CF90BF90AF909F908F907F906F905F9071
:102730004F903F902F900895CF93DF93BA9AB99A14
:10274000B89ABB9883E58DB9709810927A4480E06E
:102750009FEF9FB9779BFECF77982FB18F5F8A301D
:10276000C1F7C0E0D0E080E040E050E060E070E021
:102770000E945A11813039F081E0CF3FD80709F427
:1027800062C02196F0CF87E340E050E060E070E067
:102790000E945A1189E240E050E060E070E00E943F
:1027A0005A1182FD05C080917A44816080937A44F9
:1027B000C0E0D0E080917A4490E083709070892BE3
:1027C00049F087E340E050E060E070E00E945A1179
:1027D00089E201C081E040E050E060E070E00E94EA
:1027E0005A1180FF06C08FE7CF3FD80761F12196CD
:1027F000E1CF80E140E052E060E070E00E945A11D9
:10280000882309F58DB18C7F8DB9709A8FEF9FEF7A
:10281000AFEFBFEF80937C4490937D44A0937E44C0
:10282000B0937F4481E080937B4460E070E080E07F
:1028300090E040E854E420E032E00E947F128823D8
:1028400019F081E001C080E0DF91CF9108954F92AF
:102850005F926F927F928F929F92AF92BF92CF9230
:10286000DF92EF92FF920F931F93CF93DF935B0161
:102870006C014A01E901380127014115510571F147
:102880000115110559F1FF242115310511F5FF241A
:10289000F3941FC0C401B601A5019201F30109958B
:1028A0008C010097E9F0FF2019F4C817D907B0F0A0
:1028B000C601B501A40198010E94A311882371F0FB
:1028C000C801A0E0B0E0A80EB91ECA1EDB1EC01BE6
:1028D000D10BFF20F9F62097E9F602C080E001C095
:1028E00081E0DF91CF911F910F91FF90EF90DF90EA
:1028F000CF90BF90AF909F908F907F906F905F90A0
:102900004F900895FC0116A615A608951092012077
:102910001092002010920320109202201092322078
:102920001092312010926120109260200895FC01D5
:1029300085A596A5009719F42FEF3FEF04C050E04E
:102940000E94980D9C01C9010895FC0185A596A5DA
:10295000009719F42FEF3FEF04C050E00E940404E9
:102960009C01C9010895CF93DF93EC018DA59EA52D
:10297000009731F00E94FE030E9465121EA61DA65C
:10298000DF91CF910895EF92FF920F931F93CF9312
:10299000DF93EC017B018C01005A1F4FF80180810D
:1029A0009181009729F00E946805F8011182108238
:1029B0008E010D5C1F4F8A819B81B701A8010E9487
:1029C000E50F8A819B81B8010E94540FC05ADF4FE6
:1029D00099838883C056D040892B11F081E004C0D0
:1029E000CE01B7010E94FB14DF91CF911F910F918F
:1029F000FF90EF9008952F923F924F925F926F92C7
:102A00007F928F929F92AF92BF92CF92DF92EF927E
:102A1000FF920F931F93DF93CF93CDB7DEB7CD56C1
:102A2000D0400FB6F894DEBF0FBECDBF5C016B0186
:102A300020E630E0A20EB31EF5018081918120EAEC
:102A40003FEFA20EB31E892B09F474C0FB018081F5
:102A50008F3259F4C50160E071E00E94C3148823ED
:102A600009F468C00894C11CD11C23E3222E312C28
:102A70002A0C3B1C9EE2692E712C6C0E7D1E80E69A
:102A8000882E912C8A0C9B1C2E010894411C511CF1
:102A9000C6016FE270E00E9491007C01009739F45A
:102AA000C301B6014FE350E00E94B30010C08C0197
:102AB0000C191D09C301B601A8010E948100060D71
:102AC000171DF801108267010894C11CD11CF40184
:102AD00080819181B301A2010E94570C882331F4B7
:102AE000C301B2010E949C00009721F5D101F201BF
:102AF0008DE201900D928150E1F7F4018081918186
:102B00000E946805F50182819381B2010E94540FF1
:102B1000F40191838083892B69F0EF2809F0B8CF05
:102B20000E94651220E0F40180819181892B19F0C7
:102B300021E001C020E0822FC359DF4F0FB6F89487
:102B4000DEBF0FBECDBFCF91DF911F910F91FF90E0
:102B5000EF90DF90CF90BF90AF909F908F907F903D
:102B60006F905F904F903F902F9008954F925F929B
:102B70006F927F928F929F92AF92BF92CF92DF928D
:102B8000EF92FF920F931F93DF93CF93CDB7DEB7F2
:102B90003C014B014DB65EB6809160209091612062
:102BA000892B09F44CC0C3010E94B314C4016FE225
:102BB00070E00E94C2005C01009779F1DDB6CEB6EC
:102BC0008C0108191909C80101962DB73EB7281BB9
:102BD000390B0FB6F8943EBF0FBE2DBFEDB6FEB653
:102BE0000894E11CF11CC701B401A8010E948100F6
:102BF0000E0D1F1DF801108280E090E2B7010E94C7
:102C0000FB1445010894811C911C2D2D3C2DC901FC
:102C10000FB6F8949EBF0FBE8DBF062DE72C809196
:102C2000602090916120B401A3010E942F0D8823A0
:102C3000F1F4C401B3010E949C000097C1F020E0B0
:102C4000822F0FB6F8945EBE0FBE4DBECF91DF91BE
:102C50001F910F91FF90EF90DF90CF90BF90AF90BA
:102C60009F908F907F906F905F904F90089580918C
:102C7000022090910320602F7E2D0E94950FF3017A
:102C800096A785A720E0892BD9F221E0D9CF0F9311
:102C90001F93CF93DF93EC018C01005A1F4FF80173
:102CA00080819181009729F00E946805F8011182C6
:102CB000108289A99AA9009721F00E9468051AAA92
:102CC00019AA8A819B81009721F00E94E2001B8251
:102CD0001A8288819981009721F00E9476101982CA
:102CE00018820E949C13882311F481E032C08FE780
:102CF00092E16CE273E143EA51E127E234E100E062
:102D00000E947E1099838883009711F482E021C08D
:102D10000E94D2079B838A83009711F483E019C035
:102D20008E010C5F1F4F60E071E0A8010E94E50F6B
:102D30008A819B81B8010E94540F9AAB89AB892B81
:102D400011F484E006C0CE0160E071E00E94C3147B
:102D500080E0DF91CF911F910F910895EF92FF9244
:102D60000F931F93CF93DF93EB018A0179010BC07F
:102D7000C701B8010E949C00009729F4CE010E946F
:102D80006E0581E006C0CE01B7010E94C10688230E
:102D900079F7DF91CF911F910F91FF90EF900895F8
:102DA0004F925F926F927F928F929F92AF92BF925B
:102DB000CF92DF92EF92FF920F931F93DF93CF9307
:102DC000CDB7DEB73C014B014DB65EB680916020B9
:102DD00090916120892B09F457C0C3010E94B3145C
:102DE000C4016FE270E00E94C2005C01009779F1BB
:102DF000DDB6CEB68C0108191909C80101962DB7A8
:102E00003EB7281B390B0FB6F8943EBF0FBE2DBF3F
:102E1000EDB6FEB60894E11CF11CC701B401A8018F
:102E20000E9481000E0D1F1DF801108280E090E2CB
:102E3000B7010E94FB1445010894811C911C2D2DA3
:102E40003C2DC9010FB6F8949EBF0FBE8DBF609197
:102E50006020709161208091022090910320A40154
:102E600093010E94AE16882379F080910220909100
:102E70000320B3010E94950FF30196A785A720E0D8
:102E8000892B19F021E001C020E0822F0FB6F894C1
:102E90005EBE0FBE4DBECF91DF911F910F91FF908F
:102EA000EF90DF90CF90BF90AF909F908F907F90EA
:102EB0006F905F904F900895DC01FB0102C08D93ED
:102EC00031964115510529F04150504080818823A9
:102ED000B1F70895DC01FB0104C08D933196415098
:102EE00050404115510541F080818823B1F704C05D
:102EF0008D934150504001C080E241155105C1F70A
:102F00000895DC01FB0107C08491415050408823A3
:102F100029F08D93319641155105B1F708958FB77A
:102F2000F89420916220309163208FBFC9010895E9
:102F30006817790720F09B01281B390B05C09C01FD
:102F400020953095260F371FC9010895AF92BF9283
:102F5000CF92DF92EF92FF920F931F93A0E0B0E029
:102F6000BC01CD010E94A02A5B016C012BEA3AEA68
:102F70004AEA50E40E94562B7B018C0120E030E0AD
:102F800040E85FE30E94082A882314F461E054C0FB
:102F9000C801B70120E030E04FE753E40E94522B14
:102FA00018160CF045C0C601B50120E030E04AE734
:102FB00054E40E940C2A5B016C0120E030E04AE7F7
:102FC00055E40E94562B7B018C0120E030E040E864
:102FD0005FE30E94082A88231CF461E070E024C0AB
:102FE000C801B70120E03FEF4FE757E40E94522BA2
:102FF0001816B4F4C601B50120E030E040E251E417
:103000000E94562B0E94742A80E991E005C0FC01C1
:103010003197F1F76150704061157105C1F70EC02D
:10302000C801B7010E94742ACB010197F1F706C0CD
:10303000C801B7010E94742A6A95F1F71F910F9198
:10304000FF90EF90DF90CF90BF90AF900895AF9238
:10305000BF92CF92DF92EF92FF920F931F93A0E067
:10306000B0E0BC01CD010E94A02A5B016C0120E010
:1030700030E04AE755E40E94562B7B018C0120E0AA
:1030800030E040E85FE30E94082A88231CF461E0F6
:1030900070E024C0C801B70120E03FEF4FE757E4DC
:1030A0000E94522B1816B4F4C601B50120E030E09E
:1030B00040E251E40E94562B0E94742A80E991E07C
:1030C00005C0FC013197F1F7615070406115710541
:1030D000C1F707C0C801B7010E94742ACB0101974C
:1030E000F1F71F910F91FF90EF90DF90CF90BF907D
:1030F000AF900895680F791F641775072CF0A90128
:10310000621773070CF4AB01CA0108950895FC011E
:10311000138212821582148208950895DC01FB0146
:103120008081992787FD909514962D913C91159754
:10313000820F931F218145E0240290011124820F08
:10314000931F15969C938E9314970895FC01862FD8
:1031500081548A3138F4862F992787FD90958054C1
:10316000904009C0862F80538A3050F4862F9927CB
:1031700087FD90954597958384839383828304C0CC
:10318000158214821382128281E0828708950F9340
:103190001F938C01FB01618185E06802B00111245D
:1031A0008081992787FD9095680F791FF8014385E5
:1031B000548525853685848195810E947A18F80189
:1031C000958384831F910F910895CF93DF93EC0132
:1031D00086E891E0998388831B821A821D821C8273
:1031E0001A866115710531F0CE01069644E050E073
:1031F0000E946A171986DF91CF9108950F931F934C
:103200008C0160E070E00E94E518F80114861386D6
:1032100085E290E096878587158214821382128258
:1032200081E082878EE891E0918380831F910F91E6
:103230000895FC01E15BFF4FA081B181109741F03F
:10324000ED91FC9111970280F381E02DCD0109955C
:103250000895CF92DF92EF92FF920F931F93FC019C
:103260006A01E25BFF4F8081EE54F04090E027E27C
:1032700030E0A901849F9001859F300D949F300D0F
:1032800011248F01020F131F81E0D80150968C93F7
:10329000E62EFF242E0D3F1D2E0F3F1FC60168EEA8
:1032A00073E00E94EC2B64E670E00E94EC2B605D02
:1032B000F90160830E0D1F1DC60164E670E00E94D7
:1032C000EC2B6AE070E00E94EC2B605DD801119657
:1032D0006C93C6016AE070E00E94EC2B805DF801FF
:1032E000828380E283831F910F91FF90EF90DF90A4
:1032F000CF900895660F660F0E9429190895FC016A
:10330000EF5AFF4F7183608308951092B420E6E670
:10331000F0E280E2808387A3319690E2E637F907F6
:10332000C9F7108217A21092BA201092B9201092F9
:10333000B6201092B5200895EF92FF920F931F933D
:103340008C01FA0170E0BEE4EB2EF12CE80EF91EC0
:10335000D7018C9127E2829FC0011124860F971F0D
:1033600040E150E0461B570B800F911FBF010E94A8
:103370008117F701808190E027E230E0829FF00121
:10338000839FF00D929FF00D1124E00FF11F81E05B
:10339000808B1F910F91FF90EF900895660F660F3D
:1033A0000E949C190895EF92FF920F931F938C0136
:1033B000FA0170E08EE4E82EF12CE00EF11ED70148
:1033C0008C9127E2829FC0011124860F971F40E154
:1033D00050E0461B570B800F911FBF010E946A17D8
:1033E000F701808190E027E230E0829FF001839F27
:1033F000F00D929FF00D1124E00FF11F81E0808B02
:103400001F910F91FF90EF900895AB0160E00E9433
:10341000D3190895EF92FF920F931F938C01FA0135
:1034200070E09EE4E92EF12CE00EF11ED7018C91A4
:1034300027E2829FC0011124860F971F40E150E0D0
:10344000461B570B800F911FBF010E945C17F701AD
:10345000808190E027E230E0829FF001839FF00DB1
:10346000929FF00D1124E00FF11F81E0808B1F91DE
:103470000F91FF90EF900895660F660F0E940A1A51
:103480000895CF92DF92EF92FF920F931F936C01FA
:10349000DC01A25BBF4F8C9190E027E2E22EF12C81
:1034A0008E9DF0018F9DF00D9E9DF00D1124EC0D71
:1034B000FD1D81E082A381A38C9190E08E9DF0019F
:1034C0008F9DF00D9E9DF00D1124EC0DFD1D76A33A
:1034D00065A30C9110E00E948F170E9DF0010F9DC7
:1034E000F00D1E9DF00D1124EC0DFD1D94A383A382
:1034F0001F910F91FF90EF90DF90CF900895EF9282
:10350000FF920F931F938C01FA01790170E0025B27
:103510001F4FD8018C910E54104027E2829FC001AA
:103520001124860F971F419640E150E0461B570B30
:10353000800F911FBF010E946A17C801B7010E9446
:10354000411A1F910F91FF90EF900895FB019A018E
:1035500060E0AF010E947F1A0895AF92BF92CF92B0
:10356000DF92EF92FF920F931F938C015A01690132
:103570004EE4E42EF12CE80EF91EF7011082A901A9
:103580000E94A61A81E0F7018083C801B501A60157
:103590000E94A61A1F910F91FF90EF90DF90CF909D
:1035A000BF90AF900895662319F0613031F403C0E5
:1035B0000E94ED1B08950E94F81B0895AF92BF92E0
:1035C000CF92DF92EF92FF920F931F93CF93DF93EF
:1035D0008C017FB7F894FC01EF5AFF4F80819181F5
:1035E000009711F460E061C0015B1F4FD8018D931B
:1035F0009C930F54104011821082D801A25BBF4FE0
:103600001C9220E030E0ED0147E250E060E288816A
:1036100090E0849FF001859FF00D949FF00D1124A0
:10362000E20FF31FE00FF11F60832F5F3F4F203148
:10363000310569F78C9190E027E230E0829FF0013C
:10364000839FF00D929FF00D1124E00FF11F81E098
:10365000808B8C9320E030E0D801A25BBF4F47E223
:1036600050E060E28C9190E0849FF001859FF00D26
:10367000949FF00D1124E20FF31FE00FF11F608300
:103680002F5F3F4F2031310569F78C9190E027E2A1
:1036900030E0829FF001839FF00D929FF00D112486
:1036A000E00FF11F81E0808B61E07FBFE801C15B2B
:1036B000DF4FA881B981109791F0ED91FC9111979E
:1036C0000680F781E02DCD010995A881B981ED91A2
:1036D000FC9111970190F081E02DCD010995E80151
:1036E0006096EE24FF24A7E2AA2EB12CCC24C3942A
:1036F000DE2C8A89882331F10E948F17BC018B89C7
:103700009C890E9498172D893E892817390710F443
:10371000C8821A8A89898823A9F08AE492E46D2DE7
:103720000E94D31AEA9CB001EB9C700DFA9C700DBC
:1037300011246F5E7F4F600F711F8AE492E40E9434
:10374000CF1B198A88818823B1F08A89882399F44C
:103750008AE492E46D2D0E94D31AEA9CB001EB9C9E
:10376000700DFA9C700D1124600F711F8AE492E4B1
:103770000E94CF1B18820894E11CF11CA796B2E0AE
:10378000EB16F10409F0B4CFDF91CF911F910F91A7
:10379000FF90EF90DF90CF90BF90AF900895EF92A1
:1037A000FF921F93CF93DF937C01EB0110E06881C0
:1037B000662369F0103159F01F5FD701ED91FC913C
:1037C0000680F781E02DC70109952196F0CFDF91A2
:1037D000CF911F91FF90EF900895FC01A081B181DE
:1037E00014962D913C91159760E8F901099508957B
:1037F000FC01A081B18114962D913C91159760EC4C
:10380000F90109950895DC01ED91FC91119766236A
:1038100029F00480F581E02D6FE004C00480F5817B
:10382000E02D6CE009950895DC01ED91FC91629525
:10383000660F660F607C640F60680480F581E02D80
:103840000995089508950895089580E00895FC016C
:1038500080913B4281FF06C080FD04C081E082A3CD
:1038600014A213A28091404281FF08C080FD06C0CF
:1038700081E082A381E090E094A383A381E0089596
:10388000CF93DF93EC01662389F01092B420229647
:1038900086E690E2BE010E94051A81E08093B42082
:1038A000609686E690E2BE010E94051ADF91CF91F4
:1038B0000895AF92BF92CF92DF92EF92FF920F9353
:1038C0001F9386E991E09093BC208093BB201092D7
:1038D000DD201092DF201092DE2082E090E09093B5
:1038E000E1208093E0201092BD201092CD20109214
:1038F000E5201092E4201092E7201092E62010922A
:10390000E9201092E8201092EB201092EA2084EA3D
:1039100091E09093E3208093E22023E1A22E21E224
:10392000B22EC5010E94FE1892E2C92E91E2D92E54
:10393000C6010E94FE1881E3E82E81E2F82EC7013D
:103940000E94FE1800E411E2C8010E94FE181092C5
:103950000D2110920F2110920E211092EC20B092A6
:10396000E520A092E420D092E720C092E620F092D9
:10397000E920E092E8201093EB200093EA201F91C9
:103980000F91FF90EF90DF90CF90BF90AF90089590
:103990000F931F93CF93DF938C0177FF03C060E0F9
:1039A00070E005C06D30710514F06CE070E0D80176
:1039B0009F967C936E939E97C0E0D0E0CE0134E05A
:1039C000880F991F3A95E1F78C1B9D0BC196F80162
:1039D000EC0FFD1FD8019E962D913C919F97E20F11
:1039E000F31F800F911F628D0E94A6182196C4308C
:1039F000D10521F78AE492E461E0F80146A50E942E
:103A0000141CDF91CF911F910F910895CF93DF93F5
:103A1000EC018091364281FF09C080FD07C06EA590
:103A20007FA564507040CE010E94C81C8091454221
:103A300081FF09C080FD07C06EA57FA56C5F7F4F29
:103A4000CE010E94C81C80913B4281FF06C080FDD0
:103A500004C081E08BA71DA61CA68091404281FF77
:103A600008C080FD06C081E08BA781E090E09DA7A3
:103A70008CA781E0DF91CF910895CF93DF93EC0184
:103A8000662319F488A98823F9F01092B420BE01A6
:103A9000665F7F4F86E690E20E94051A81E0809380
:103AA000B420BE01665E7F4F86E690E20E94051A52
:103AB0008AE492E461E00E94031C8AE492E461E0FB
:103AC0004EA50E94141C18AADF91CF910895FF9271
:103AD0000F931F93CF93DF938C01FF24F801C281D2
:103AE000D381209791F06C817D818A819B816817B9
:103AF000790739F0E881F9810280F381E02DCE0168
:103B000009958C819D819B838A83F3940E5F1F4F5F
:103B1000F4E0FF1619F7DF91CF911F910F91FF90FD
:103B200008951F93CF93DF931092B420EC0110E01F
:103B30004A815B814115510541F04A5F5F4F86E63E
:103B400090E2612F0E943C1A07C086E690E2612F46
:103B50004CE850E00E94CE191F5F2296143041F7C6
:103B6000DF91CF911F910895FF920F931F93CF93F1
:103B7000DF93182F092FF62E662311F00E94911D56
:103B800081E08093B420212F302FC901EC0110E097
:103B9000EA81FB813097A1F0448155818281938134
:103BA0008417950729F4FF2019F48285882341F0B2
:103BB00086E690E2612F0E947A19EA81FB811286E3
:103BC0001F5F2296143021F7DF91CF911F910F9143
:103BD000FF9008951F93CF93DF93EC0110E08A814B
:103BE0009B81009711F00E9487181F5F2296143066
:103BF000B1F7DF91CF911F910895FF920F931F931B
:103C0000CF93DF93FFB6F8948C01CAE1D2E4F801B8
:103C1000A281B381109749F0ED91FC911197019029
:103C2000F081E02DCD01BE0109950E5F1F4F229658
:103C3000F2E4C232DF0759F7CE010E970E94BE258B
:103C4000FFBEDF91CF911F910F91FF900895FC016E
:103C5000718760878FEF818F1382128284E090E0FA
:103C60009183808380E090E01486138601963296DB
:103C700087309105C9F70895FC0176876587089517
:103C80000F931F93CF93DF93EC01162F683FC0F083
:103C90000FB7F8948091762190917721029771F473
:103CA0006A3F19F06C3F51F405C08FE491E20E9425
:103CB000861F04C08FE491E20E94AB1F0FBFAAC011
:103CC00001E0888199818230910509F46CC08330CC
:103CD000910534F4009729F1019709F09BC08FC03A
:103CE0008330910541F0049709F094C017FF92C00A
:103CF00019821882E6CF17FF0EC0173F39F01982DC
:103D0000188288E791E20E94EF20DBCF88E791E2FA
:103D10000E9471217FC088E791E2612F0E94B1214A
:103D200079C0103F59F483E090E09983888388E755
:103D300091E20E94E3201B821A826CC017FF03C02D
:103D40001A831B8205C08A81882309F463C00B8310
:103D50002A81203F08F4207F30E00BC0821741F415
:103D600081819281998388838A818D830C8310C09D
:103D70003F5F832F90E0FC01EE0FFF1FEE0FFF1F50
:103D8000E80FF91FE454FE4F8081882339F720E0C3
:103D90003A87222319F484E090E03AC08B8188238B
:103DA00009F08FCF37C08C81FE01E80FF11D15831C
:103DB0008F5F8C838A8590E0FC01EE0FFF1FEE0F72
:103DC000FF1FE80FF91FE454FE4F8081803921F472
:103DD0008F81882309F41A86EA85E73068F4F0E0D9
:103DE000EE0FFF1FEC0FFD1F0384F485E02D3097CD
:103DF00019F0CE0105960995198218820BC08C81A5
:103E0000FE01E80FF11D15838F5F8C8382E090E047
:103E100099838883DF91CF911F910F910895AF927D
:103E2000BF92CF92DF92EF92FF920F931F93CF93A7
:103E3000DF93EC018091642090916520688D798DED
:103E40006817790728F49C01261B370BB90104C0B9
:103E500060957095680F791F7B8F6A8F998F888F17
:103E60008C8D9D8DAE8DBF8D0196A11DB11D8C8F4A
:103E70009D8FAE8FBF8F8B898F5F8B8B863009F4C0
:103E80001B8A8DA19EA18130910519F0029799F5A9
:103E900005C082E090E09EA38DA32DC08C8D9D8DEA
:103EA000AE8DBF8D0297A105B10519F47D8B6C8B8A
:103EB00022C0A8A0B9A080E090E020E031E02A195B
:103EC0003B0940E050E00E94B92B7B018C01CC24DF
:103ED000DD242C893D8940E050E0C601B5010E94F7
:103EE000B92BE60EF71E081F191FEF2CF02E012F1D
:103EF0001127FD8AEC8ADF91CF911F910F91FF90DE
:103F0000EF90DF90CF90BF90AF900895FC0187A114
:103F100090A502970297F0F4118E108E148E158ED4
:103F2000168E178E138A8CED90E091A380A381E00A
:103F300090E096A385A3128A1682178210861186B6
:103F4000128613861486158616861786108A118A9D
:103F5000178A168A0895FC0187A190A502970297F7
:103F600010F416A215A20895FF920F931F938C01CF
:103F7000FFB6F894FC0173A362A39B0140E050E0FC
:103F80006AE572E682E090E00E94FF2B205130400B
:103F9000F801358B248BFFBE1F910F91FF90089580
:103FA0000F931F938C01FC0116A215A2178A168A83
:103FB000118E108E16821782108611861286138635
:103FC0001486158616861786108A118A128A148E10
:103FD000158E168E178E138A8CED90E091A380A318
:103FE00010A617A2C80168E770E00E94B41FF8018C
:103FF00011821082138212821582148214A21F91E0
:104000000F9108958FE491E20E94D01F0895EF92DE
:10401000FF920F931F93CF93DF93EC018E899F89BB
:10402000009709F0C3C08C899D899F8B8E8B8A89EC
:10403000882301F5EC81FD81309709F00995EA812B
:10404000FB81309709F009958E859F85A889B989EC
:104050000196A11DB11D8E879F87A88BB98B8A857C
:104060009B85AC85BD850196A11DB11D8A879B8767
:10407000AC87BD878A89833081F4EA81FB813097E0
:1040800009F009958A859B85AC85BD850196A11DA2
:10409000B11D8A879B87AC87BD878E819F81A8854C
:1040A000B9850196A11DB11D8E839F83A887B9870D
:1040B0008A898F5F8A8B2FA138A5C9010297029741
:1040C00008F05FC02091642030916520888D998D23
:1040D0002817390720F0F901E81BF90B05C0FC018E
:1040E000E095F095E20FF31FEE80FF8008851985BB
:1040F0002C8D3D8D4E8D5F8DE216F306040715075E
:1041000050F0DA01C9010196A11DB11D8E159F0560
:10411000A007B10730F42E833F83488759878B89E6
:104120008A8B2E813F81488559858C8D9D8DAE8DE2
:10413000BF8D6E897F8982179307A407B50768F042
:10414000CF01A0E0B0E034E0B695A79597958795AC
:104150003A95D1F7681B790B11C0E617F707E0F421
:10416000CB018E1B9F0BA0E0B0E024E0B695A79595
:10417000979587952A95D1F7680F791F7F8B6E8B5E
:104180000BC02130310541F48CA1882329F08CE447
:1041900092E468EF0E945B28E881F981309709F08A
:1041A00009958A89863029F41A8A03C001979F8B62
:1041B0008E8BDF91CF911F910F91FF90EF9008951B
:1041C000089508950895FC01118A108A10821182C1
:1041D0001186108615821282138214820895EF923E
:1041E000FF920F931F93CF93DF93EC0181E08883BD
:1041F0008E0188E0E82EF12CEC0EFD1EF801A2895C
:10420000B3891097C1F08D812A8112969C911297E3
:10421000882379F0291779F49B8113968C91139751
:10422000981749F49C8114968C911497981719F457
:1042300008C0291731F00E5F1F4F0E151F05F1F64C
:1042400009C0ED91FC9111970280F381E02DCD0121
:104250000995F1CFDF91CF911F910F91FF90EF90D2
:104260000895EF92FF920F931F93CF93DF93EC018A
:104270008C0198E0E92EF12CEC0EFD1EF801A289CC
:10428000B3891097C1F08D812A8112969C91129763
:10429000882379F0291779F49B8113968C911397D1
:1042A000981749F49C8114968C911497981719F4D7
:1042B00008C0291731F00E5F1F4F0E151F05F1F6CC
:1042C00009C0ED91FC9111970190F081E02DCD0195
:1042D0000995F1CFDF91CF911F910F91FF90EF9052
:1042E0000895EF92FF920F931F93CF93DF93EC010A
:1042F0008C0128E0E22EF12CE80EF91EF801A289CB
:10430000B3891097C1F08D812A8112969C911297E2
:10431000882379F0291779F49B8113968C91139750
:10432000981749F49C8114968C911497981719F456
:1043300008C0291731F00E5F1F4F0E151F05F1F64B
:1043400009C0ED91FC9111970480F581E02DCD011C
:104350000995F1CFDF91CF911F910F91FF90EF90D1
:104360000895CF92DF92FF920F931F93CF93DF9325
:10437000EC01F62E8881882309F06BC08889998921
:10438000892B51F46A83662319F481E08D8304C07C
:104390001D82CE010E9431218D81882369F0888998
:1043A00099898130910511F4FB8206C0029721F4AE
:1043B000FC82CE010E9431218E0138E0C32ED12C27
:1043C000CC0EDD1EF801A289B3891097C1F08D8152
:1043D0002A8112969C911297882379F0291779F4F3
:1043E0009B8113968C911397981749F49C8114968E
:1043F0008C911497981719F422C0291701F10E5FB8
:104400001F4F0C151D05F1F6888999890196998B26
:10441000888B89818823E9F0EC85FD853097C9F088
:10442000288539858E859F852817390790F4E20FF6
:10443000F31FF0822F5F3F4F398728870AC0ED9125
:10444000FC9111970680F781E02DCD016F2D099524
:10445000D6CFDF91CF911F910F91FF90DF90CF903A
:10446000089587E991E2909383218093822180E0EF
:1044700090E290937F2180937E2110928921109267
:104480008821109278211092792110928521109222
:104490008421109287211092862110927D218CEF29
:1044A00091E090939321809392211092942183E143
:1044B0008093952181E480939621089580918821AD
:1044C00090918921039721F4653011F40E94E62729
:1044D0000895CF92DF92EF92FF920F931F93CF93A5
:1044E000DF93EC016B017A01B9010E94E5188EE7B8
:1044F00091E099838883CE14DF042CF4DC86CB868C
:10450000FE86ED8604C0FC86EB86DE86CD861D83A6
:104510000C831B830A8381E08A87DF91CF911F91EF
:104520000F91FF90EF90DF90CF9008958F929F9220
:10453000AF92BF92CF92DF92EF92FF920F931F93B1
:1045400032E0C32E31E0D32E27E9822E21E4922ED1
:10455000C40160E070E04FE750E0960100E010E039
:104560000E94692296EAA92E91E4B92EC50160E065
:1045700070E04FE750E096010E94692285EBE82E3B
:1045800081E4F82EC70160E070E04FE750E096014B
:104590000E94692284EC91E460E070E04FE750E013
:1045A00096010E94692282EB91E09093D44180931E
:1045B000D3419092D6418092D541B092D841A092F9
:1045C000D741F092DA41E092D941F092DC41E09299
:1045D000DB418FED91E460E070E00E94271E89EFDF
:1045E00091E460E070E00E94271E1F910F91FF9000
:1045F000EF90DF90CF90BF90AF909F908F900895F5
:10460000EF92FF920F931F9383E192E40E94A525FE
:104610007C0102E212E4C8010E946D26C8016F2DE0
:104620000E94A12684E192E4B7010E94C7251F9150
:104630000F91FF90EF9008951F920F920FB60F9277
:1046400011242F933F934F935F936F937F938F9397
:104650009F93AF93BF93EF93FF93809164209091CA
:104660006520019690936520809364208091742149
:1046700090917521029721F48FE491E20E94072026
:10468000FF91EF91BF91AF919F918F917F916F912A
:104690005F914F913F912F910F900FBE0F901F9000
:1046A00018951092B42086E690E266E071E048E545
:1046B00052E00E94A61A0895EF92FF920F931F9363
:1046C000DF93CF93CDB7DEB7E4970FB6F894DEBF94
:1046D0000FBECDBF8091364290E09C0121703070BA
:1046E00081FF0CC0232B69F486E690E260E171E063
:1046F00048E552E00E94A61A1C9803C0232B09F03B
:104700001C9A80913B4290E09C012170307081FFA7
:104710000CC0232B69F486E690E263E171E048E582
:1047200052E00E94A61A1D9803C0232B09F01D9A7F
:104730008091404290E09C012170307081FF0DC05B
:10474000232B99F486E690E266E171E048E552E0B9
:104750000E94A61A84E690E004C0232B31F088EC76
:1047600090E090938700809386008091454281FF7E
:1047700082C080FD80C086E690E269E171E048E594
:1047800052E00E94A61A8E010A5F1F4FC8010E94C4
:104790008214C8016CE171E00E94B6158823A1F46F
:1047A00086E690E264E271E048E552E00E94A61AD3
:1047B000C8016CE171E00E94D016882329F486E6D6
:1047C00090E26BE271E00FC08E010A5F1F4FC801DB
:1047D00066E371E044E00E949714049769F086E66E
:1047E00090E26BE371E048E552E00E94A61ACE0128
:1047F00006960E94B314C2C0C8010E94B314C80137
:104800006CE171E00E94D016882329F486E690E2DC
:1048100061E471E0E8CFC8017E010894E11CF11C5D
:10482000B70144E00E94A514049729F086E690E2BF
:1048300066E471E0D8CF1D82C8010E94B314C7019D
:1048400066E371E045E050E00E94A500009729F47E
:1048500086E690E26BE471E004C086E690E267E5EC
:1048600071E046E551E028E532E00E94AD1ACE0144
:1048700006960E94B3148091224281FF0DC080FDF4
:104880000BC081E08093B42086E690E26FE571E092
:1048900048E552E00E94A61A8091274281FF52C04B
:1048A00080FD50C086E690E262E671E048E552E0A5
:1048B0000E94A61A10914F421069103F60F0183FF5
:1048C00010F410924E42E0914C42F0914D4206801D
:1048D000F781E02D1DC080915042882391F0809196
:1048E0004E42811759F0E0914C42F0914D420480C4
:1048F000F581E02D8CE492E4612F099510934E42EE
:104900000BC0E0914C42F0914D420480F581E02DC6
:104910008CE492E4612F0995E0914C42F0914D4274
:104920000480F581E02D8CE492E464E60995E09141
:104930004C42F0914D420480F581E02D8CE492E4EC
:1049400064E6099580912C4281FF0AC080FD08C071
:1049500086E690E265E671E048E552E00E94A61A1C
:104960008091314281FF0AC080FD08C086E690E256
:1049700068E671E048E552E00E94A61AE4960FB698
:10498000F894DEBF0FBECDBFCF91DF911F910F9185
:10499000FF90EF9008951F920F920FB60F9211247F
:1049A0002F933F934F935F936F937F938F939F9337
:1049B000AF93BF93EF93FF930E9400230E945C2369
:1049C0008091622090916320019690936320809360
:1049D000622020916220309163208091DD4190918E
:1049E000DE41281B390B37FF03C0309521953F4F1F
:1049F000295B3B4054F010924E428091622090918E
:104A000063209093DE418093DD41FF91EF91BF9150
:104A1000AF919F918F917F916F915F914F913F9156
:104A20002F910F900FBE0F901F9018950F931F930B
:104A300006E610E2C8010E941919C8010E94DE1A98
:104A40001F910F9108951F93182F8CE492E40E94F8
:104A50005F28882349F08CE492E40E946A28682F3A
:104A60008FED91E40E94401E87E992E40E940429A0
:104A7000882349F087E992E40E941129682F89EF81
:104A800091E40E94401E112311F00E9416251F91EF
:104A9000089580E090E20E94471687E991E49093A0
:104AA000D6418093D54186EA91E49093D841809392
:104AB000D74185EB91E49093DA418093D94184EC1E
:104AC00091E49093DC418093DB4186E690E263EDD4
:104AD00071E40E947F1989EF91E461E573E20E941D
:104AE0003C1E089584E690E00E9427180E94BB2790
:104AF0001C9A1D9AE2E2F2E48081816080833596FF
:104B000022E4EA34F207C1F7AAE8B1E2E0E0F0E01B
:104B10008D919C911197009719F08259914249F417
:104B2000EE0FFF1FE657FE4D82E991E291838083ED
:104B300005C031961296E430F10551F70E944925DF
:104B4000789481E00E942325FCCF9698969A20E0E5
:104B500030E040E0220F331F80B390E065E096958F
:104B600087956A95E1F781709070282B392B97987B
:104B7000979A4F5F403171F7C9010895FC0180E0B9
:104B8000178216828F5F32968430D1F70895AF92E4
:104B9000BF92CF92DF92EF92FF920F931F93CF932A
:104BA000DF93EC01D62EC72E8C0182E2E82E82E440
:104BB000F82E862F972F9C0160E070E0A880B980C6
:104BC000C9018A259B2583709070892B09F460C0E8
:104BD000D7018C9180FF05C0FB013396EE0FFF1FBC
:104BE00004C0FB01EE0FFF1F3796EC0FFD1FD8012D
:104BF00012968C91482F50E043705070411551052A
:104C000059F4C50183709070019731F4C901837024
:104C100090700397B9F40DC04330510581F4C5017C
:104C2000837090700297D9F4C90183709070892BBA
:104C3000C9F48081803444F580818F5F24C04115A0
:104C4000510569F4B3E0AB22BB2482E0A816B1049D
:104C5000D9F4C901837090700397B1F40FC0433049
:104C6000510591F493E0A922BB24A1E0AA16B10456
:104C700059F4C90183709070892B31F48081813C93
:104C80001CF080818150808388818370F801828349
:104C9000888199819695879596958795998388833C
:104CA0006F5F7F4F0F5F1F4F85E090E0E80EF91EAA
:104CB0006430710529F036952795369527957ECF76
:104CC000D882C982DF91CF911F910F91FF90EF9011
:104CD000DF90CF90BF90AF900895E2E2F2E4908130
:104CE000892F877C808380FF03C08260808302C01D
:104CF000957C9083359682E4EA34F80781F708952D
:104D000081B3806C81BB8D989598979A969AEAE1C9
:104D1000F2E411821082329682E4E232F807C9F797
:104D20001092164210921742109218421092194295
:104D3000109215421092144282E292E40E946D2673
:104D40000895CF92DF92EF92FF920F931F93CF932C
:104D5000DF93C2E2D2E48C01C62EDD24888160FF9D
:104D600002C0816001C08E7F88830E948F177C0102
:104D7000988191FF19C090FD17C0F801F282E1827D
:104D800092FF0DC083819481B7010E949817883CDF
:104D9000910550F4888188608B7F888305C0F80175
:104DA000F482E38294609883888180FD0FC082FF43
:104DB0000DC0F80183819481B7010E949817815238
:104DC000934020F0888180628B7F88838881857002
:104DD0008530A1F4F80183819481B7010E9498176E
:104DE000F3E081329F0718F088818B7F06C0893CF1
:104DF000910520F088818B7F8061888325960B5FE9
:104E00001F4F22E4CA34D20721F0D594C7946C2DE9
:104E1000A3CFDF91CF911F910F91FF90EF90DF9083
:104E2000CF9008951E9A1E9808951F93DC011FB716
:104E3000F894E2E6F0E080816F70807F862B8083BB
:104E4000ED91FC9111970190F081E02DCD01099534
:104E50001FBF1F910895FF920F931F938C01F62E91
:104E6000DC01ED91FC9170E084E0759567958A9581
:104E7000E1F70280F381E02DC8010995D801ED9199
:104E8000FC91BFE0FB220280F381E02DC8016F2D71
:104E900009951F910F91FF9008951F93DC011FB793
:104EA000F8941A9AED91FC910084F185E02D099512
:104EB0001FBF82E390E00E94A6171F9108951F93E1
:104EC000DC011FB7F8941A98ED91FC910084F185EC
:104ED000E02D09951FBF82E390E00E94A6171F9165
:104EE00008950F931F938C0188E092E0F80191835D
:104EF0008083E1E6F0E080818F6080831092620021
:104F000082B1846482B9C80163E00E941527C80198
:104F100062E00E94152788EC90E00E94A617C80165
:104F200068E20E945F27C8016CE00E945F27C80109
:104F300064E00E945F27C80161E00E945F27C8010A
:104F400062E00E945F2785E090E00E9427181F9191
:104F50000F9108958AE492E40E94712708959C01BC
:104F6000E199FECF3FBB2EBB6DBB0FB6F894E29A22
:104F7000E19A0FBE089588E10FB6F89481BD11BC87
:104F80000FBE8FEF84BB15BA21E025BF80E885BF37
:104F90008C9A949A89E080938A0081E880938B00B0
:104FA00080EA90E0909387008093860082B18063CE
:104FB00082B92FBD8EB589608EBD8BE485BD87B764
:104FC000806487BF87B7846087BF0895F89484E0C2
:104FD00090E060E070E04FEA57E20E94CD00E0917F
:104FE0006B01F0916C0109950895EF92FF920F9378
:104FF0001F93CF93DF938C017B01EA010CC0D70193
:105000006D917D01D801ED91FC910480F581E02D39
:10501000C80109952197209791F7DF91CF911F91B2
:105020000F91FF90EF900895FC011482138286E2A5
:1050300092E0918380831582168217A210A611A692
:10504000E65BFF4F1082EA54F0401282109290000B
:105050008FE189B986E08093950088E98AB9569AEC
:105060000895FC011482138286E292E0918380838A
:105070001582168217A210A611A6E65BFF4F1082BA
:10508000EA54F0401282109290008FE189B986E0D4
:105090008093950088E98AB9569A0895FC01128296
:1050A000109290008FE189B986E08093950088E99D
:1050B0008AB9569A08955D9BFECF6CB90895FC019C
:1050C0009FB7F894258186819FBF90E0281391E0D7
:1050D000892F0895DC012FB7F89415969C911597A8
:1050E00016968C9116972FBF981711F420E010C0D8
:1050F00015968C911597FD01E80FF11D27811596E6
:105100008C91159790E001968F71907015968C9305
:10511000822F08951F920F920FB60F9211242F9392
:105120008F939F93EF93FF932FB7F89490917442CE
:10513000809175422FBF981749F12FB7F89490913D
:105140007442809175422FBF981711F480E006C019
:10515000E0917442F0E0E45BFD4B82A58CB92FB77F
:10516000F89490917442809175422FBF981771F016
:10517000E0917442F0E0E45BFD4B82A580917442C3
:1051800090E001968F71907080937442FF91EF913F
:105190009F918F912F910F900FBE0F901F90189598
:1051A0000F931F938C010E94142886E192E0F8016E
:1051B00091838083055B1F4FF80111928F0110824C
:1051C0000F5D1F4FF80110820D561040F80112823A
:1051D000109298008FE18093990086E080939D0063
:1051E00080E980939A001F910F910895FC0112822B
:1051F000109298008FE18093990086E080939D0043
:1052000080E980939A000895FC012FB7F894E55B3C
:10521000FF4F919180812FBF20E0981321E0822FD2
:105220000895FC012FB7F894DC01A55BBF4F9C915A
:10523000E45BFF4F8081EC54F0402FBF981711F4CE
:1052400020E00CC08C91E80FF11DE35BFF4F208143
:105250008C9190E001968F7190708C93822F0895BD
:10526000DC018FB7F89411962C9111979C918FBF08
:1052700030E02F5F3F4F2F713070921741F49296BC
:105280008C9192978F5F92968C9380E008951196FF
:105290008C911197FD01E80FF11D628311968C919D
:1052A000119790E001968F71907011968C9381E028
:1052B00008958CE492E40E94312887E992E40E94E8
:1052C000D02808951F920F920FB60F9211242F939A
:1052D0003F934F935F936F937F938F939F93AF937E
:1052E000BF93EF93FF9360919C00683F59F48091C6
:1052F000762190917721039729F48FE491E20E941F
:105300000F1F04C082EE92E40E943029FF91EF91BA
:10531000BF91AF919F918F917F916F915F914F91CD
:105320003F912F910F900FBE0F901F9018951F92D5
:105330000F920FB60F9211242F933F934F935F93C9
:105340006F937F938F939F93AF93BF93EF93FF934D
:105350006CB1683F59F48091762190917721029742
:1053600029F48FE491E20E940F1F04C081E592E4CA
:105370000E943029FF91EF91BF91AF919F918F9142
:105380007F916F915F914F913F912F910F900FBE41
:105390000F901F9018950F931F93CF93DF93EC01FD
:1053A000062F2FB7F89498A589A52FBF9817F1F469
:1053B0005D9B1CC00CB927C01FB778948AE090E0B1
:1053C0000E94A6171FBF8FB7F89429A598A58FBF75
:1053D00030E02F5F3F4F2F713070921711F7ECCFF5
:1053E000CE018896602F0E9430290DC08FB7F894A7
:1053F00029A598A58FBF30E02F5F3F4F2F713070E8
:10540000921709F3EDCFDF91CF911F910F9108957E
:10541000D4D008F481E008950CD00AC102D140F044
:10542000F9D030F021F45F3F19F0EBC0511134C1D5
:10543000EEC00FD198F39923C9F35523B1F3951B0F
:10544000550BBB27AA2762177307840738F09F5FA5
:105450005F4F220F331F441FAA1FA9F333D00E2E14
:105460003AF0E0E830D091505040E695001CCAF781
:1054700029D0FE2F27D0660F771F881FBB1F261746
:1054800037074807AB07B0E809F0BB0B802DBF0119
:10549000FF2793585F4F2AF09E3F510568F0B1C037
:1054A000FBC05F3FECF3983EDCF3869577956795FC
:1054B000B795F7959F5FC9F7880F911D96958795CA
:1054C00097F90895E1E0660F771F881FBB1F6217E9
:1054D00073078407BA0720F0621B730B840BBA0BA7
:1054E000EE1F88F7E0950895BCD088F09F5790F0A4
:1054F000B92F9927B751A0F0D1F0660F771F881FF9
:10550000991F1AF0BA95C9F712C0B13081F0C3D013
:10551000B1E00895C0C0672F782F8827B85F39F0B1
:10552000B93FCCF3869577956795B395D9F73EF457
:1055300090958095709561957F4F8F4F9F4F0895FF
:10554000E89409C097FB3EF490958095709561951D
:105550007F4F8F4F9F4F9923A9F0F92F96E9BB27D3
:105560009395F695879577956795B795F111F8CF4F
:10557000FAF4BB0F11F460FF1BC06F5F7F4F8F4FBA
:105580009F4F16C0882311F096E911C0772321F0B0
:105590009EE8872F762F05C0662371F096E8862F48
:1055A00070E060E02AF09A95660F771F881FDAF79F
:1055B000880F9695879597F90895990F0008550FCC
:1055C000AA0BE0E8FEEF16161706E807F907C0F089
:1055D00012161306E407F50798F0621B730B840B91
:1055E000950B39F40A2661F0232B242B252B21F46B
:1055F00008950A2609F4A140A6958FEF811D811D0B
:10560000089597F99F6780E870E060E008959FEF44
:1056100080EC089500240A94161617061806090649
:10562000089500240A941216130614060506089518
:10563000092E0394000C11F4882352F0BB0F40F4A0
:10564000BF2B11F460FF04C06F5F7F4F8F4F9F4FE0
:10565000089557FD9058440F551F59F05F3F71F062
:105660004795880F97FB991F61F09F3F79F08795C9
:105670000895121613061406551FF2CF4695F1DF52
:1056800008C0161617061806991FF1CF86957105E2
:10569000610508940895E894BB2766277727CB0116
:1056A00097F908958ADF08F48FEF08950BD0C0CFE3
:1056B000B1DF28F0B6DF18F0952309F0A2CFA7CF0D
:1056C0001124EACFC6DFA0F3959FD1F3950F50E0E8
:1056D000551F629FF001729FBB27F00DB11D639FA4
:1056E000AA27F00DB11DAA1F649F6627B00DA11D4A
:1056F000661F829F2227B00DA11D621F739FB00DF0
:10570000A11D621F839FA00D611D221F749F33275F
:10571000A00D611D231F849F600D211D822F762FF8
:105720006A2F11249F5750408AF0E1F088234AF0F5
:10573000EE0FFF1FBB1F661F771F881F9150504041
:10574000A9F79E3F510570F05CCFA6CF5F3FECF309
:10575000983EDCF3869577956795B795F795E7952D
:105760009F5FC1F7FE2B880F911D9695879597F93E
:105770000895629FD001739FF001829FE00DF11D9B
:10578000649FE00DF11D929FF00D839FF00D749FBB
:10579000F00D659FF00D9927729FB00DE11DF91F67
:1057A000639FB00DE11DF91FBD01CF0111240895C4
:1057B000AA1BBB1B51E107C0AA1FBB1FA617B70737
:1057C00010F0A61BB70B881F991F5A95A9F7809553
:1057D0009095BC01CD01089597FB092E07260AD0AC
:1057E00077FD04D0E5DF06D000201AF470956195AE
:1057F0007F4F0895F6F7909581959F4F0895A1E208
:105800001A2EAA1BBB1BFD010DC0AA1FBB1FEE1F3A
:10581000FF1FA217B307E407F50720F0A21BB30B85
:10582000E40BF50B661F771F881F991F1A9469F701
:1058300060957095809590959B01AC01BD01CF015D
:105840000895EE0FFF1F0590F491E02D0994F89450
:02585000FFCF88
:105852002F00545354004E4F544520524543560096
:105862004231004232004233004234002F52572E5E
:1058720074787400435245415445004F50454E20C0
:1058820045584953540048454C4F005752495445D6
:10589200004F50454E005245414400534420535559
:1058A200434345535300005344204641494C00456D
:1058B200310045320045330045340000F001030554
:1058C20007090E10121416181C1E00000000C7183B
:1058D2008618000000008E188D1800000000C718FE
:1058E200861800000000221C231C241C401C271CBC
:1058F20000000000671DFD1DEA1D3D1D061D000084
:105902000000671DFD1DEA1DB41D251C800100005D
:10591200009001000000A001000000B001000000A2
:10592200C002000000D002000000E001000000F10F
:1059320002000000F201000000F302000000F60085
:10594200000000000400000000000000E020E12050
:10595200E2205E2200000000122715275F274D2754
:105962002B2700000000F628F527CB295B28042905
:105972001129000000004E28F527CB295B285F285B
:025982006A2891
:00000001FF
